{
  "transactions": [
    {
      "hash": "0x23f720f67573c088af70ec33fea846a9b1b60edba6086aea5bdf6acbc45d40da",
      "transactionType": "CALL",
      "contractName": null,
      "contractAddress": "0x828223b512bf1892229fec61c5c1376bded3a285",
      "function": "createMarket(address,uint256,uint256,(bytes32[],bytes[]),(bytes32[],bytes[]),uint8)",
      "arguments": [
        "0x488327236B65C61A6c083e8d811a4E0D3d1D4268",
        "4838400",
        "1000000000000000",
        "([0xaa8c217c02ffffffffffff01f8e66eac95d27dd30a756ee1a2d2d96d392b61cb, 0x095ea7b3010001ffffffffff488327236b65c61a6c083e8d811a4e0d3d1d4268, 0xd0e30db001ffffffffffffff844f6b31f7d1240134b3d63ffc2b6f1c7f2612b6], [0x000000000000000000000000844f6b31f7d1240134b3d63ffc2b6f1c7f2612b6, 0x])",
        "([0x3ccfd60b01ffffffffffffff844f6b31f7d1240134b3d63ffc2b6f1c7f2612b6], [])",
        "2"
      ],
      "transaction": {
        "from": "0x77777cc68b333a2256b436d675e8d257699aa667",
        "to": "0x828223b512bf1892229fec61c5c1376bded3a285",
        "gas": "0x7a041",
        "value": "0x0",
        "input": "0xf6242301000000000000000000000000488327236b65c61a6c083e8d811a4e0d3d1d4268000000000000000000000000000000000000000000000000000000000049d40000000000000000000000000000000000000000000000000000038d7ea4c6800000000000000000000000000000000000000000000000000000000000000000c000000000000000000000000000000000000000000000000000000000000002400000000000000000000000000000000000000000000000000000000000000002000000000000000000000000000000000000000000000000000000000000004000000000000000000000000000000000000000000000000000000000000000c00000000000000000000000000000000000000000000000000000000000000003aa8c217c02ffffffffffff01f8e66eac95d27dd30a756ee1a2d2d96d392b61cb095ea7b3010001ffffffffff488327236b65c61a6c083e8d811a4e0d3d1d4268d0e30db001ffffffffffffff844f6b31f7d1240134b3d63ffc2b6f1c7f2612b60000000000000000000000000000000000000000000000000000000000000002000000000000000000000000000000000000000000000000000000000000004000000000000000000000000000000000000000000000000000000000000000800000000000000000000000000000000000000000000000000000000000000020000000000000000000000000844f6b31f7d1240134b3d63ffc2b6f1c7f2612b600000000000000000000000000000000000000000000000000000000000000000000000000000000000000000000000000000000000000000000000000000040000000000000000000000000000000000000000000000000000000000000008000000000000000000000000000000000000000000000000000000000000000013ccfd60b01ffffffffffffff844f6b31f7d1240134b3d63ffc2b6f1c7f2612b60000000000000000000000000000000000000000000000000000000000000000",
        "nonce": "0x26",
        "chainId": "0xaa37dc"
      },
      "additionalContracts": [],
      "isFixedGasLimit": false
    },
    {
      "hash": "0xe2606e36694e515813e49c2f99239a25e9d02752fb24b79e435628baedd05699",
      "transactionType": "CALL",
      "contractName": null,
      "contractAddress": "0x488327236b65c61a6c083e8d811a4e0d3d1d4268",
      "function": "approve(address,uint256)",
      "arguments": [
        "0x828223B512BF1892229FeC61C5c1376BDED3a285",
        "115792089237316195423570985008687907853269984665640564039457584007913129639935"
      ],
      "transaction": {
        "from": "0x77777cc68b333a2256b436d675e8d257699aa667",
        "to": "0x488327236b65c61a6c083e8d811a4e0d3d1d4268",
        "gas": "0x9e88",
        "value": "0x0",
        "input": "0x095ea7b3000000000000000000000000828223b512bf1892229fec61c5c1376bded3a285ffffffffffffffffffffffffffffffffffffffffffffffffffffffffffffffff",
        "nonce": "0x27",
        "chainId": "0xaa37dc"
      },
      "additionalContracts": [],
      "isFixedGasLimit": false
    },
    {
      "hash": "0xe02c335be6d06500e57eae6092967007b767b955d989e6c2b29a92facc61a12e",
      "transactionType": "CALL",
      "contractName": null,
      "contractAddress": "0x828223b512bf1892229fec61c5c1376bded3a285",
      "function": "createIPOffer(bytes32,uint256,uint256,address[],uint256[])",
      "arguments": [
        "0xed1a5b37506144f9ad6db6bd9971bd2721926f33c2bda21b191d0ee8b39a6d01",
        "10000000000",
        "1731025688",
        "[0x488327236B65C61A6c083e8d811a4E0D3d1D4268]",
        "[100000000]"
      ],
      "transaction": {
        "from": "0x77777cc68b333a2256b436d675e8d257699aa667",
        "to": "0x828223b512bf1892229fec61c5c1376bded3a285",
        "gas": "0x72157",
        "value": "0x0",
        "input": "0xee46ebc6ed1a5b37506144f9ad6db6bd9971bd2721926f33c2bda21b191d0ee8b39a6d0100000000000000000000000000000000000000000000000000000002540be40000000000000000000000000000000000000000000000000000000000672d5b1800000000000000000000000000000000000000000000000000000000000000a000000000000000000000000000000000000000000000000000000000000000e00000000000000000000000000000000000000000000000000000000000000001000000000000000000000000488327236b65c61a6c083e8d811a4e0d3d1d426800000000000000000000000000000000000000000000000000000000000000010000000000000000000000000000000000000000000000000000000005f5e100",
        "nonce": "0x28",
        "chainId": "0xaa37dc"
      },
      "additionalContracts": [],
      "isFixedGasLimit": false
    },
    {
      "hash": "0x7d331d674442f8d019ab522048085e1fbb548a58515ac26c11cd94d8d773fcb6",
      "transactionType": "CALL",
      "contractName": null,
      "contractAddress": "0x828223b512bf1892229fec61c5c1376bded3a285",
      "function": "fillIPOffers(bytes32[],uint256[],address,address)",
      "arguments": [
        "[0x960810f9a463d7c02bc9ce272ff1cb7b6bfbdff794067f8a59ce98d634cc36da, 0x960810f9a463d7c02bc9ce272ff1cb7b6bfbdff794067f8a59ce98d634cc36da, 0x960810f9a463d7c02bc9ce272ff1cb7b6bfbdff794067f8a59ce98d634cc36da, 0x960810f9a463d7c02bc9ce272ff1cb7b6bfbdff794067f8a59ce98d634cc36da, 0x960810f9a463d7c02bc9ce272ff1cb7b6bfbdff794067f8a59ce98d634cc36da, 0x960810f9a463d7c02bc9ce272ff1cb7b6bfbdff794067f8a59ce98d634cc36da, 0x960810f9a463d7c02bc9ce272ff1cb7b6bfbdff794067f8a59ce98d634cc36da, 0x960810f9a463d7c02bc9ce272ff1cb7b6bfbdff794067f8a59ce98d634cc36da, 0x960810f9a463d7c02bc9ce272ff1cb7b6bfbdff794067f8a59ce98d634cc36da, 0x960810f9a463d7c02bc9ce272ff1cb7b6bfbdff794067f8a59ce98d634cc36da]",
        "[1000000000, 1000000000, 1000000000, 1000000000, 1000000000, 1000000000, 1000000000, 1000000000, 1000000000, 1000000000]",
        "0x0000000000000000000000000000000000000000",
        "0x77777Cc68b333a2256B436D675E8D257699Aa667"
      ],
      "transaction": {
        "from": "0x77777cc68b333a2256b436d675e8d257699aa667",
        "to": "0x828223b512bf1892229fec61c5c1376bded3a285",
        "gas": "0x48946c",
        "value": "0x0",
        "input": "0x0600fc6f000000000000000000000000000000000000000000000000000000000000008000000000000000000000000000000000000000000000000000000000000001e0000000000000000000000000000000000000000000000000000000000000000000000000000000000000000077777cc68b333a2256b436d675e8d257699aa667000000000000000000000000000000000000000000000000000000000000000a960810f9a463d7c02bc9ce272ff1cb7b6bfbdff794067f8a59ce98d634cc36da960810f9a463d7c02bc9ce272ff1cb7b6bfbdff794067f8a59ce98d634cc36da960810f9a463d7c02bc9ce272ff1cb7b6bfbdff794067f8a59ce98d634cc36da960810f9a463d7c02bc9ce272ff1cb7b6bfbdff794067f8a59ce98d634cc36da960810f9a463d7c02bc9ce272ff1cb7b6bfbdff794067f8a59ce98d634cc36da960810f9a463d7c02bc9ce272ff1cb7b6bfbdff794067f8a59ce98d634cc36da960810f9a463d7c02bc9ce272ff1cb7b6bfbdff794067f8a59ce98d634cc36da960810f9a463d7c02bc9ce272ff1cb7b6bfbdff794067f8a59ce98d634cc36da960810f9a463d7c02bc9ce272ff1cb7b6bfbdff794067f8a59ce98d634cc36da960810f9a463d7c02bc9ce272ff1cb7b6bfbdff794067f8a59ce98d634cc36da000000000000000000000000000000000000000000000000000000000000000a000000000000000000000000000000000000000000000000000000003b9aca00000000000000000000000000000000000000000000000000000000003b9aca00000000000000000000000000000000000000000000000000000000003b9aca00000000000000000000000000000000000000000000000000000000003b9aca00000000000000000000000000000000000000000000000000000000003b9aca00000000000000000000000000000000000000000000000000000000003b9aca00000000000000000000000000000000000000000000000000000000003b9aca00000000000000000000000000000000000000000000000000000000003b9aca00000000000000000000000000000000000000000000000000000000003b9aca00000000000000000000000000000000000000000000000000000000003b9aca00",
        "nonce": "0x29",
        "chainId": "0xaa37dc"
      },
      "additionalContracts": [
        {
          "transactionType": "CREATE",
          "address": "0xe6807222ed0fa7b47b4a487c87181b1fe9313469",
          "initCode": "0x3d6100c380600b3d3981f3363d3d3761008b603836393d3d3d3661008b013d73bc52f921b50b0572a649deb553d104f6ecacb6695af43d82803e903d91603657fd5bf377777cc68b333a2256b436d675e8d257699aa667828223b512bf1892229fec61c5c1376bded3a285000000000000000000000000000000000000000000000000000000003b9aca00000000000000000000000000000000000000000000000000000000006764ba4001ed1a5b37506144f9ad6db6bd9971bd2721926f33c2bda21b191d0ee8b39a6d010089"
        },
        {
          "transactionType": "CREATE",
          "address": "0x3eb3b949e5e7cd4ba8a8105f99252616cd01c5b6",
          "initCode": "0x3d6100c380600b3d3981f3363d3d3761008b603836393d3d3d3661008b013d73bc52f921b50b0572a649deb553d104f6ecacb6695af43d82803e903d91603657fd5bf377777cc68b333a2256b436d675e8d257699aa667828223b512bf1892229fec61c5c1376bded3a285000000000000000000000000000000000000000000000000000000003b9aca00000000000000000000000000000000000000000000000000000000006764ba4001ed1a5b37506144f9ad6db6bd9971bd2721926f33c2bda21b191d0ee8b39a6d010089"
        },
        {
          "transactionType": "CREATE",
          "address": "0x5bb2283bceee5da65987d8b68a7fa17bf7b9955f",
          "initCode": "0x3d6100c380600b3d3981f3363d3d3761008b603836393d3d3d3661008b013d73bc52f921b50b0572a649deb553d104f6ecacb6695af43d82803e903d91603657fd5bf377777cc68b333a2256b436d675e8d257699aa667828223b512bf1892229fec61c5c1376bded3a285000000000000000000000000000000000000000000000000000000003b9aca00000000000000000000000000000000000000000000000000000000006764ba4001ed1a5b37506144f9ad6db6bd9971bd2721926f33c2bda21b191d0ee8b39a6d010089"
        },
        {
          "transactionType": "CREATE",
          "address": "0xaa5ca9297ad896bf218e78654e2c0c5c2d28ea86",
          "initCode": "0x3d6100c380600b3d3981f3363d3d3761008b603836393d3d3d3661008b013d73bc52f921b50b0572a649deb553d104f6ecacb6695af43d82803e903d91603657fd5bf377777cc68b333a2256b436d675e8d257699aa667828223b512bf1892229fec61c5c1376bded3a285000000000000000000000000000000000000000000000000000000003b9aca00000000000000000000000000000000000000000000000000000000006764ba4001ed1a5b37506144f9ad6db6bd9971bd2721926f33c2bda21b191d0ee8b39a6d010089"
        },
        {
          "transactionType": "CREATE",
          "address": "0x328422d87b926933c11a63c451af7acfa7bfa298",
          "initCode": "0x3d6100c380600b3d3981f3363d3d3761008b603836393d3d3d3661008b013d73bc52f921b50b0572a649deb553d104f6ecacb6695af43d82803e903d91603657fd5bf377777cc68b333a2256b436d675e8d257699aa667828223b512bf1892229fec61c5c1376bded3a285000000000000000000000000000000000000000000000000000000003b9aca00000000000000000000000000000000000000000000000000000000006764ba4001ed1a5b37506144f9ad6db6bd9971bd2721926f33c2bda21b191d0ee8b39a6d010089"
        },
        {
          "transactionType": "CREATE",
          "address": "0x6122fa1c6d4deadc677e7129cecedd140f768b49",
          "initCode": "0x3d6100c380600b3d3981f3363d3d3761008b603836393d3d3d3661008b013d73bc52f921b50b0572a649deb553d104f6ecacb6695af43d82803e903d91603657fd5bf377777cc68b333a2256b436d675e8d257699aa667828223b512bf1892229fec61c5c1376bded3a285000000000000000000000000000000000000000000000000000000003b9aca00000000000000000000000000000000000000000000000000000000006764ba4001ed1a5b37506144f9ad6db6bd9971bd2721926f33c2bda21b191d0ee8b39a6d010089"
        },
        {
          "transactionType": "CREATE",
          "address": "0xfe888881ea85837526483039bb23168041e77a6c",
          "initCode": "0x3d6100c380600b3d3981f3363d3d3761008b603836393d3d3d3661008b013d73bc52f921b50b0572a649deb553d104f6ecacb6695af43d82803e903d91603657fd5bf377777cc68b333a2256b436d675e8d257699aa667828223b512bf1892229fec61c5c1376bded3a285000000000000000000000000000000000000000000000000000000003b9aca00000000000000000000000000000000000000000000000000000000006764ba4001ed1a5b37506144f9ad6db6bd9971bd2721926f33c2bda21b191d0ee8b39a6d010089"
        },
        {
          "transactionType": "CREATE",
          "address": "0xc247d81baf9d650b1f92dcbd3868779f8f5844b4",
          "initCode": "0x3d6100c380600b3d3981f3363d3d3761008b603836393d3d3d3661008b013d73bc52f921b50b0572a649deb553d104f6ecacb6695af43d82803e903d91603657fd5bf377777cc68b333a2256b436d675e8d257699aa667828223b512bf1892229fec61c5c1376bded3a285000000000000000000000000000000000000000000000000000000003b9aca00000000000000000000000000000000000000000000000000000000006764ba4001ed1a5b37506144f9ad6db6bd9971bd2721926f33c2bda21b191d0ee8b39a6d010089"
        },
        {
          "transactionType": "CREATE",
          "address": "0x7a23cfd36e287496eb0918c3e3287541c1b131c3",
          "initCode": "0x3d6100c380600b3d3981f3363d3d3761008b603836393d3d3d3661008b013d73bc52f921b50b0572a649deb553d104f6ecacb6695af43d82803e903d91603657fd5bf377777cc68b333a2256b436d675e8d257699aa667828223b512bf1892229fec61c5c1376bded3a285000000000000000000000000000000000000000000000000000000003b9aca00000000000000000000000000000000000000000000000000000000006764ba4001ed1a5b37506144f9ad6db6bd9971bd2721926f33c2bda21b191d0ee8b39a6d010089"
        },
        {
          "transactionType": "CREATE",
          "address": "0x658e377cee7af2cbf47f44e9f6a07166d1dea4e2",
          "initCode": "0x3d6100c380600b3d3981f3363d3d3761008b603836393d3d3d3661008b013d73bc52f921b50b0572a649deb553d104f6ecacb6695af43d82803e903d91603657fd5bf377777cc68b333a2256b436d675e8d257699aa667828223b512bf1892229fec61c5c1376bded3a285000000000000000000000000000000000000000000000000000000003b9aca00000000000000000000000000000000000000000000000000000000006764ba4001ed1a5b37506144f9ad6db6bd9971bd2721926f33c2bda21b191d0ee8b39a6d010089"
        }
      ],
      "isFixedGasLimit": false
    }
  ],
  "receipts": [
    {
      "status": "0x1",
      "cumulativeGasUsed": "0x82ab7",
      "logs": [
        {
          "address": "0x828223b512bf1892229fec61c5c1376bded3a285",
          "topics": [
            "0x0c001567d2743a4cf169e9e0f5f5fc1e1d2e9b95b02d2d22a5ae74c499481cf7",
            "0x0000000000000000000000000000000000000000000000000000000000000003",
            "0xed1a5b37506144f9ad6db6bd9971bd2721926f33c2bda21b191d0ee8b39a6d01",
            "0x000000000000000000000000488327236b65c61a6c083e8d811a4e0d3d1d4268"
          ],
          "data": "0x000000000000000000000000000000000000000000000000000000000049d40000000000000000000000000000000000000000000000000000038d7ea4c680000000000000000000000000000000000000000000000000000000000000000002",
          "blockHash": "0x8797bca971abcc4e36c39428917fb491200362b2a6dcb8d944ca24d62cdf665f",
          "blockNumber": "0x122054c",
          "transactionHash": "0x23f720f67573c088af70ec33fea846a9b1b60edba6086aea5bdf6acbc45d40da",
          "transactionIndex": "0x3",
          "logIndex": "0x2",
          "removed": false
        }
      ],
      "logsBloom": "0x00000000000000000000000000000000000000000000000000000000000000000000000400000000000000000000000010000000020000000000000000000000000000000000000000000000000200000000000000000000000000000000000000100000000000000000000000000000000000000000000000002000010000000000000000000000000000000000000000000000000000000000000000000000000000000000000000000000000000020000000010800000000000200000400000000000000000000000000000000000000000000000000000002000000000000000020000000000000000000000000000400000000000000000000000000000",
      "type": "0x2",
      "transactionHash": "0x23f720f67573c088af70ec33fea846a9b1b60edba6086aea5bdf6acbc45d40da",
      "transactionIndex": "0x3",
      "blockHash": "0x8797bca971abcc4e36c39428917fb491200362b2a6dcb8d944ca24d62cdf665f",
      "blockNumber": "0x122054c",
      "gasUsed": "0x58566",
      "effectiveGasPrice": "0x2f1",
      "from": "0x77777cc68b333a2256b436d675e8d257699aa667",
      "to": "0x828223b512bf1892229fec61c5c1376bded3a285",
      "contractAddress": null,
      "l1BaseFeeScalar": "0x1db0",
      "l1BlobBaseFee": "0x13",
      "l1BlobBaseFeeScalar": "0xd2730",
      "l1Fee": "0x523855",
      "l1GasPrice": "0x31500",
      "l1GasUsed": "0xdb3"
    },
    {
      "status": "0x1",
      "cumulativeGasUsed": "0x89d7e",
      "logs": [
        {
          "address": "0x488327236b65c61a6c083e8d811a4e0d3d1d4268",
          "topics": [
            "0x8c5be1e5ebec7d5bd14f71427d1e84f3dd0314c0f7b2291e5b200ac8c7c3b925",
            "0x00000000000000000000000077777cc68b333a2256b436d675e8d257699aa667",
            "0x000000000000000000000000828223b512bf1892229fec61c5c1376bded3a285"
          ],
          "data": "0xffffffffffffffffffffffffffffffffffffffffffffffffffffffffffffffff",
          "blockHash": "0x8797bca971abcc4e36c39428917fb491200362b2a6dcb8d944ca24d62cdf665f",
          "blockNumber": "0x122054c",
          "transactionHash": "0xe2606e36694e515813e49c2f99239a25e9d02752fb24b79e435628baedd05699",
          "transactionIndex": "0x4",
          "logIndex": "0x3",
          "removed": false
        }
      ],
      "logsBloom": "0x00000000000000000000000000000000000000000000000000000000002000000000000000000000000000000000000000000000000000000000000000200000000000000000000000000000000000000000000002000020000000000001000000000000000000000000000000000000000000000000000000000000000000000000000000000000000000000000000000000000000000000000000000100000020000000000000000000000000000000000000000000000000000000000000000000000000000000000000000400000000000000000000000000000000000080010000000000000000000000400000000000000000000000000000000001000",
      "type": "0x2",
      "transactionHash": "0xe2606e36694e515813e49c2f99239a25e9d02752fb24b79e435628baedd05699",
      "transactionIndex": "0x4",
      "blockHash": "0x8797bca971abcc4e36c39428917fb491200362b2a6dcb8d944ca24d62cdf665f",
      "blockNumber": "0x122054c",
      "gasUsed": "0x72c7",
      "effectiveGasPrice": "0x2f1",
      "from": "0x77777cc68b333a2256b436d675e8d257699aa667",
      "to": "0x488327236b65c61a6c083e8d811a4e0d3d1d4268",
      "contractAddress": null,
      "l1BaseFeeScalar": "0x1db0",
      "l1BlobBaseFee": "0x13",
      "l1BlobBaseFeeScalar": "0xd2730",
      "l1Fee": "0x2580a3",
      "l1GasPrice": "0x31500",
      "l1GasUsed": "0x640"
    },
    {
      "status": "0x1",
      "cumulativeGasUsed": "0xd7d97",
      "logs": [
        {
          "address": "0x488327236b65c61a6c083e8d811a4e0d3d1d4268",
          "topics": [
            "0xddf252ad1be2c89b69c2b068fc378daa952ba7f163c4a11628f55a4df523b3ef",
            "0x00000000000000000000000077777cc68b333a2256b436d675e8d257699aa667",
            "0x000000000000000000000000828223b512bf1892229fec61c5c1376bded3a285"
          ],
          "data": "0x0000000000000000000000000000000000000000000000000000000005f5e0fe",
          "blockHash": "0x8797bca971abcc4e36c39428917fb491200362b2a6dcb8d944ca24d62cdf665f",
          "blockNumber": "0x122054c",
          "transactionHash": "0xe02c335be6d06500e57eae6092967007b767b955d989e6c2b29a92facc61a12e",
          "transactionIndex": "0x5",
          "logIndex": "0x4",
          "removed": false
        },
        {
          "address": "0x488327236b65c61a6c083e8d811a4e0d3d1d4268",
          "topics": [
            "0x8c5be1e5ebec7d5bd14f71427d1e84f3dd0314c0f7b2291e5b200ac8c7c3b925",
            "0x00000000000000000000000077777cc68b333a2256b436d675e8d257699aa667",
            "0x000000000000000000000000828223b512bf1892229fec61c5c1376bded3a285"
          ],
          "data": "0xfffffffffffffffffffffffffffffffffffffffffffffffffffffffffa0a1f01",
          "blockHash": "0x8797bca971abcc4e36c39428917fb491200362b2a6dcb8d944ca24d62cdf665f",
          "blockNumber": "0x122054c",
          "transactionHash": "0xe02c335be6d06500e57eae6092967007b767b955d989e6c2b29a92facc61a12e",
          "transactionIndex": "0x5",
          "logIndex": "0x5",
          "removed": false
        },
        {
          "address": "0x828223b512bf1892229fec61c5c1376bded3a285",
          "topics": [
            "0x8af8940e37a50e2b056ce39d3079e6de3234015e7ae27f873041c2bed0904794",
            "0x0000000000000000000000000000000000000000000000000000000000000002",
            "0x960810f9a463d7c02bc9ce272ff1cb7b6bfbdff794067f8a59ce98d634cc36da",
            "0xed1a5b37506144f9ad6db6bd9971bd2721926f33c2bda21b191d0ee8b39a6d01"
          ],
          "data": "0x00000000000000000000000000000000000000000000000000000002540be40000000000000000000000000000000000000000000000000000000000000000c000000000000000000000000000000000000000000000000000000000000001000000000000000000000000000000000000000000000000000000000000000140000000000000000000000000000000000000000000000000000000000000018000000000000000000000000000000000000000000000000000000000672d5b180000000000000000000000000000000000000000000000000000000000000001000000000000000000000000488327236b65c61a6c083e8d811a4e0d3d1d426800000000000000000000000000000000000000000000000000000000000000010000000000000000000000000000000000000000000000000000000005e546e0000000000000000000000000000000000000000000000000000000000000000100000000000000000000000000000000000000000000000000000000000f17bf0000000000000000000000000000000000000000000000000000000000000001000000000000000000000000000000000000000000000000000000000001825f",
          "blockHash": "0x8797bca971abcc4e36c39428917fb491200362b2a6dcb8d944ca24d62cdf665f",
          "blockNumber": "0x122054c",
          "transactionHash": "0xe02c335be6d06500e57eae6092967007b767b955d989e6c2b29a92facc61a12e",
          "transactionIndex": "0x5",
          "logIndex": "0x6",
          "removed": false
        }
      ],
      "logsBloom": "0x04000000000000000000000000000000000000000000000000000000002000000000000400000000000000000000000001000000000000000000000000200000000000000000000000000008000200000000000002000020000000000001000000100000000000000000000000000000000000000000000000000010000000000000000000000000000000000000000000000000000000000000000000100000020000000000001000000100000000020000000010000000000000000000000000000002000000000000000402400000000000080000000000000000000000080010220000000000000000000400000000000000008000000000000000001000",
      "type": "0x2",
      "transactionHash": "0xe02c335be6d06500e57eae6092967007b767b955d989e6c2b29a92facc61a12e",
      "transactionIndex": "0x5",
      "blockHash": "0x8797bca971abcc4e36c39428917fb491200362b2a6dcb8d944ca24d62cdf665f",
      "blockNumber": "0x122054c",
      "gasUsed": "0x4e019",
      "effectiveGasPrice": "0x2f1",
      "from": "0x77777cc68b333a2256b436d675e8d257699aa667",
      "to": "0x828223b512bf1892229fec61c5c1376bded3a285",
      "contractAddress": null,
      "l1BaseFeeScalar": "0x1db0",
      "l1BlobBaseFee": "0x13",
      "l1BlobBaseFeeScalar": "0xd2730",
      "l1Fee": "0x387ef7",
      "l1GasPrice": "0x31500",
      "l1GasUsed": "0x96a"
    },
    {
      "status": "0x1",
      "cumulativeGasUsed": "0x42097b",
      "logs": [
        {
          "address": "0x488327236b65c61a6c083e8d811a4e0d3d1d4268",
          "topics": [
            "0xddf252ad1be2c89b69c2b068fc378daa952ba7f163c4a11628f55a4df523b3ef",
            "0x00000000000000000000000077777cc68b333a2256b436d675e8d257699aa667",
            "0x000000000000000000000000e6807222ed0fa7b47b4a487c87181b1fe9313469"
          ],
          "data": "0x000000000000000000000000000000000000000000000000000000003b9aca00",
          "blockHash": "0x8797bca971abcc4e36c39428917fb491200362b2a6dcb8d944ca24d62cdf665f",
          "blockNumber": "0x122054c",
          "transactionHash": "0x7d331d674442f8d019ab522048085e1fbb548a58515ac26c11cd94d8d773fcb6",
          "transactionIndex": "0x6",
          "logIndex": "0x7",
          "removed": false
        },
        {
          "address": "0x488327236b65c61a6c083e8d811a4e0d3d1d4268",
          "topics": [
            "0x8c5be1e5ebec7d5bd14f71427d1e84f3dd0314c0f7b2291e5b200ac8c7c3b925",
            "0x00000000000000000000000077777cc68b333a2256b436d675e8d257699aa667",
            "0x000000000000000000000000828223b512bf1892229fec61c5c1376bded3a285"
          ],
          "data": "0xffffffffffffffffffffffffffffffffffffffffffffffffffffffffbe6f5501",
          "blockHash": "0x8797bca971abcc4e36c39428917fb491200362b2a6dcb8d944ca24d62cdf665f",
          "blockNumber": "0x122054c",
          "transactionHash": "0x7d331d674442f8d019ab522048085e1fbb548a58515ac26c11cd94d8d773fcb6",
          "transactionIndex": "0x6",
          "logIndex": "0x8",
          "removed": false
        },
        {
          "address": "0x488327236b65c61a6c083e8d811a4e0d3d1d4268",
          "topics": [
            "0x8c5be1e5ebec7d5bd14f71427d1e84f3dd0314c0f7b2291e5b200ac8c7c3b925",
            "0x000000000000000000000000e6807222ed0fa7b47b4a487c87181b1fe9313469",
            "0x000000000000000000000000844f6b31f7d1240134b3d63ffc2b6f1c7f2612b6"
          ],
          "data": "0x000000000000000000000000000000000000000000000000000000003b9aca00",
          "blockHash": "0x8797bca971abcc4e36c39428917fb491200362b2a6dcb8d944ca24d62cdf665f",
          "blockNumber": "0x122054c",
          "transactionHash": "0x7d331d674442f8d019ab522048085e1fbb548a58515ac26c11cd94d8d773fcb6",
          "transactionIndex": "0x6",
          "logIndex": "0x9",
          "removed": false
        },
        {
          "address": "0x488327236b65c61a6c083e8d811a4e0d3d1d4268",
          "topics": [
            "0xddf252ad1be2c89b69c2b068fc378daa952ba7f163c4a11628f55a4df523b3ef",
            "0x000000000000000000000000e6807222ed0fa7b47b4a487c87181b1fe9313469",
            "0x000000000000000000000000844f6b31f7d1240134b3d63ffc2b6f1c7f2612b6"
          ],
          "data": "0x000000000000000000000000000000000000000000000000000000003b9aca00",
          "blockHash": "0x8797bca971abcc4e36c39428917fb491200362b2a6dcb8d944ca24d62cdf665f",
          "blockNumber": "0x122054c",
          "transactionHash": "0x7d331d674442f8d019ab522048085e1fbb548a58515ac26c11cd94d8d773fcb6",
          "transactionIndex": "0x6",
          "logIndex": "0xa",
          "removed": false
        },
        {
          "address": "0x488327236b65c61a6c083e8d811a4e0d3d1d4268",
          "topics": [
            "0x8c5be1e5ebec7d5bd14f71427d1e84f3dd0314c0f7b2291e5b200ac8c7c3b925",
            "0x000000000000000000000000e6807222ed0fa7b47b4a487c87181b1fe9313469",
            "0x000000000000000000000000844f6b31f7d1240134b3d63ffc2b6f1c7f2612b6"
          ],
          "data": "0x0000000000000000000000000000000000000000000000000000000000000000",
          "blockHash": "0x8797bca971abcc4e36c39428917fb491200362b2a6dcb8d944ca24d62cdf665f",
          "blockNumber": "0x122054c",
          "transactionHash": "0x7d331d674442f8d019ab522048085e1fbb548a58515ac26c11cd94d8d773fcb6",
          "transactionIndex": "0x6",
          "logIndex": "0xb",
          "removed": false
        },
        {
          "address": "0x844f6b31f7d1240134b3d63ffc2b6f1c7f2612b6",
          "topics": [
            "0x6c7131e79092f16af04daf787c07a4dc80e7ae1a95dbe1cc1a310cfe1619d2db",
            "0xed1a5b37506144f9ad6db6bd9971bd2721926f33c2bda21b191d0ee8b39a6d01"
          ],
          "data": "0x000000000000000000000000e6807222ed0fa7b47b4a487c87181b1fe9313469000000000000000000000000000000000000000000000000000000003b9aca00",
          "blockHash": "0x8797bca971abcc4e36c39428917fb491200362b2a6dcb8d944ca24d62cdf665f",
          "blockNumber": "0x122054c",
          "transactionHash": "0x7d331d674442f8d019ab522048085e1fbb548a58515ac26c11cd94d8d773fcb6",
          "transactionIndex": "0x6",
          "logIndex": "0xc",
          "removed": false
        },
        {
          "address": "0x828223b512bf1892229fec61c5c1376bded3a285",
          "topics": [
            "0xce3ef9786e3b9388efc900e4e0a070185cebb023f778aa7688f8c71af67395de",
            "0x960810f9a463d7c02bc9ce272ff1cb7b6bfbdff794067f8a59ce98d634cc36da"
          ],
          "data": "0x000000000000000000000000000000000000000000000000000000003b9aca00000000000000000000000000e6807222ed0fa7b47b4a487c87181b1fe931346900000000000000000000000000000000000000000000000000000000000000a000000000000000000000000000000000000000000000000000000000000000e000000000000000000000000000000000000000000000000000000000000001200000000000000000000000000000000000000000000000000000000000000001000000000000000000000000000000000000000000000000000000000096ed7c0000000000000000000000000000000000000000000000000000000000000001000000000000000000000000000000000000000000000000000000000001825f000000000000000000000000000000000000000000000000000000000000000100000000000000000000000000000000000000000000000000000000000026a3",
          "blockHash": "0x8797bca971abcc4e36c39428917fb491200362b2a6dcb8d944ca24d62cdf665f",
          "blockNumber": "0x122054c",
          "transactionHash": "0x7d331d674442f8d019ab522048085e1fbb548a58515ac26c11cd94d8d773fcb6",
          "transactionIndex": "0x6",
          "logIndex": "0xd",
          "removed": false
        },
        {
          "address": "0x488327236b65c61a6c083e8d811a4e0d3d1d4268",
          "topics": [
            "0xddf252ad1be2c89b69c2b068fc378daa952ba7f163c4a11628f55a4df523b3ef",
            "0x00000000000000000000000077777cc68b333a2256b436d675e8d257699aa667",
            "0x0000000000000000000000003eb3b949e5e7cd4ba8a8105f99252616cd01c5b6"
          ],
          "data": "0x000000000000000000000000000000000000000000000000000000003b9aca00",
          "blockHash": "0x8797bca971abcc4e36c39428917fb491200362b2a6dcb8d944ca24d62cdf665f",
          "blockNumber": "0x122054c",
          "transactionHash": "0x7d331d674442f8d019ab522048085e1fbb548a58515ac26c11cd94d8d773fcb6",
          "transactionIndex": "0x6",
          "logIndex": "0xe",
          "removed": false
        },
        {
          "address": "0x488327236b65c61a6c083e8d811a4e0d3d1d4268",
          "topics": [
            "0x8c5be1e5ebec7d5bd14f71427d1e84f3dd0314c0f7b2291e5b200ac8c7c3b925",
            "0x00000000000000000000000077777cc68b333a2256b436d675e8d257699aa667",
            "0x000000000000000000000000828223b512bf1892229fec61c5c1376bded3a285"
          ],
          "data": "0xffffffffffffffffffffffffffffffffffffffffffffffffffffffff82d48b01",
          "blockHash": "0x8797bca971abcc4e36c39428917fb491200362b2a6dcb8d944ca24d62cdf665f",
          "blockNumber": "0x122054c",
          "transactionHash": "0x7d331d674442f8d019ab522048085e1fbb548a58515ac26c11cd94d8d773fcb6",
          "transactionIndex": "0x6",
          "logIndex": "0xf",
          "removed": false
        },
        {
          "address": "0x488327236b65c61a6c083e8d811a4e0d3d1d4268",
          "topics": [
            "0x8c5be1e5ebec7d5bd14f71427d1e84f3dd0314c0f7b2291e5b200ac8c7c3b925",
            "0x0000000000000000000000003eb3b949e5e7cd4ba8a8105f99252616cd01c5b6",
            "0x000000000000000000000000844f6b31f7d1240134b3d63ffc2b6f1c7f2612b6"
          ],
          "data": "0x000000000000000000000000000000000000000000000000000000003b9aca00",
          "blockHash": "0x8797bca971abcc4e36c39428917fb491200362b2a6dcb8d944ca24d62cdf665f",
          "blockNumber": "0x122054c",
          "transactionHash": "0x7d331d674442f8d019ab522048085e1fbb548a58515ac26c11cd94d8d773fcb6",
          "transactionIndex": "0x6",
          "logIndex": "0x10",
          "removed": false
        },
        {
          "address": "0x488327236b65c61a6c083e8d811a4e0d3d1d4268",
          "topics": [
            "0xddf252ad1be2c89b69c2b068fc378daa952ba7f163c4a11628f55a4df523b3ef",
            "0x0000000000000000000000003eb3b949e5e7cd4ba8a8105f99252616cd01c5b6",
            "0x000000000000000000000000844f6b31f7d1240134b3d63ffc2b6f1c7f2612b6"
          ],
          "data": "0x000000000000000000000000000000000000000000000000000000003b9aca00",
          "blockHash": "0x8797bca971abcc4e36c39428917fb491200362b2a6dcb8d944ca24d62cdf665f",
          "blockNumber": "0x122054c",
          "transactionHash": "0x7d331d674442f8d019ab522048085e1fbb548a58515ac26c11cd94d8d773fcb6",
          "transactionIndex": "0x6",
          "logIndex": "0x11",
          "removed": false
        },
        {
          "address": "0x488327236b65c61a6c083e8d811a4e0d3d1d4268",
          "topics": [
            "0x8c5be1e5ebec7d5bd14f71427d1e84f3dd0314c0f7b2291e5b200ac8c7c3b925",
            "0x0000000000000000000000003eb3b949e5e7cd4ba8a8105f99252616cd01c5b6",
            "0x000000000000000000000000844f6b31f7d1240134b3d63ffc2b6f1c7f2612b6"
          ],
          "data": "0x0000000000000000000000000000000000000000000000000000000000000000",
          "blockHash": "0x8797bca971abcc4e36c39428917fb491200362b2a6dcb8d944ca24d62cdf665f",
          "blockNumber": "0x122054c",
          "transactionHash": "0x7d331d674442f8d019ab522048085e1fbb548a58515ac26c11cd94d8d773fcb6",
          "transactionIndex": "0x6",
          "logIndex": "0x12",
          "removed": false
        },
        {
          "address": "0x844f6b31f7d1240134b3d63ffc2b6f1c7f2612b6",
          "topics": [
            "0x6c7131e79092f16af04daf787c07a4dc80e7ae1a95dbe1cc1a310cfe1619d2db",
            "0xed1a5b37506144f9ad6db6bd9971bd2721926f33c2bda21b191d0ee8b39a6d01"
          ],
          "data": "0x0000000000000000000000003eb3b949e5e7cd4ba8a8105f99252616cd01c5b6000000000000000000000000000000000000000000000000000000003b9aca00",
          "blockHash": "0x8797bca971abcc4e36c39428917fb491200362b2a6dcb8d944ca24d62cdf665f",
          "blockNumber": "0x122054c",
          "transactionHash": "0x7d331d674442f8d019ab522048085e1fbb548a58515ac26c11cd94d8d773fcb6",
          "transactionIndex": "0x6",
          "logIndex": "0x13",
          "removed": false
        },
        {
          "address": "0x828223b512bf1892229fec61c5c1376bded3a285",
          "topics": [
            "0xce3ef9786e3b9388efc900e4e0a070185cebb023f778aa7688f8c71af67395de",
            "0x960810f9a463d7c02bc9ce272ff1cb7b6bfbdff794067f8a59ce98d634cc36da"
          ],
          "data": "0x000000000000000000000000000000000000000000000000000000003b9aca000000000000000000000000003eb3b949e5e7cd4ba8a8105f99252616cd01c5b600000000000000000000000000000000000000000000000000000000000000a000000000000000000000000000000000000000000000000000000000000000e000000000000000000000000000000000000000000000000000000000000001200000000000000000000000000000000000000000000000000000000000000001000000000000000000000000000000000000000000000000000000000096ed7c0000000000000000000000000000000000000000000000000000000000000001000000000000000000000000000000000000000000000000000000000001825f000000000000000000000000000000000000000000000000000000000000000100000000000000000000000000000000000000000000000000000000000026a3",
          "blockHash": "0x8797bca971abcc4e36c39428917fb491200362b2a6dcb8d944ca24d62cdf665f",
          "blockNumber": "0x122054c",
          "transactionHash": "0x7d331d674442f8d019ab522048085e1fbb548a58515ac26c11cd94d8d773fcb6",
          "transactionIndex": "0x6",
          "logIndex": "0x14",
          "removed": false
        },
        {
          "address": "0x488327236b65c61a6c083e8d811a4e0d3d1d4268",
          "topics": [
            "0xddf252ad1be2c89b69c2b068fc378daa952ba7f163c4a11628f55a4df523b3ef",
            "0x00000000000000000000000077777cc68b333a2256b436d675e8d257699aa667",
            "0x0000000000000000000000005bb2283bceee5da65987d8b68a7fa17bf7b9955f"
          ],
          "data": "0x000000000000000000000000000000000000000000000000000000003b9aca00",
          "blockHash": "0x8797bca971abcc4e36c39428917fb491200362b2a6dcb8d944ca24d62cdf665f",
          "blockNumber": "0x122054c",
          "transactionHash": "0x7d331d674442f8d019ab522048085e1fbb548a58515ac26c11cd94d8d773fcb6",
          "transactionIndex": "0x6",
          "logIndex": "0x15",
          "removed": false
        },
        {
          "address": "0x488327236b65c61a6c083e8d811a4e0d3d1d4268",
          "topics": [
            "0x8c5be1e5ebec7d5bd14f71427d1e84f3dd0314c0f7b2291e5b200ac8c7c3b925",
            "0x00000000000000000000000077777cc68b333a2256b436d675e8d257699aa667",
            "0x000000000000000000000000828223b512bf1892229fec61c5c1376bded3a285"
          ],
          "data": "0xffffffffffffffffffffffffffffffffffffffffffffffffffffffff4739c101",
          "blockHash": "0x8797bca971abcc4e36c39428917fb491200362b2a6dcb8d944ca24d62cdf665f",
          "blockNumber": "0x122054c",
          "transactionHash": "0x7d331d674442f8d019ab522048085e1fbb548a58515ac26c11cd94d8d773fcb6",
          "transactionIndex": "0x6",
          "logIndex": "0x16",
          "removed": false
        },
        {
          "address": "0x488327236b65c61a6c083e8d811a4e0d3d1d4268",
          "topics": [
            "0x8c5be1e5ebec7d5bd14f71427d1e84f3dd0314c0f7b2291e5b200ac8c7c3b925",
            "0x0000000000000000000000005bb2283bceee5da65987d8b68a7fa17bf7b9955f",
            "0x000000000000000000000000844f6b31f7d1240134b3d63ffc2b6f1c7f2612b6"
          ],
          "data": "0x000000000000000000000000000000000000000000000000000000003b9aca00",
          "blockHash": "0x8797bca971abcc4e36c39428917fb491200362b2a6dcb8d944ca24d62cdf665f",
          "blockNumber": "0x122054c",
          "transactionHash": "0x7d331d674442f8d019ab522048085e1fbb548a58515ac26c11cd94d8d773fcb6",
          "transactionIndex": "0x6",
          "logIndex": "0x17",
          "removed": false
        },
        {
          "address": "0x488327236b65c61a6c083e8d811a4e0d3d1d4268",
          "topics": [
            "0xddf252ad1be2c89b69c2b068fc378daa952ba7f163c4a11628f55a4df523b3ef",
            "0x0000000000000000000000005bb2283bceee5da65987d8b68a7fa17bf7b9955f",
            "0x000000000000000000000000844f6b31f7d1240134b3d63ffc2b6f1c7f2612b6"
          ],
          "data": "0x000000000000000000000000000000000000000000000000000000003b9aca00",
          "blockHash": "0x8797bca971abcc4e36c39428917fb491200362b2a6dcb8d944ca24d62cdf665f",
          "blockNumber": "0x122054c",
          "transactionHash": "0x7d331d674442f8d019ab522048085e1fbb548a58515ac26c11cd94d8d773fcb6",
          "transactionIndex": "0x6",
          "logIndex": "0x18",
          "removed": false
        },
        {
          "address": "0x488327236b65c61a6c083e8d811a4e0d3d1d4268",
          "topics": [
            "0x8c5be1e5ebec7d5bd14f71427d1e84f3dd0314c0f7b2291e5b200ac8c7c3b925",
            "0x0000000000000000000000005bb2283bceee5da65987d8b68a7fa17bf7b9955f",
            "0x000000000000000000000000844f6b31f7d1240134b3d63ffc2b6f1c7f2612b6"
          ],
          "data": "0x0000000000000000000000000000000000000000000000000000000000000000",
          "blockHash": "0x8797bca971abcc4e36c39428917fb491200362b2a6dcb8d944ca24d62cdf665f",
          "blockNumber": "0x122054c",
          "transactionHash": "0x7d331d674442f8d019ab522048085e1fbb548a58515ac26c11cd94d8d773fcb6",
          "transactionIndex": "0x6",
          "logIndex": "0x19",
          "removed": false
        },
        {
          "address": "0x844f6b31f7d1240134b3d63ffc2b6f1c7f2612b6",
          "topics": [
            "0x6c7131e79092f16af04daf787c07a4dc80e7ae1a95dbe1cc1a310cfe1619d2db",
            "0xed1a5b37506144f9ad6db6bd9971bd2721926f33c2bda21b191d0ee8b39a6d01"
          ],
          "data": "0x0000000000000000000000005bb2283bceee5da65987d8b68a7fa17bf7b9955f000000000000000000000000000000000000000000000000000000003b9aca00",
          "blockHash": "0x8797bca971abcc4e36c39428917fb491200362b2a6dcb8d944ca24d62cdf665f",
          "blockNumber": "0x122054c",
          "transactionHash": "0x7d331d674442f8d019ab522048085e1fbb548a58515ac26c11cd94d8d773fcb6",
          "transactionIndex": "0x6",
          "logIndex": "0x1a",
          "removed": false
        },
        {
          "address": "0x828223b512bf1892229fec61c5c1376bded3a285",
          "topics": [
            "0xce3ef9786e3b9388efc900e4e0a070185cebb023f778aa7688f8c71af67395de",
            "0x960810f9a463d7c02bc9ce272ff1cb7b6bfbdff794067f8a59ce98d634cc36da"
          ],
          "data": "0x000000000000000000000000000000000000000000000000000000003b9aca000000000000000000000000005bb2283bceee5da65987d8b68a7fa17bf7b9955f00000000000000000000000000000000000000000000000000000000000000a000000000000000000000000000000000000000000000000000000000000000e000000000000000000000000000000000000000000000000000000000000001200000000000000000000000000000000000000000000000000000000000000001000000000000000000000000000000000000000000000000000000000096ed7c0000000000000000000000000000000000000000000000000000000000000001000000000000000000000000000000000000000000000000000000000001825f000000000000000000000000000000000000000000000000000000000000000100000000000000000000000000000000000000000000000000000000000026a3",
          "blockHash": "0x8797bca971abcc4e36c39428917fb491200362b2a6dcb8d944ca24d62cdf665f",
          "blockNumber": "0x122054c",
          "transactionHash": "0x7d331d674442f8d019ab522048085e1fbb548a58515ac26c11cd94d8d773fcb6",
          "transactionIndex": "0x6",
          "logIndex": "0x1b",
          "removed": false
        },
        {
          "address": "0x488327236b65c61a6c083e8d811a4e0d3d1d4268",
          "topics": [
            "0xddf252ad1be2c89b69c2b068fc378daa952ba7f163c4a11628f55a4df523b3ef",
            "0x00000000000000000000000077777cc68b333a2256b436d675e8d257699aa667",
            "0x000000000000000000000000aa5ca9297ad896bf218e78654e2c0c5c2d28ea86"
          ],
          "data": "0x000000000000000000000000000000000000000000000000000000003b9aca00",
          "blockHash": "0x8797bca971abcc4e36c39428917fb491200362b2a6dcb8d944ca24d62cdf665f",
          "blockNumber": "0x122054c",
          "transactionHash": "0x7d331d674442f8d019ab522048085e1fbb548a58515ac26c11cd94d8d773fcb6",
          "transactionIndex": "0x6",
          "logIndex": "0x1c",
          "removed": false
        },
        {
          "address": "0x488327236b65c61a6c083e8d811a4e0d3d1d4268",
          "topics": [
            "0x8c5be1e5ebec7d5bd14f71427d1e84f3dd0314c0f7b2291e5b200ac8c7c3b925",
            "0x00000000000000000000000077777cc68b333a2256b436d675e8d257699aa667",
            "0x000000000000000000000000828223b512bf1892229fec61c5c1376bded3a285"
          ],
          "data": "0xffffffffffffffffffffffffffffffffffffffffffffffffffffffff0b9ef701",
          "blockHash": "0x8797bca971abcc4e36c39428917fb491200362b2a6dcb8d944ca24d62cdf665f",
          "blockNumber": "0x122054c",
          "transactionHash": "0x7d331d674442f8d019ab522048085e1fbb548a58515ac26c11cd94d8d773fcb6",
          "transactionIndex": "0x6",
          "logIndex": "0x1d",
          "removed": false
        },
        {
          "address": "0x488327236b65c61a6c083e8d811a4e0d3d1d4268",
          "topics": [
            "0x8c5be1e5ebec7d5bd14f71427d1e84f3dd0314c0f7b2291e5b200ac8c7c3b925",
            "0x000000000000000000000000aa5ca9297ad896bf218e78654e2c0c5c2d28ea86",
            "0x000000000000000000000000844f6b31f7d1240134b3d63ffc2b6f1c7f2612b6"
          ],
          "data": "0x000000000000000000000000000000000000000000000000000000003b9aca00",
          "blockHash": "0x8797bca971abcc4e36c39428917fb491200362b2a6dcb8d944ca24d62cdf665f",
          "blockNumber": "0x122054c",
          "transactionHash": "0x7d331d674442f8d019ab522048085e1fbb548a58515ac26c11cd94d8d773fcb6",
          "transactionIndex": "0x6",
          "logIndex": "0x1e",
          "removed": false
        },
        {
          "address": "0x488327236b65c61a6c083e8d811a4e0d3d1d4268",
          "topics": [
            "0xddf252ad1be2c89b69c2b068fc378daa952ba7f163c4a11628f55a4df523b3ef",
            "0x000000000000000000000000aa5ca9297ad896bf218e78654e2c0c5c2d28ea86",
            "0x000000000000000000000000844f6b31f7d1240134b3d63ffc2b6f1c7f2612b6"
          ],
          "data": "0x000000000000000000000000000000000000000000000000000000003b9aca00",
          "blockHash": "0x8797bca971abcc4e36c39428917fb491200362b2a6dcb8d944ca24d62cdf665f",
          "blockNumber": "0x122054c",
          "transactionHash": "0x7d331d674442f8d019ab522048085e1fbb548a58515ac26c11cd94d8d773fcb6",
          "transactionIndex": "0x6",
          "logIndex": "0x1f",
          "removed": false
        },
        {
          "address": "0x488327236b65c61a6c083e8d811a4e0d3d1d4268",
          "topics": [
            "0x8c5be1e5ebec7d5bd14f71427d1e84f3dd0314c0f7b2291e5b200ac8c7c3b925",
            "0x000000000000000000000000aa5ca9297ad896bf218e78654e2c0c5c2d28ea86",
            "0x000000000000000000000000844f6b31f7d1240134b3d63ffc2b6f1c7f2612b6"
          ],
          "data": "0x0000000000000000000000000000000000000000000000000000000000000000",
          "blockHash": "0x8797bca971abcc4e36c39428917fb491200362b2a6dcb8d944ca24d62cdf665f",
          "blockNumber": "0x122054c",
          "transactionHash": "0x7d331d674442f8d019ab522048085e1fbb548a58515ac26c11cd94d8d773fcb6",
          "transactionIndex": "0x6",
          "logIndex": "0x20",
          "removed": false
        },
        {
          "address": "0x844f6b31f7d1240134b3d63ffc2b6f1c7f2612b6",
          "topics": [
            "0x6c7131e79092f16af04daf787c07a4dc80e7ae1a95dbe1cc1a310cfe1619d2db",
            "0xed1a5b37506144f9ad6db6bd9971bd2721926f33c2bda21b191d0ee8b39a6d01"
          ],
          "data": "0x000000000000000000000000aa5ca9297ad896bf218e78654e2c0c5c2d28ea86000000000000000000000000000000000000000000000000000000003b9aca00",
          "blockHash": "0x8797bca971abcc4e36c39428917fb491200362b2a6dcb8d944ca24d62cdf665f",
          "blockNumber": "0x122054c",
          "transactionHash": "0x7d331d674442f8d019ab522048085e1fbb548a58515ac26c11cd94d8d773fcb6",
          "transactionIndex": "0x6",
          "logIndex": "0x21",
          "removed": false
        },
        {
          "address": "0x828223b512bf1892229fec61c5c1376bded3a285",
          "topics": [
            "0xce3ef9786e3b9388efc900e4e0a070185cebb023f778aa7688f8c71af67395de",
            "0x960810f9a463d7c02bc9ce272ff1cb7b6bfbdff794067f8a59ce98d634cc36da"
          ],
          "data": "0x000000000000000000000000000000000000000000000000000000003b9aca00000000000000000000000000aa5ca9297ad896bf218e78654e2c0c5c2d28ea8600000000000000000000000000000000000000000000000000000000000000a000000000000000000000000000000000000000000000000000000000000000e000000000000000000000000000000000000000000000000000000000000001200000000000000000000000000000000000000000000000000000000000000001000000000000000000000000000000000000000000000000000000000096ed7c0000000000000000000000000000000000000000000000000000000000000001000000000000000000000000000000000000000000000000000000000001825f000000000000000000000000000000000000000000000000000000000000000100000000000000000000000000000000000000000000000000000000000026a3",
          "blockHash": "0x8797bca971abcc4e36c39428917fb491200362b2a6dcb8d944ca24d62cdf665f",
          "blockNumber": "0x122054c",
          "transactionHash": "0x7d331d674442f8d019ab522048085e1fbb548a58515ac26c11cd94d8d773fcb6",
          "transactionIndex": "0x6",
          "logIndex": "0x22",
          "removed": false
        },
        {
          "address": "0x488327236b65c61a6c083e8d811a4e0d3d1d4268",
          "topics": [
            "0xddf252ad1be2c89b69c2b068fc378daa952ba7f163c4a11628f55a4df523b3ef",
            "0x00000000000000000000000077777cc68b333a2256b436d675e8d257699aa667",
            "0x000000000000000000000000328422d87b926933c11a63c451af7acfa7bfa298"
          ],
          "data": "0x000000000000000000000000000000000000000000000000000000003b9aca00",
          "blockHash": "0x8797bca971abcc4e36c39428917fb491200362b2a6dcb8d944ca24d62cdf665f",
          "blockNumber": "0x122054c",
          "transactionHash": "0x7d331d674442f8d019ab522048085e1fbb548a58515ac26c11cd94d8d773fcb6",
          "transactionIndex": "0x6",
          "logIndex": "0x23",
          "removed": false
        },
        {
          "address": "0x488327236b65c61a6c083e8d811a4e0d3d1d4268",
          "topics": [
            "0x8c5be1e5ebec7d5bd14f71427d1e84f3dd0314c0f7b2291e5b200ac8c7c3b925",
            "0x00000000000000000000000077777cc68b333a2256b436d675e8d257699aa667",
            "0x000000000000000000000000828223b512bf1892229fec61c5c1376bded3a285"
          ],
          "data": "0xfffffffffffffffffffffffffffffffffffffffffffffffffffffffed0042d01",
          "blockHash": "0x8797bca971abcc4e36c39428917fb491200362b2a6dcb8d944ca24d62cdf665f",
          "blockNumber": "0x122054c",
          "transactionHash": "0x7d331d674442f8d019ab522048085e1fbb548a58515ac26c11cd94d8d773fcb6",
          "transactionIndex": "0x6",
          "logIndex": "0x24",
          "removed": false
        },
        {
          "address": "0x488327236b65c61a6c083e8d811a4e0d3d1d4268",
          "topics": [
            "0x8c5be1e5ebec7d5bd14f71427d1e84f3dd0314c0f7b2291e5b200ac8c7c3b925",
            "0x000000000000000000000000328422d87b926933c11a63c451af7acfa7bfa298",
            "0x000000000000000000000000844f6b31f7d1240134b3d63ffc2b6f1c7f2612b6"
          ],
          "data": "0x000000000000000000000000000000000000000000000000000000003b9aca00",
          "blockHash": "0x8797bca971abcc4e36c39428917fb491200362b2a6dcb8d944ca24d62cdf665f",
          "blockNumber": "0x122054c",
          "transactionHash": "0x7d331d674442f8d019ab522048085e1fbb548a58515ac26c11cd94d8d773fcb6",
          "transactionIndex": "0x6",
          "logIndex": "0x25",
          "removed": false
        },
        {
          "address": "0x488327236b65c61a6c083e8d811a4e0d3d1d4268",
          "topics": [
            "0xddf252ad1be2c89b69c2b068fc378daa952ba7f163c4a11628f55a4df523b3ef",
            "0x000000000000000000000000328422d87b926933c11a63c451af7acfa7bfa298",
            "0x000000000000000000000000844f6b31f7d1240134b3d63ffc2b6f1c7f2612b6"
          ],
          "data": "0x000000000000000000000000000000000000000000000000000000003b9aca00",
          "blockHash": "0x8797bca971abcc4e36c39428917fb491200362b2a6dcb8d944ca24d62cdf665f",
          "blockNumber": "0x122054c",
          "transactionHash": "0x7d331d674442f8d019ab522048085e1fbb548a58515ac26c11cd94d8d773fcb6",
          "transactionIndex": "0x6",
          "logIndex": "0x26",
          "removed": false
        },
        {
          "address": "0x488327236b65c61a6c083e8d811a4e0d3d1d4268",
          "topics": [
            "0x8c5be1e5ebec7d5bd14f71427d1e84f3dd0314c0f7b2291e5b200ac8c7c3b925",
            "0x000000000000000000000000328422d87b926933c11a63c451af7acfa7bfa298",
            "0x000000000000000000000000844f6b31f7d1240134b3d63ffc2b6f1c7f2612b6"
          ],
          "data": "0x0000000000000000000000000000000000000000000000000000000000000000",
          "blockHash": "0x8797bca971abcc4e36c39428917fb491200362b2a6dcb8d944ca24d62cdf665f",
          "blockNumber": "0x122054c",
          "transactionHash": "0x7d331d674442f8d019ab522048085e1fbb548a58515ac26c11cd94d8d773fcb6",
          "transactionIndex": "0x6",
          "logIndex": "0x27",
          "removed": false
        },
        {
          "address": "0x844f6b31f7d1240134b3d63ffc2b6f1c7f2612b6",
          "topics": [
            "0x6c7131e79092f16af04daf787c07a4dc80e7ae1a95dbe1cc1a310cfe1619d2db",
            "0xed1a5b37506144f9ad6db6bd9971bd2721926f33c2bda21b191d0ee8b39a6d01"
          ],
          "data": "0x000000000000000000000000328422d87b926933c11a63c451af7acfa7bfa298000000000000000000000000000000000000000000000000000000003b9aca00",
          "blockHash": "0x8797bca971abcc4e36c39428917fb491200362b2a6dcb8d944ca24d62cdf665f",
          "blockNumber": "0x122054c",
          "transactionHash": "0x7d331d674442f8d019ab522048085e1fbb548a58515ac26c11cd94d8d773fcb6",
          "transactionIndex": "0x6",
          "logIndex": "0x28",
          "removed": false
        },
        {
          "address": "0x828223b512bf1892229fec61c5c1376bded3a285",
          "topics": [
            "0xce3ef9786e3b9388efc900e4e0a070185cebb023f778aa7688f8c71af67395de",
            "0x960810f9a463d7c02bc9ce272ff1cb7b6bfbdff794067f8a59ce98d634cc36da"
          ],
          "data": "0x000000000000000000000000000000000000000000000000000000003b9aca00000000000000000000000000328422d87b926933c11a63c451af7acfa7bfa29800000000000000000000000000000000000000000000000000000000000000a000000000000000000000000000000000000000000000000000000000000000e000000000000000000000000000000000000000000000000000000000000001200000000000000000000000000000000000000000000000000000000000000001000000000000000000000000000000000000000000000000000000000096ed7c0000000000000000000000000000000000000000000000000000000000000001000000000000000000000000000000000000000000000000000000000001825f000000000000000000000000000000000000000000000000000000000000000100000000000000000000000000000000000000000000000000000000000026a3",
          "blockHash": "0x8797bca971abcc4e36c39428917fb491200362b2a6dcb8d944ca24d62cdf665f",
          "blockNumber": "0x122054c",
          "transactionHash": "0x7d331d674442f8d019ab522048085e1fbb548a58515ac26c11cd94d8d773fcb6",
          "transactionIndex": "0x6",
          "logIndex": "0x29",
          "removed": false
        },
        {
          "address": "0x488327236b65c61a6c083e8d811a4e0d3d1d4268",
          "topics": [
            "0xddf252ad1be2c89b69c2b068fc378daa952ba7f163c4a11628f55a4df523b3ef",
            "0x00000000000000000000000077777cc68b333a2256b436d675e8d257699aa667",
            "0x0000000000000000000000006122fa1c6d4deadc677e7129cecedd140f768b49"
          ],
          "data": "0x000000000000000000000000000000000000000000000000000000003b9aca00",
          "blockHash": "0x8797bca971abcc4e36c39428917fb491200362b2a6dcb8d944ca24d62cdf665f",
          "blockNumber": "0x122054c",
          "transactionHash": "0x7d331d674442f8d019ab522048085e1fbb548a58515ac26c11cd94d8d773fcb6",
          "transactionIndex": "0x6",
          "logIndex": "0x2a",
          "removed": false
        },
        {
          "address": "0x488327236b65c61a6c083e8d811a4e0d3d1d4268",
          "topics": [
            "0x8c5be1e5ebec7d5bd14f71427d1e84f3dd0314c0f7b2291e5b200ac8c7c3b925",
            "0x00000000000000000000000077777cc68b333a2256b436d675e8d257699aa667",
            "0x000000000000000000000000828223b512bf1892229fec61c5c1376bded3a285"
          ],
          "data": "0xfffffffffffffffffffffffffffffffffffffffffffffffffffffffe94696301",
          "blockHash": "0x8797bca971abcc4e36c39428917fb491200362b2a6dcb8d944ca24d62cdf665f",
          "blockNumber": "0x122054c",
          "transactionHash": "0x7d331d674442f8d019ab522048085e1fbb548a58515ac26c11cd94d8d773fcb6",
          "transactionIndex": "0x6",
          "logIndex": "0x2b",
          "removed": false
        },
        {
          "address": "0x488327236b65c61a6c083e8d811a4e0d3d1d4268",
          "topics": [
            "0x8c5be1e5ebec7d5bd14f71427d1e84f3dd0314c0f7b2291e5b200ac8c7c3b925",
            "0x0000000000000000000000006122fa1c6d4deadc677e7129cecedd140f768b49",
            "0x000000000000000000000000844f6b31f7d1240134b3d63ffc2b6f1c7f2612b6"
          ],
          "data": "0x000000000000000000000000000000000000000000000000000000003b9aca00",
          "blockHash": "0x8797bca971abcc4e36c39428917fb491200362b2a6dcb8d944ca24d62cdf665f",
          "blockNumber": "0x122054c",
          "transactionHash": "0x7d331d674442f8d019ab522048085e1fbb548a58515ac26c11cd94d8d773fcb6",
          "transactionIndex": "0x6",
          "logIndex": "0x2c",
          "removed": false
        },
        {
          "address": "0x488327236b65c61a6c083e8d811a4e0d3d1d4268",
          "topics": [
            "0xddf252ad1be2c89b69c2b068fc378daa952ba7f163c4a11628f55a4df523b3ef",
            "0x0000000000000000000000006122fa1c6d4deadc677e7129cecedd140f768b49",
            "0x000000000000000000000000844f6b31f7d1240134b3d63ffc2b6f1c7f2612b6"
          ],
          "data": "0x000000000000000000000000000000000000000000000000000000003b9aca00",
          "blockHash": "0x8797bca971abcc4e36c39428917fb491200362b2a6dcb8d944ca24d62cdf665f",
          "blockNumber": "0x122054c",
          "transactionHash": "0x7d331d674442f8d019ab522048085e1fbb548a58515ac26c11cd94d8d773fcb6",
          "transactionIndex": "0x6",
          "logIndex": "0x2d",
          "removed": false
        },
        {
          "address": "0x488327236b65c61a6c083e8d811a4e0d3d1d4268",
          "topics": [
            "0x8c5be1e5ebec7d5bd14f71427d1e84f3dd0314c0f7b2291e5b200ac8c7c3b925",
            "0x0000000000000000000000006122fa1c6d4deadc677e7129cecedd140f768b49",
            "0x000000000000000000000000844f6b31f7d1240134b3d63ffc2b6f1c7f2612b6"
          ],
          "data": "0x0000000000000000000000000000000000000000000000000000000000000000",
          "blockHash": "0x8797bca971abcc4e36c39428917fb491200362b2a6dcb8d944ca24d62cdf665f",
          "blockNumber": "0x122054c",
          "transactionHash": "0x7d331d674442f8d019ab522048085e1fbb548a58515ac26c11cd94d8d773fcb6",
          "transactionIndex": "0x6",
          "logIndex": "0x2e",
          "removed": false
        },
        {
          "address": "0x844f6b31f7d1240134b3d63ffc2b6f1c7f2612b6",
          "topics": [
            "0x6c7131e79092f16af04daf787c07a4dc80e7ae1a95dbe1cc1a310cfe1619d2db",
            "0xed1a5b37506144f9ad6db6bd9971bd2721926f33c2bda21b191d0ee8b39a6d01"
          ],
          "data": "0x0000000000000000000000006122fa1c6d4deadc677e7129cecedd140f768b49000000000000000000000000000000000000000000000000000000003b9aca00",
          "blockHash": "0x8797bca971abcc4e36c39428917fb491200362b2a6dcb8d944ca24d62cdf665f",
          "blockNumber": "0x122054c",
          "transactionHash": "0x7d331d674442f8d019ab522048085e1fbb548a58515ac26c11cd94d8d773fcb6",
          "transactionIndex": "0x6",
          "logIndex": "0x2f",
          "removed": false
        },
        {
          "address": "0x828223b512bf1892229fec61c5c1376bded3a285",
          "topics": [
            "0xce3ef9786e3b9388efc900e4e0a070185cebb023f778aa7688f8c71af67395de",
            "0x960810f9a463d7c02bc9ce272ff1cb7b6bfbdff794067f8a59ce98d634cc36da"
          ],
          "data": "0x000000000000000000000000000000000000000000000000000000003b9aca000000000000000000000000006122fa1c6d4deadc677e7129cecedd140f768b4900000000000000000000000000000000000000000000000000000000000000a000000000000000000000000000000000000000000000000000000000000000e000000000000000000000000000000000000000000000000000000000000001200000000000000000000000000000000000000000000000000000000000000001000000000000000000000000000000000000000000000000000000000096ed7c0000000000000000000000000000000000000000000000000000000000000001000000000000000000000000000000000000000000000000000000000001825f000000000000000000000000000000000000000000000000000000000000000100000000000000000000000000000000000000000000000000000000000026a3",
          "blockHash": "0x8797bca971abcc4e36c39428917fb491200362b2a6dcb8d944ca24d62cdf665f",
          "blockNumber": "0x122054c",
          "transactionHash": "0x7d331d674442f8d019ab522048085e1fbb548a58515ac26c11cd94d8d773fcb6",
          "transactionIndex": "0x6",
          "logIndex": "0x30",
          "removed": false
        },
        {
          "address": "0x488327236b65c61a6c083e8d811a4e0d3d1d4268",
          "topics": [
            "0xddf252ad1be2c89b69c2b068fc378daa952ba7f163c4a11628f55a4df523b3ef",
            "0x00000000000000000000000077777cc68b333a2256b436d675e8d257699aa667",
            "0x000000000000000000000000fe888881ea85837526483039bb23168041e77a6c"
          ],
          "data": "0x000000000000000000000000000000000000000000000000000000003b9aca00",
          "blockHash": "0x8797bca971abcc4e36c39428917fb491200362b2a6dcb8d944ca24d62cdf665f",
          "blockNumber": "0x122054c",
          "transactionHash": "0x7d331d674442f8d019ab522048085e1fbb548a58515ac26c11cd94d8d773fcb6",
          "transactionIndex": "0x6",
          "logIndex": "0x31",
          "removed": false
        },
        {
          "address": "0x488327236b65c61a6c083e8d811a4e0d3d1d4268",
          "topics": [
            "0x8c5be1e5ebec7d5bd14f71427d1e84f3dd0314c0f7b2291e5b200ac8c7c3b925",
            "0x00000000000000000000000077777cc68b333a2256b436d675e8d257699aa667",
            "0x000000000000000000000000828223b512bf1892229fec61c5c1376bded3a285"
          ],
          "data": "0xfffffffffffffffffffffffffffffffffffffffffffffffffffffffe58ce9901",
          "blockHash": "0x8797bca971abcc4e36c39428917fb491200362b2a6dcb8d944ca24d62cdf665f",
          "blockNumber": "0x122054c",
          "transactionHash": "0x7d331d674442f8d019ab522048085e1fbb548a58515ac26c11cd94d8d773fcb6",
          "transactionIndex": "0x6",
          "logIndex": "0x32",
          "removed": false
        },
        {
          "address": "0x488327236b65c61a6c083e8d811a4e0d3d1d4268",
          "topics": [
            "0x8c5be1e5ebec7d5bd14f71427d1e84f3dd0314c0f7b2291e5b200ac8c7c3b925",
            "0x000000000000000000000000fe888881ea85837526483039bb23168041e77a6c",
            "0x000000000000000000000000844f6b31f7d1240134b3d63ffc2b6f1c7f2612b6"
          ],
          "data": "0x000000000000000000000000000000000000000000000000000000003b9aca00",
          "blockHash": "0x8797bca971abcc4e36c39428917fb491200362b2a6dcb8d944ca24d62cdf665f",
          "blockNumber": "0x122054c",
          "transactionHash": "0x7d331d674442f8d019ab522048085e1fbb548a58515ac26c11cd94d8d773fcb6",
          "transactionIndex": "0x6",
          "logIndex": "0x33",
          "removed": false
        },
        {
          "address": "0x488327236b65c61a6c083e8d811a4e0d3d1d4268",
          "topics": [
            "0xddf252ad1be2c89b69c2b068fc378daa952ba7f163c4a11628f55a4df523b3ef",
            "0x000000000000000000000000fe888881ea85837526483039bb23168041e77a6c",
            "0x000000000000000000000000844f6b31f7d1240134b3d63ffc2b6f1c7f2612b6"
          ],
          "data": "0x000000000000000000000000000000000000000000000000000000003b9aca00",
          "blockHash": "0x8797bca971abcc4e36c39428917fb491200362b2a6dcb8d944ca24d62cdf665f",
          "blockNumber": "0x122054c",
          "transactionHash": "0x7d331d674442f8d019ab522048085e1fbb548a58515ac26c11cd94d8d773fcb6",
          "transactionIndex": "0x6",
          "logIndex": "0x34",
          "removed": false
        },
        {
          "address": "0x488327236b65c61a6c083e8d811a4e0d3d1d4268",
          "topics": [
            "0x8c5be1e5ebec7d5bd14f71427d1e84f3dd0314c0f7b2291e5b200ac8c7c3b925",
            "0x000000000000000000000000fe888881ea85837526483039bb23168041e77a6c",
            "0x000000000000000000000000844f6b31f7d1240134b3d63ffc2b6f1c7f2612b6"
          ],
          "data": "0x0000000000000000000000000000000000000000000000000000000000000000",
          "blockHash": "0x8797bca971abcc4e36c39428917fb491200362b2a6dcb8d944ca24d62cdf665f",
          "blockNumber": "0x122054c",
          "transactionHash": "0x7d331d674442f8d019ab522048085e1fbb548a58515ac26c11cd94d8d773fcb6",
          "transactionIndex": "0x6",
          "logIndex": "0x35",
          "removed": false
        },
        {
          "address": "0x844f6b31f7d1240134b3d63ffc2b6f1c7f2612b6",
          "topics": [
            "0x6c7131e79092f16af04daf787c07a4dc80e7ae1a95dbe1cc1a310cfe1619d2db",
            "0xed1a5b37506144f9ad6db6bd9971bd2721926f33c2bda21b191d0ee8b39a6d01"
          ],
          "data": "0x000000000000000000000000fe888881ea85837526483039bb23168041e77a6c000000000000000000000000000000000000000000000000000000003b9aca00",
          "blockHash": "0x8797bca971abcc4e36c39428917fb491200362b2a6dcb8d944ca24d62cdf665f",
          "blockNumber": "0x122054c",
          "transactionHash": "0x7d331d674442f8d019ab522048085e1fbb548a58515ac26c11cd94d8d773fcb6",
          "transactionIndex": "0x6",
          "logIndex": "0x36",
          "removed": false
        },
        {
          "address": "0x828223b512bf1892229fec61c5c1376bded3a285",
          "topics": [
            "0xce3ef9786e3b9388efc900e4e0a070185cebb023f778aa7688f8c71af67395de",
            "0x960810f9a463d7c02bc9ce272ff1cb7b6bfbdff794067f8a59ce98d634cc36da"
          ],
          "data": "0x000000000000000000000000000000000000000000000000000000003b9aca00000000000000000000000000fe888881ea85837526483039bb23168041e77a6c00000000000000000000000000000000000000000000000000000000000000a000000000000000000000000000000000000000000000000000000000000000e000000000000000000000000000000000000000000000000000000000000001200000000000000000000000000000000000000000000000000000000000000001000000000000000000000000000000000000000000000000000000000096ed7c0000000000000000000000000000000000000000000000000000000000000001000000000000000000000000000000000000000000000000000000000001825f000000000000000000000000000000000000000000000000000000000000000100000000000000000000000000000000000000000000000000000000000026a3",
          "blockHash": "0x8797bca971abcc4e36c39428917fb491200362b2a6dcb8d944ca24d62cdf665f",
          "blockNumber": "0x122054c",
          "transactionHash": "0x7d331d674442f8d019ab522048085e1fbb548a58515ac26c11cd94d8d773fcb6",
          "transactionIndex": "0x6",
          "logIndex": "0x37",
          "removed": false
        },
        {
          "address": "0x488327236b65c61a6c083e8d811a4e0d3d1d4268",
          "topics": [
            "0xddf252ad1be2c89b69c2b068fc378daa952ba7f163c4a11628f55a4df523b3ef",
            "0x00000000000000000000000077777cc68b333a2256b436d675e8d257699aa667",
            "0x000000000000000000000000c247d81baf9d650b1f92dcbd3868779f8f5844b4"
          ],
          "data": "0x000000000000000000000000000000000000000000000000000000003b9aca00",
          "blockHash": "0x8797bca971abcc4e36c39428917fb491200362b2a6dcb8d944ca24d62cdf665f",
          "blockNumber": "0x122054c",
          "transactionHash": "0x7d331d674442f8d019ab522048085e1fbb548a58515ac26c11cd94d8d773fcb6",
          "transactionIndex": "0x6",
          "logIndex": "0x38",
          "removed": false
        },
        {
          "address": "0x488327236b65c61a6c083e8d811a4e0d3d1d4268",
          "topics": [
            "0x8c5be1e5ebec7d5bd14f71427d1e84f3dd0314c0f7b2291e5b200ac8c7c3b925",
            "0x00000000000000000000000077777cc68b333a2256b436d675e8d257699aa667",
            "0x000000000000000000000000828223b512bf1892229fec61c5c1376bded3a285"
          ],
          "data": "0xfffffffffffffffffffffffffffffffffffffffffffffffffffffffe1d33cf01",
          "blockHash": "0x8797bca971abcc4e36c39428917fb491200362b2a6dcb8d944ca24d62cdf665f",
          "blockNumber": "0x122054c",
          "transactionHash": "0x7d331d674442f8d019ab522048085e1fbb548a58515ac26c11cd94d8d773fcb6",
          "transactionIndex": "0x6",
          "logIndex": "0x39",
          "removed": false
        },
        {
          "address": "0x488327236b65c61a6c083e8d811a4e0d3d1d4268",
          "topics": [
            "0x8c5be1e5ebec7d5bd14f71427d1e84f3dd0314c0f7b2291e5b200ac8c7c3b925",
            "0x000000000000000000000000c247d81baf9d650b1f92dcbd3868779f8f5844b4",
            "0x000000000000000000000000844f6b31f7d1240134b3d63ffc2b6f1c7f2612b6"
          ],
          "data": "0x000000000000000000000000000000000000000000000000000000003b9aca00",
          "blockHash": "0x8797bca971abcc4e36c39428917fb491200362b2a6dcb8d944ca24d62cdf665f",
          "blockNumber": "0x122054c",
          "transactionHash": "0x7d331d674442f8d019ab522048085e1fbb548a58515ac26c11cd94d8d773fcb6",
          "transactionIndex": "0x6",
          "logIndex": "0x3a",
          "removed": false
        },
        {
          "address": "0x488327236b65c61a6c083e8d811a4e0d3d1d4268",
          "topics": [
            "0xddf252ad1be2c89b69c2b068fc378daa952ba7f163c4a11628f55a4df523b3ef",
            "0x000000000000000000000000c247d81baf9d650b1f92dcbd3868779f8f5844b4",
            "0x000000000000000000000000844f6b31f7d1240134b3d63ffc2b6f1c7f2612b6"
          ],
          "data": "0x000000000000000000000000000000000000000000000000000000003b9aca00",
          "blockHash": "0x8797bca971abcc4e36c39428917fb491200362b2a6dcb8d944ca24d62cdf665f",
          "blockNumber": "0x122054c",
          "transactionHash": "0x7d331d674442f8d019ab522048085e1fbb548a58515ac26c11cd94d8d773fcb6",
          "transactionIndex": "0x6",
          "logIndex": "0x3b",
          "removed": false
        },
        {
          "address": "0x488327236b65c61a6c083e8d811a4e0d3d1d4268",
          "topics": [
            "0x8c5be1e5ebec7d5bd14f71427d1e84f3dd0314c0f7b2291e5b200ac8c7c3b925",
            "0x000000000000000000000000c247d81baf9d650b1f92dcbd3868779f8f5844b4",
            "0x000000000000000000000000844f6b31f7d1240134b3d63ffc2b6f1c7f2612b6"
          ],
          "data": "0x0000000000000000000000000000000000000000000000000000000000000000",
          "blockHash": "0x8797bca971abcc4e36c39428917fb491200362b2a6dcb8d944ca24d62cdf665f",
          "blockNumber": "0x122054c",
          "transactionHash": "0x7d331d674442f8d019ab522048085e1fbb548a58515ac26c11cd94d8d773fcb6",
          "transactionIndex": "0x6",
          "logIndex": "0x3c",
          "removed": false
        },
        {
          "address": "0x844f6b31f7d1240134b3d63ffc2b6f1c7f2612b6",
          "topics": [
            "0x6c7131e79092f16af04daf787c07a4dc80e7ae1a95dbe1cc1a310cfe1619d2db",
            "0xed1a5b37506144f9ad6db6bd9971bd2721926f33c2bda21b191d0ee8b39a6d01"
          ],
          "data": "0x000000000000000000000000c247d81baf9d650b1f92dcbd3868779f8f5844b4000000000000000000000000000000000000000000000000000000003b9aca00",
          "blockHash": "0x8797bca971abcc4e36c39428917fb491200362b2a6dcb8d944ca24d62cdf665f",
          "blockNumber": "0x122054c",
          "transactionHash": "0x7d331d674442f8d019ab522048085e1fbb548a58515ac26c11cd94d8d773fcb6",
          "transactionIndex": "0x6",
          "logIndex": "0x3d",
          "removed": false
        },
        {
          "address": "0x828223b512bf1892229fec61c5c1376bded3a285",
          "topics": [
            "0xce3ef9786e3b9388efc900e4e0a070185cebb023f778aa7688f8c71af67395de",
            "0x960810f9a463d7c02bc9ce272ff1cb7b6bfbdff794067f8a59ce98d634cc36da"
          ],
          "data": "0x000000000000000000000000000000000000000000000000000000003b9aca00000000000000000000000000c247d81baf9d650b1f92dcbd3868779f8f5844b400000000000000000000000000000000000000000000000000000000000000a000000000000000000000000000000000000000000000000000000000000000e000000000000000000000000000000000000000000000000000000000000001200000000000000000000000000000000000000000000000000000000000000001000000000000000000000000000000000000000000000000000000000096ed7c0000000000000000000000000000000000000000000000000000000000000001000000000000000000000000000000000000000000000000000000000001825f000000000000000000000000000000000000000000000000000000000000000100000000000000000000000000000000000000000000000000000000000026a3",
          "blockHash": "0x8797bca971abcc4e36c39428917fb491200362b2a6dcb8d944ca24d62cdf665f",
          "blockNumber": "0x122054c",
          "transactionHash": "0x7d331d674442f8d019ab522048085e1fbb548a58515ac26c11cd94d8d773fcb6",
          "transactionIndex": "0x6",
          "logIndex": "0x3e",
          "removed": false
        },
        {
          "address": "0x488327236b65c61a6c083e8d811a4e0d3d1d4268",
          "topics": [
            "0xddf252ad1be2c89b69c2b068fc378daa952ba7f163c4a11628f55a4df523b3ef",
            "0x00000000000000000000000077777cc68b333a2256b436d675e8d257699aa667",
            "0x0000000000000000000000007a23cfd36e287496eb0918c3e3287541c1b131c3"
          ],
          "data": "0x000000000000000000000000000000000000000000000000000000003b9aca00",
          "blockHash": "0x8797bca971abcc4e36c39428917fb491200362b2a6dcb8d944ca24d62cdf665f",
          "blockNumber": "0x122054c",
          "transactionHash": "0x7d331d674442f8d019ab522048085e1fbb548a58515ac26c11cd94d8d773fcb6",
          "transactionIndex": "0x6",
          "logIndex": "0x3f",
          "removed": false
        },
        {
          "address": "0x488327236b65c61a6c083e8d811a4e0d3d1d4268",
          "topics": [
            "0x8c5be1e5ebec7d5bd14f71427d1e84f3dd0314c0f7b2291e5b200ac8c7c3b925",
            "0x00000000000000000000000077777cc68b333a2256b436d675e8d257699aa667",
            "0x000000000000000000000000828223b512bf1892229fec61c5c1376bded3a285"
          ],
          "data": "0xfffffffffffffffffffffffffffffffffffffffffffffffffffffffde1990501",
          "blockHash": "0x8797bca971abcc4e36c39428917fb491200362b2a6dcb8d944ca24d62cdf665f",
          "blockNumber": "0x122054c",
          "transactionHash": "0x7d331d674442f8d019ab522048085e1fbb548a58515ac26c11cd94d8d773fcb6",
          "transactionIndex": "0x6",
          "logIndex": "0x40",
          "removed": false
        },
        {
          "address": "0x488327236b65c61a6c083e8d811a4e0d3d1d4268",
          "topics": [
            "0x8c5be1e5ebec7d5bd14f71427d1e84f3dd0314c0f7b2291e5b200ac8c7c3b925",
            "0x0000000000000000000000007a23cfd36e287496eb0918c3e3287541c1b131c3",
            "0x000000000000000000000000844f6b31f7d1240134b3d63ffc2b6f1c7f2612b6"
          ],
          "data": "0x000000000000000000000000000000000000000000000000000000003b9aca00",
          "blockHash": "0x8797bca971abcc4e36c39428917fb491200362b2a6dcb8d944ca24d62cdf665f",
          "blockNumber": "0x122054c",
          "transactionHash": "0x7d331d674442f8d019ab522048085e1fbb548a58515ac26c11cd94d8d773fcb6",
          "transactionIndex": "0x6",
          "logIndex": "0x41",
          "removed": false
        },
        {
          "address": "0x488327236b65c61a6c083e8d811a4e0d3d1d4268",
          "topics": [
            "0xddf252ad1be2c89b69c2b068fc378daa952ba7f163c4a11628f55a4df523b3ef",
            "0x0000000000000000000000007a23cfd36e287496eb0918c3e3287541c1b131c3",
            "0x000000000000000000000000844f6b31f7d1240134b3d63ffc2b6f1c7f2612b6"
          ],
          "data": "0x000000000000000000000000000000000000000000000000000000003b9aca00",
          "blockHash": "0x8797bca971abcc4e36c39428917fb491200362b2a6dcb8d944ca24d62cdf665f",
          "blockNumber": "0x122054c",
          "transactionHash": "0x7d331d674442f8d019ab522048085e1fbb548a58515ac26c11cd94d8d773fcb6",
          "transactionIndex": "0x6",
          "logIndex": "0x42",
          "removed": false
        },
        {
          "address": "0x488327236b65c61a6c083e8d811a4e0d3d1d4268",
          "topics": [
            "0x8c5be1e5ebec7d5bd14f71427d1e84f3dd0314c0f7b2291e5b200ac8c7c3b925",
            "0x0000000000000000000000007a23cfd36e287496eb0918c3e3287541c1b131c3",
            "0x000000000000000000000000844f6b31f7d1240134b3d63ffc2b6f1c7f2612b6"
          ],
          "data": "0x0000000000000000000000000000000000000000000000000000000000000000",
          "blockHash": "0x8797bca971abcc4e36c39428917fb491200362b2a6dcb8d944ca24d62cdf665f",
          "blockNumber": "0x122054c",
          "transactionHash": "0x7d331d674442f8d019ab522048085e1fbb548a58515ac26c11cd94d8d773fcb6",
          "transactionIndex": "0x6",
          "logIndex": "0x43",
          "removed": false
        },
        {
          "address": "0x844f6b31f7d1240134b3d63ffc2b6f1c7f2612b6",
          "topics": [
            "0x6c7131e79092f16af04daf787c07a4dc80e7ae1a95dbe1cc1a310cfe1619d2db",
            "0xed1a5b37506144f9ad6db6bd9971bd2721926f33c2bda21b191d0ee8b39a6d01"
          ],
          "data": "0x0000000000000000000000007a23cfd36e287496eb0918c3e3287541c1b131c3000000000000000000000000000000000000000000000000000000003b9aca00",
          "blockHash": "0x8797bca971abcc4e36c39428917fb491200362b2a6dcb8d944ca24d62cdf665f",
          "blockNumber": "0x122054c",
          "transactionHash": "0x7d331d674442f8d019ab522048085e1fbb548a58515ac26c11cd94d8d773fcb6",
          "transactionIndex": "0x6",
          "logIndex": "0x44",
          "removed": false
        },
        {
          "address": "0x828223b512bf1892229fec61c5c1376bded3a285",
          "topics": [
            "0xce3ef9786e3b9388efc900e4e0a070185cebb023f778aa7688f8c71af67395de",
            "0x960810f9a463d7c02bc9ce272ff1cb7b6bfbdff794067f8a59ce98d634cc36da"
          ],
          "data": "0x000000000000000000000000000000000000000000000000000000003b9aca000000000000000000000000007a23cfd36e287496eb0918c3e3287541c1b131c300000000000000000000000000000000000000000000000000000000000000a000000000000000000000000000000000000000000000000000000000000000e000000000000000000000000000000000000000000000000000000000000001200000000000000000000000000000000000000000000000000000000000000001000000000000000000000000000000000000000000000000000000000096ed7c0000000000000000000000000000000000000000000000000000000000000001000000000000000000000000000000000000000000000000000000000001825f000000000000000000000000000000000000000000000000000000000000000100000000000000000000000000000000000000000000000000000000000026a3",
          "blockHash": "0x8797bca971abcc4e36c39428917fb491200362b2a6dcb8d944ca24d62cdf665f",
          "blockNumber": "0x122054c",
          "transactionHash": "0x7d331d674442f8d019ab522048085e1fbb548a58515ac26c11cd94d8d773fcb6",
          "transactionIndex": "0x6",
          "logIndex": "0x45",
          "removed": false
        },
        {
          "address": "0x488327236b65c61a6c083e8d811a4e0d3d1d4268",
          "topics": [
            "0xddf252ad1be2c89b69c2b068fc378daa952ba7f163c4a11628f55a4df523b3ef",
            "0x00000000000000000000000077777cc68b333a2256b436d675e8d257699aa667",
            "0x000000000000000000000000658e377cee7af2cbf47f44e9f6a07166d1dea4e2"
          ],
          "data": "0x000000000000000000000000000000000000000000000000000000003b9aca00",
          "blockHash": "0x8797bca971abcc4e36c39428917fb491200362b2a6dcb8d944ca24d62cdf665f",
          "blockNumber": "0x122054c",
          "transactionHash": "0x7d331d674442f8d019ab522048085e1fbb548a58515ac26c11cd94d8d773fcb6",
          "transactionIndex": "0x6",
          "logIndex": "0x46",
          "removed": false
        },
        {
          "address": "0x488327236b65c61a6c083e8d811a4e0d3d1d4268",
          "topics": [
            "0x8c5be1e5ebec7d5bd14f71427d1e84f3dd0314c0f7b2291e5b200ac8c7c3b925",
            "0x00000000000000000000000077777cc68b333a2256b436d675e8d257699aa667",
            "0x000000000000000000000000828223b512bf1892229fec61c5c1376bded3a285"
          ],
          "data": "0xfffffffffffffffffffffffffffffffffffffffffffffffffffffffda5fe3b01",
          "blockHash": "0x8797bca971abcc4e36c39428917fb491200362b2a6dcb8d944ca24d62cdf665f",
          "blockNumber": "0x122054c",
          "transactionHash": "0x7d331d674442f8d019ab522048085e1fbb548a58515ac26c11cd94d8d773fcb6",
          "transactionIndex": "0x6",
          "logIndex": "0x47",
          "removed": false
        },
        {
          "address": "0x488327236b65c61a6c083e8d811a4e0d3d1d4268",
          "topics": [
            "0x8c5be1e5ebec7d5bd14f71427d1e84f3dd0314c0f7b2291e5b200ac8c7c3b925",
            "0x000000000000000000000000658e377cee7af2cbf47f44e9f6a07166d1dea4e2",
            "0x000000000000000000000000844f6b31f7d1240134b3d63ffc2b6f1c7f2612b6"
          ],
          "data": "0x000000000000000000000000000000000000000000000000000000003b9aca00",
          "blockHash": "0x8797bca971abcc4e36c39428917fb491200362b2a6dcb8d944ca24d62cdf665f",
          "blockNumber": "0x122054c",
          "transactionHash": "0x7d331d674442f8d019ab522048085e1fbb548a58515ac26c11cd94d8d773fcb6",
          "transactionIndex": "0x6",
          "logIndex": "0x48",
          "removed": false
        },
        {
          "address": "0x488327236b65c61a6c083e8d811a4e0d3d1d4268",
          "topics": [
            "0xddf252ad1be2c89b69c2b068fc378daa952ba7f163c4a11628f55a4df523b3ef",
            "0x000000000000000000000000658e377cee7af2cbf47f44e9f6a07166d1dea4e2",
            "0x000000000000000000000000844f6b31f7d1240134b3d63ffc2b6f1c7f2612b6"
          ],
          "data": "0x000000000000000000000000000000000000000000000000000000003b9aca00",
          "blockHash": "0x8797bca971abcc4e36c39428917fb491200362b2a6dcb8d944ca24d62cdf665f",
          "blockNumber": "0x122054c",
          "transactionHash": "0x7d331d674442f8d019ab522048085e1fbb548a58515ac26c11cd94d8d773fcb6",
          "transactionIndex": "0x6",
          "logIndex": "0x49",
          "removed": false
        },
        {
          "address": "0x488327236b65c61a6c083e8d811a4e0d3d1d4268",
          "topics": [
            "0x8c5be1e5ebec7d5bd14f71427d1e84f3dd0314c0f7b2291e5b200ac8c7c3b925",
            "0x000000000000000000000000658e377cee7af2cbf47f44e9f6a07166d1dea4e2",
            "0x000000000000000000000000844f6b31f7d1240134b3d63ffc2b6f1c7f2612b6"
          ],
          "data": "0x0000000000000000000000000000000000000000000000000000000000000000",
          "blockHash": "0x8797bca971abcc4e36c39428917fb491200362b2a6dcb8d944ca24d62cdf665f",
          "blockNumber": "0x122054c",
          "transactionHash": "0x7d331d674442f8d019ab522048085e1fbb548a58515ac26c11cd94d8d773fcb6",
          "transactionIndex": "0x6",
          "logIndex": "0x4a",
          "removed": false
        },
        {
          "address": "0x844f6b31f7d1240134b3d63ffc2b6f1c7f2612b6",
          "topics": [
            "0x6c7131e79092f16af04daf787c07a4dc80e7ae1a95dbe1cc1a310cfe1619d2db",
            "0xed1a5b37506144f9ad6db6bd9971bd2721926f33c2bda21b191d0ee8b39a6d01"
          ],
          "data": "0x000000000000000000000000658e377cee7af2cbf47f44e9f6a07166d1dea4e2000000000000000000000000000000000000000000000000000000003b9aca00",
          "blockHash": "0x8797bca971abcc4e36c39428917fb491200362b2a6dcb8d944ca24d62cdf665f",
          "blockNumber": "0x122054c",
          "transactionHash": "0x7d331d674442f8d019ab522048085e1fbb548a58515ac26c11cd94d8d773fcb6",
          "transactionIndex": "0x6",
          "logIndex": "0x4b",
          "removed": false
        },
        {
          "address": "0x828223b512bf1892229fec61c5c1376bded3a285",
          "topics": [
            "0xce3ef9786e3b9388efc900e4e0a070185cebb023f778aa7688f8c71af67395de",
            "0x960810f9a463d7c02bc9ce272ff1cb7b6bfbdff794067f8a59ce98d634cc36da"
          ],
          "data": "0x000000000000000000000000000000000000000000000000000000003b9aca00000000000000000000000000658e377cee7af2cbf47f44e9f6a07166d1dea4e200000000000000000000000000000000000000000000000000000000000000a000000000000000000000000000000000000000000000000000000000000000e000000000000000000000000000000000000000000000000000000000000001200000000000000000000000000000000000000000000000000000000000000001000000000000000000000000000000000000000000000000000000000096ed7c0000000000000000000000000000000000000000000000000000000000000001000000000000000000000000000000000000000000000000000000000001825f000000000000000000000000000000000000000000000000000000000000000100000000000000000000000000000000000000000000000000000000000026a3",
          "blockHash": "0x8797bca971abcc4e36c39428917fb491200362b2a6dcb8d944ca24d62cdf665f",
          "blockNumber": "0x122054c",
          "transactionHash": "0x7d331d674442f8d019ab522048085e1fbb548a58515ac26c11cd94d8d773fcb6",
          "transactionIndex": "0x6",
          "logIndex": "0x4c",
          "removed": false
        }
      ],
      "logsBloom": "0x0000000000200000000200000000000000000000010200002000000000200000002000040000012000000000000000000100000000000000000000002a2000000000000000000000000000080002000000000000020080200000000000050000001000000000000000000000000000000000000000000000000000100000000000010000000000008000004000000000000000100000000000020000001010000200000000800000000000800000000208020480100000000000000480000000000040020000000000000004024000000000000800000000000000001100000800101200020000010000000004000000000082000000000c0000000000801000",
      "type": "0x2",
      "transactionHash": "0x7d331d674442f8d019ab522048085e1fbb548a58515ac26c11cd94d8d773fcb6",
      "transactionIndex": "0x6",
      "blockHash": "0x8797bca971abcc4e36c39428917fb491200362b2a6dcb8d944ca24d62cdf665f",
      "blockNumber": "0x122054c",
      "gasUsed": "0x348be4",
      "effectiveGasPrice": "0x2f1",
      "from": "0x77777cc68b333a2256b436d675e8d257699aa667",
      "to": "0x828223b512bf1892229fec61c5c1376bded3a285",
      "contractAddress": null,
      "l1BaseFeeScalar": "0x1db0",
      "l1BlobBaseFee": "0x13",
      "l1BlobBaseFeeScalar": "0xd2730",
      "l1Fee": "0x396fe5",
      "l1GasPrice": "0x31500",
      "l1GasUsed": "0x992"
    }
  ],
  "libraries": [],
  "pending": [],
  "returns": {},
  "timestamp": 1729816140,
  "chain": 11155420,
  "commit": "b45d478"
}