{
  "transactions": [
    {
      "hash": "0xf6669ac1bc150ad0e851656f90a813021cedd0746c2eac56f5464e635e63b0b8",
      "transactionType": "CALL",
      "contractName": null,
      "contractAddress": "0x828223b512bf1892229fec61c5c1376bded3a285",
      "function": "createMarket(address,uint256,uint256,(bytes32[],bytes[]),(bytes32[],bytes[]),uint8)",
      "arguments": [
        "0x488327236B65C61A6c083e8d811a4E0D3d1D4268",
        "4838400",
        "1000000000000000",
        "([0xaa8c217c02ffffffffffff01f8e66eac95d27dd30a756ee1a2d2d96d392b61cb, 0x095ea7b3010001ffffffffff488327236b65c61a6c083e8d811a4e0d3d1d4268, 0xd0e30db001ffffffffffffff844f6b31f7d1240134b3d63ffc2b6f1c7f2612b6], [0x000000000000000000000000844f6b31f7d1240134b3d63ffc2b6f1c7f2612b6, 0x])",
        "([0x3ccfd60b01ffffffffffffff844f6b31f7d1240134b3d63ffc2b6f1c7f2612b6], [])",
        "2"
      ],
      "transaction": {
        "from": "0x77777cc68b333a2256b436d675e8d257699aa667",
        "to": "0x828223b512bf1892229fec61c5c1376bded3a285",
        "gas": "0x7a041",
        "value": "0x0",
        "input": "0xf6242301000000000000000000000000488327236b65c61a6c083e8d811a4e0d3d1d4268000000000000000000000000000000000000000000000000000000000049d40000000000000000000000000000000000000000000000000000038d7ea4c6800000000000000000000000000000000000000000000000000000000000000000c000000000000000000000000000000000000000000000000000000000000002400000000000000000000000000000000000000000000000000000000000000002000000000000000000000000000000000000000000000000000000000000004000000000000000000000000000000000000000000000000000000000000000c00000000000000000000000000000000000000000000000000000000000000003aa8c217c02ffffffffffff01f8e66eac95d27dd30a756ee1a2d2d96d392b61cb095ea7b3010001ffffffffff488327236b65c61a6c083e8d811a4e0d3d1d4268d0e30db001ffffffffffffff844f6b31f7d1240134b3d63ffc2b6f1c7f2612b60000000000000000000000000000000000000000000000000000000000000002000000000000000000000000000000000000000000000000000000000000004000000000000000000000000000000000000000000000000000000000000000800000000000000000000000000000000000000000000000000000000000000020000000000000000000000000844f6b31f7d1240134b3d63ffc2b6f1c7f2612b600000000000000000000000000000000000000000000000000000000000000000000000000000000000000000000000000000000000000000000000000000040000000000000000000000000000000000000000000000000000000000000008000000000000000000000000000000000000000000000000000000000000000013ccfd60b01ffffffffffffff844f6b31f7d1240134b3d63ffc2b6f1c7f2612b60000000000000000000000000000000000000000000000000000000000000000",
        "nonce": "0x19",
        "chainId": "0xaa37dc"
      },
      "additionalContracts": [],
      "isFixedGasLimit": false
    },
    {
      "hash": "0xbdd397154e652be9068ce71976cfee01dfddb3e4cce697c63c9f2cdd93abdd9e",
      "transactionType": "CALL",
      "contractName": null,
      "contractAddress": "0x488327236b65c61a6c083e8d811a4e0d3d1d4268",
      "function": "approve(address,uint256)",
      "arguments": [
        "0x828223B512BF1892229FeC61C5c1376BDED3a285",
        "115792089237316195423570985008687907853269984665640564039457584007913129639935"
      ],
      "transaction": {
        "from": "0x77777cc68b333a2256b436d675e8d257699aa667",
        "to": "0x488327236b65c61a6c083e8d811a4e0d3d1d4268",
        "gas": "0x9e88",
        "value": "0x0",
        "input": "0x095ea7b3000000000000000000000000828223b512bf1892229fec61c5c1376bded3a285ffffffffffffffffffffffffffffffffffffffffffffffffffffffffffffffff",
        "nonce": "0x1a",
        "chainId": "0xaa37dc"
      },
      "additionalContracts": [],
      "isFixedGasLimit": false
    },
    {
      "hash": "0x8e0ac9579da0becd4ca9a00235d2d4817951362b5c5a217c270f449fcc66b85a",
      "transactionType": "CALL",
      "contractName": null,
      "contractAddress": "0x828223b512bf1892229fec61c5c1376bded3a285",
      "function": "createIPOffer(bytes32,uint256,uint256,address[],uint256[])",
      "arguments": [
        "0xd69484e9dabafa2381d8f119876e2ae1be1be10bbe070bd7c40b7e8180a55a35",
        "10000000000",
        "1731024986",
        "[0x488327236B65C61A6c083e8d811a4E0D3d1D4268]",
        "[100000000]"
      ],
      "transaction": {
        "from": "0x77777cc68b333a2256b436d675e8d257699aa667",
        "to": "0x828223b512bf1892229fec61c5c1376bded3a285",
        "gas": "0x72157",
        "value": "0x0",
        "input": "0xee46ebc6d69484e9dabafa2381d8f119876e2ae1be1be10bbe070bd7c40b7e8180a55a3500000000000000000000000000000000000000000000000000000002540be40000000000000000000000000000000000000000000000000000000000672d585a00000000000000000000000000000000000000000000000000000000000000a000000000000000000000000000000000000000000000000000000000000000e00000000000000000000000000000000000000000000000000000000000000001000000000000000000000000488327236b65c61a6c083e8d811a4e0d3d1d426800000000000000000000000000000000000000000000000000000000000000010000000000000000000000000000000000000000000000000000000005f5e100",
        "nonce": "0x1b",
        "chainId": "0xaa37dc"
      },
      "additionalContracts": [],
      "isFixedGasLimit": false
    },
    {
      "hash": "0xc911bd882635cd8e49c240b73a2e6d9df9025bb0a35e8c5a07a3eb31d42717ab",
      "transactionType": "CALL",
      "contractName": null,
      "contractAddress": "0x828223b512bf1892229fec61c5c1376bded3a285",
      "function": "fillIPOffers(bytes32[],uint256[],address,address)",
      "arguments": [
        "[0xb3c7a2ba79dadd20ecb65d95d775121b378fdacef62aea2553652b0626596b6e]",
        "[1000000000]",
        "0x0000000000000000000000000000000000000000",
        "0x77777Cc68b333a2256B436D675E8D257699Aa667"
      ],
      "transaction": {
        "from": "0x77777cc68b333a2256b436d675e8d257699aa667",
        "to": "0x828223b512bf1892229fec61c5c1376bded3a285",
        "gas": "0x9e009",
        "value": "0x0",
        "input": "0x0600fc6f000000000000000000000000000000000000000000000000000000000000008000000000000000000000000000000000000000000000000000000000000000c0000000000000000000000000000000000000000000000000000000000000000000000000000000000000000077777cc68b333a2256b436d675e8d257699aa6670000000000000000000000000000000000000000000000000000000000000001b3c7a2ba79dadd20ecb65d95d775121b378fdacef62aea2553652b0626596b6e0000000000000000000000000000000000000000000000000000000000000001000000000000000000000000000000000000000000000000000000003b9aca00",
        "nonce": "0x1c",
        "chainId": "0xaa37dc"
      },
      "additionalContracts": [
        {
          "transactionType": "CREATE",
          "address": "0x513b4d973a50f871bdf9e27586150ac3d5146bfd",
          "initCode": "0x3d6100c380600b3d3981f3363d3d3761008b603836393d3d3d3661008b013d73bc52f921b50b0572a649deb553d104f6ecacb6695af43d82803e903d91603657fd5bf377777cc68b333a2256b436d675e8d257699aa667828223b512bf1892229fec61c5c1376bded3a285000000000000000000000000000000000000000000000000000000003b9aca00000000000000000000000000000000000000000000000000000000006764b78401d69484e9dabafa2381d8f119876e2ae1be1be10bbe070bd7c40b7e8180a55a350089"
        }
      ],
      "isFixedGasLimit": false
    },
    {
      "hash": "0x4b40dfcfc9dc224ab0f3fd0fdaa50b20d3077f2a4d2bd1f572fc66c228048061",
      "transactionType": "CALL",
      "contractName": null,
      "contractAddress": "0x828223b512bf1892229fec61c5c1376bded3a285",
      "function": "fillIPOffers(bytes32[],uint256[],address,address)",
      "arguments": [
        "[0xb3c7a2ba79dadd20ecb65d95d775121b378fdacef62aea2553652b0626596b6e]",
        "[1000000000]",
        "0x0000000000000000000000000000000000000000",
        "0x77777Cc68b333a2256B436D675E8D257699Aa667"
      ],
      "transaction": {
        "from": "0x77777cc68b333a2256b436d675e8d257699aa667",
        "to": "0x828223b512bf1892229fec61c5c1376bded3a285",
        "gas": "0x9e009",
        "value": "0x0",
        "input": "0x0600fc6f000000000000000000000000000000000000000000000000000000000000008000000000000000000000000000000000000000000000000000000000000000c0000000000000000000000000000000000000000000000000000000000000000000000000000000000000000077777cc68b333a2256b436d675e8d257699aa6670000000000000000000000000000000000000000000000000000000000000001b3c7a2ba79dadd20ecb65d95d775121b378fdacef62aea2553652b0626596b6e0000000000000000000000000000000000000000000000000000000000000001000000000000000000000000000000000000000000000000000000003b9aca00",
        "nonce": "0x1d",
        "chainId": "0xaa37dc"
      },
      "additionalContracts": [
        {
          "transactionType": "CREATE",
          "address": "0xa216fcc29148a8289c01d3306fcf6f6657719ef4",
          "initCode": "0x3d6100c380600b3d3981f3363d3d3761008b603836393d3d3d3661008b013d73bc52f921b50b0572a649deb553d104f6ecacb6695af43d82803e903d91603657fd5bf377777cc68b333a2256b436d675e8d257699aa667828223b512bf1892229fec61c5c1376bded3a285000000000000000000000000000000000000000000000000000000003b9aca00000000000000000000000000000000000000000000000000000000006764b78401d69484e9dabafa2381d8f119876e2ae1be1be10bbe070bd7c40b7e8180a55a350089"
        }
      ],
      "isFixedGasLimit": false
    },
    {
      "hash": "0x0cf5ebc22937762cfc3ad5253f8d37c64c6c55e26951d16378ceb80a1034246e",
      "transactionType": "CALL",
      "contractName": null,
      "contractAddress": "0x828223b512bf1892229fec61c5c1376bded3a285",
      "function": "fillIPOffers(bytes32[],uint256[],address,address)",
      "arguments": [
        "[0xb3c7a2ba79dadd20ecb65d95d775121b378fdacef62aea2553652b0626596b6e]",
        "[1000000000]",
        "0x0000000000000000000000000000000000000000",
        "0x77777Cc68b333a2256B436D675E8D257699Aa667"
      ],
      "transaction": {
        "from": "0x77777cc68b333a2256b436d675e8d257699aa667",
        "to": "0x828223b512bf1892229fec61c5c1376bded3a285",
        "gas": "0x9e009",
        "value": "0x0",
        "input": "0x0600fc6f000000000000000000000000000000000000000000000000000000000000008000000000000000000000000000000000000000000000000000000000000000c0000000000000000000000000000000000000000000000000000000000000000000000000000000000000000077777cc68b333a2256b436d675e8d257699aa6670000000000000000000000000000000000000000000000000000000000000001b3c7a2ba79dadd20ecb65d95d775121b378fdacef62aea2553652b0626596b6e0000000000000000000000000000000000000000000000000000000000000001000000000000000000000000000000000000000000000000000000003b9aca00",
        "nonce": "0x1e",
        "chainId": "0xaa37dc"
      },
      "additionalContracts": [
        {
          "transactionType": "CREATE",
          "address": "0x35a8b874b5d7937cbc968c506f0ac6d6621a3f93",
          "initCode": "0x3d6100c380600b3d3981f3363d3d3761008b603836393d3d3d3661008b013d73bc52f921b50b0572a649deb553d104f6ecacb6695af43d82803e903d91603657fd5bf377777cc68b333a2256b436d675e8d257699aa667828223b512bf1892229fec61c5c1376bded3a285000000000000000000000000000000000000000000000000000000003b9aca00000000000000000000000000000000000000000000000000000000006764b78401d69484e9dabafa2381d8f119876e2ae1be1be10bbe070bd7c40b7e8180a55a350089"
        }
      ],
      "isFixedGasLimit": false
    },
    {
      "hash": "0x9992603f6dc93207c40eef2799906f783c9f68cd8bbfd9fcaf2cd84a703d43d1",
      "transactionType": "CALL",
      "contractName": null,
      "contractAddress": "0x828223b512bf1892229fec61c5c1376bded3a285",
      "function": "fillIPOffers(bytes32[],uint256[],address,address)",
      "arguments": [
        "[0xb3c7a2ba79dadd20ecb65d95d775121b378fdacef62aea2553652b0626596b6e]",
        "[1000000000]",
        "0x0000000000000000000000000000000000000000",
        "0x77777Cc68b333a2256B436D675E8D257699Aa667"
      ],
      "transaction": {
        "from": "0x77777cc68b333a2256b436d675e8d257699aa667",
        "to": "0x828223b512bf1892229fec61c5c1376bded3a285",
        "gas": "0x9e009",
        "value": "0x0",
        "input": "0x0600fc6f000000000000000000000000000000000000000000000000000000000000008000000000000000000000000000000000000000000000000000000000000000c0000000000000000000000000000000000000000000000000000000000000000000000000000000000000000077777cc68b333a2256b436d675e8d257699aa6670000000000000000000000000000000000000000000000000000000000000001b3c7a2ba79dadd20ecb65d95d775121b378fdacef62aea2553652b0626596b6e0000000000000000000000000000000000000000000000000000000000000001000000000000000000000000000000000000000000000000000000003b9aca00",
        "nonce": "0x1f",
        "chainId": "0xaa37dc"
      },
      "additionalContracts": [
        {
          "transactionType": "CREATE",
          "address": "0x7a23458ad4120ade0c85c8635343a3f6513998fc",
          "initCode": "0x3d6100c380600b3d3981f3363d3d3761008b603836393d3d3d3661008b013d73bc52f921b50b0572a649deb553d104f6ecacb6695af43d82803e903d91603657fd5bf377777cc68b333a2256b436d675e8d257699aa667828223b512bf1892229fec61c5c1376bded3a285000000000000000000000000000000000000000000000000000000003b9aca00000000000000000000000000000000000000000000000000000000006764b78401d69484e9dabafa2381d8f119876e2ae1be1be10bbe070bd7c40b7e8180a55a350089"
        }
      ],
      "isFixedGasLimit": false
    },
    {
      "hash": "0x3a7f06038f3a2f3d6fff2ef1876ee36f2cbc022ce2894b48e3a673ebf83d7bba",
      "transactionType": "CALL",
      "contractName": null,
      "contractAddress": "0x828223b512bf1892229fec61c5c1376bded3a285",
      "function": "fillIPOffers(bytes32[],uint256[],address,address)",
      "arguments": [
        "[0xb3c7a2ba79dadd20ecb65d95d775121b378fdacef62aea2553652b0626596b6e]",
        "[1000000000]",
        "0x0000000000000000000000000000000000000000",
        "0x77777Cc68b333a2256B436D675E8D257699Aa667"
      ],
      "transaction": {
        "from": "0x77777cc68b333a2256b436d675e8d257699aa667",
        "to": "0x828223b512bf1892229fec61c5c1376bded3a285",
        "gas": "0x9e009",
        "value": "0x0",
        "input": "0x0600fc6f000000000000000000000000000000000000000000000000000000000000008000000000000000000000000000000000000000000000000000000000000000c0000000000000000000000000000000000000000000000000000000000000000000000000000000000000000077777cc68b333a2256b436d675e8d257699aa6670000000000000000000000000000000000000000000000000000000000000001b3c7a2ba79dadd20ecb65d95d775121b378fdacef62aea2553652b0626596b6e0000000000000000000000000000000000000000000000000000000000000001000000000000000000000000000000000000000000000000000000003b9aca00",
        "nonce": "0x20",
        "chainId": "0xaa37dc"
      },
      "additionalContracts": [
        {
          "transactionType": "CREATE",
          "address": "0x4561f749d72be9dedf4296ea63b274784b08941c",
          "initCode": "0x3d6100c380600b3d3981f3363d3d3761008b603836393d3d3d3661008b013d73bc52f921b50b0572a649deb553d104f6ecacb6695af43d82803e903d91603657fd5bf377777cc68b333a2256b436d675e8d257699aa667828223b512bf1892229fec61c5c1376bded3a285000000000000000000000000000000000000000000000000000000003b9aca00000000000000000000000000000000000000000000000000000000006764b78401d69484e9dabafa2381d8f119876e2ae1be1be10bbe070bd7c40b7e8180a55a350089"
        }
      ],
      "isFixedGasLimit": false
    },
    {
      "hash": "0xa459cc36fb8cd24009ac56feb302af7ec420cadd21a7fac4fe47fe2321071dcd",
      "transactionType": "CALL",
      "contractName": null,
      "contractAddress": "0x828223b512bf1892229fec61c5c1376bded3a285",
      "function": "fillIPOffers(bytes32[],uint256[],address,address)",
      "arguments": [
        "[0xb3c7a2ba79dadd20ecb65d95d775121b378fdacef62aea2553652b0626596b6e]",
        "[1000000000]",
        "0x0000000000000000000000000000000000000000",
        "0x77777Cc68b333a2256B436D675E8D257699Aa667"
      ],
      "transaction": {
        "from": "0x77777cc68b333a2256b436d675e8d257699aa667",
        "to": "0x828223b512bf1892229fec61c5c1376bded3a285",
        "gas": "0x9e009",
        "value": "0x0",
        "input": "0x0600fc6f000000000000000000000000000000000000000000000000000000000000008000000000000000000000000000000000000000000000000000000000000000c0000000000000000000000000000000000000000000000000000000000000000000000000000000000000000077777cc68b333a2256b436d675e8d257699aa6670000000000000000000000000000000000000000000000000000000000000001b3c7a2ba79dadd20ecb65d95d775121b378fdacef62aea2553652b0626596b6e0000000000000000000000000000000000000000000000000000000000000001000000000000000000000000000000000000000000000000000000003b9aca00",
        "nonce": "0x21",
        "chainId": "0xaa37dc"
      },
      "additionalContracts": [
        {
          "transactionType": "CREATE",
          "address": "0x61dcf2463029b64d85fb550766ec34d1d2e0eb68",
          "initCode": "0x3d6100c380600b3d3981f3363d3d3761008b603836393d3d3d3661008b013d73bc52f921b50b0572a649deb553d104f6ecacb6695af43d82803e903d91603657fd5bf377777cc68b333a2256b436d675e8d257699aa667828223b512bf1892229fec61c5c1376bded3a285000000000000000000000000000000000000000000000000000000003b9aca00000000000000000000000000000000000000000000000000000000006764b78401d69484e9dabafa2381d8f119876e2ae1be1be10bbe070bd7c40b7e8180a55a350089"
        }
      ],
      "isFixedGasLimit": false
    },
    {
      "hash": "0x7687055fc067b020421d503532c03b57107a679edc99afcf512511f84a932c1e",
      "transactionType": "CALL",
      "contractName": null,
      "contractAddress": "0x828223b512bf1892229fec61c5c1376bded3a285",
      "function": "fillIPOffers(bytes32[],uint256[],address,address)",
      "arguments": [
        "[0xb3c7a2ba79dadd20ecb65d95d775121b378fdacef62aea2553652b0626596b6e]",
        "[1000000000]",
        "0x0000000000000000000000000000000000000000",
        "0x77777Cc68b333a2256B436D675E8D257699Aa667"
      ],
      "transaction": {
        "from": "0x77777cc68b333a2256b436d675e8d257699aa667",
        "to": "0x828223b512bf1892229fec61c5c1376bded3a285",
        "gas": "0x9e009",
        "value": "0x0",
        "input": "0x0600fc6f000000000000000000000000000000000000000000000000000000000000008000000000000000000000000000000000000000000000000000000000000000c0000000000000000000000000000000000000000000000000000000000000000000000000000000000000000077777cc68b333a2256b436d675e8d257699aa6670000000000000000000000000000000000000000000000000000000000000001b3c7a2ba79dadd20ecb65d95d775121b378fdacef62aea2553652b0626596b6e0000000000000000000000000000000000000000000000000000000000000001000000000000000000000000000000000000000000000000000000003b9aca00",
        "nonce": "0x22",
        "chainId": "0xaa37dc"
      },
      "additionalContracts": [
        {
          "transactionType": "CREATE",
          "address": "0xe66157fabc5d26bf761139f7dbd0e81f11e5ac0a",
          "initCode": "0x3d6100c380600b3d3981f3363d3d3761008b603836393d3d3d3661008b013d73bc52f921b50b0572a649deb553d104f6ecacb6695af43d82803e903d91603657fd5bf377777cc68b333a2256b436d675e8d257699aa667828223b512bf1892229fec61c5c1376bded3a285000000000000000000000000000000000000000000000000000000003b9aca00000000000000000000000000000000000000000000000000000000006764b78401d69484e9dabafa2381d8f119876e2ae1be1be10bbe070bd7c40b7e8180a55a350089"
        }
      ],
      "isFixedGasLimit": false
    },
    {
      "hash": "0x972523d6b0151f3bd6a5c76e9ea0d9af2eb79d19097ffebbf548b811c63e9408",
      "transactionType": "CALL",
      "contractName": null,
      "contractAddress": "0x828223b512bf1892229fec61c5c1376bded3a285",
      "function": "fillIPOffers(bytes32[],uint256[],address,address)",
      "arguments": [
        "[0xb3c7a2ba79dadd20ecb65d95d775121b378fdacef62aea2553652b0626596b6e]",
        "[1000000000]",
        "0x0000000000000000000000000000000000000000",
        "0x77777Cc68b333a2256B436D675E8D257699Aa667"
      ],
      "transaction": {
        "from": "0x77777cc68b333a2256b436d675e8d257699aa667",
        "to": "0x828223b512bf1892229fec61c5c1376bded3a285",
        "gas": "0x9e009",
        "value": "0x0",
        "input": "0x0600fc6f000000000000000000000000000000000000000000000000000000000000008000000000000000000000000000000000000000000000000000000000000000c0000000000000000000000000000000000000000000000000000000000000000000000000000000000000000077777cc68b333a2256b436d675e8d257699aa6670000000000000000000000000000000000000000000000000000000000000001b3c7a2ba79dadd20ecb65d95d775121b378fdacef62aea2553652b0626596b6e0000000000000000000000000000000000000000000000000000000000000001000000000000000000000000000000000000000000000000000000003b9aca00",
        "nonce": "0x23",
        "chainId": "0xaa37dc"
      },
      "additionalContracts": [
        {
          "transactionType": "CREATE",
          "address": "0xcab5b34b9cea9f8726c840e5f77abb4c760afd02",
          "initCode": "0x3d6100c380600b3d3981f3363d3d3761008b603836393d3d3d3661008b013d73bc52f921b50b0572a649deb553d104f6ecacb6695af43d82803e903d91603657fd5bf377777cc68b333a2256b436d675e8d257699aa667828223b512bf1892229fec61c5c1376bded3a285000000000000000000000000000000000000000000000000000000003b9aca00000000000000000000000000000000000000000000000000000000006764b78401d69484e9dabafa2381d8f119876e2ae1be1be10bbe070bd7c40b7e8180a55a350089"
        }
      ],
      "isFixedGasLimit": false
    },
    {
      "hash": "0x699f3fc9eb35cf190b6c17563f5c465730d349e224b7d1103a0d4d1957a52d36",
      "transactionType": "CALL",
      "contractName": null,
      "contractAddress": "0x828223b512bf1892229fec61c5c1376bded3a285",
      "function": "fillIPOffers(bytes32[],uint256[],address,address)",
      "arguments": [
        "[0xb3c7a2ba79dadd20ecb65d95d775121b378fdacef62aea2553652b0626596b6e]",
        "[1000000000]",
        "0x0000000000000000000000000000000000000000",
        "0x77777Cc68b333a2256B436D675E8D257699Aa667"
      ],
      "transaction": {
        "from": "0x77777cc68b333a2256b436d675e8d257699aa667",
        "to": "0x828223b512bf1892229fec61c5c1376bded3a285",
        "gas": "0x9e009",
        "value": "0x0",
        "input": "0x0600fc6f000000000000000000000000000000000000000000000000000000000000008000000000000000000000000000000000000000000000000000000000000000c0000000000000000000000000000000000000000000000000000000000000000000000000000000000000000077777cc68b333a2256b436d675e8d257699aa6670000000000000000000000000000000000000000000000000000000000000001b3c7a2ba79dadd20ecb65d95d775121b378fdacef62aea2553652b0626596b6e0000000000000000000000000000000000000000000000000000000000000001000000000000000000000000000000000000000000000000000000003b9aca00",
        "nonce": "0x24",
        "chainId": "0xaa37dc"
      },
      "additionalContracts": [
        {
          "transactionType": "CREATE",
          "address": "0x57a723886d5bc0cd7efef8c8b8395fb6e15cb0f0",
          "initCode": "0x3d6100c380600b3d3981f3363d3d3761008b603836393d3d3d3661008b013d73bc52f921b50b0572a649deb553d104f6ecacb6695af43d82803e903d91603657fd5bf377777cc68b333a2256b436d675e8d257699aa667828223b512bf1892229fec61c5c1376bded3a285000000000000000000000000000000000000000000000000000000003b9aca00000000000000000000000000000000000000000000000000000000006764b78401d69484e9dabafa2381d8f119876e2ae1be1be10bbe070bd7c40b7e8180a55a350089"
        }
      ],
      "isFixedGasLimit": false
    },
    {
      "hash": "0x084b79d9d667e58a9f8a46646c61534a2dffc51ced18823284bf3362bec2e14c",
      "transactionType": "CALL",
      "contractName": null,
      "contractAddress": "0x828223b512bf1892229fec61c5c1376bded3a285",
      "function": "fillIPOffers(bytes32[],uint256[],address,address)",
      "arguments": [
        "[0xb3c7a2ba79dadd20ecb65d95d775121b378fdacef62aea2553652b0626596b6e]",
        "[1000000000]",
        "0x0000000000000000000000000000000000000000",
        "0x77777Cc68b333a2256B436D675E8D257699Aa667"
      ],
      "transaction": {
        "from": "0x77777cc68b333a2256b436d675e8d257699aa667",
        "to": "0x828223b512bf1892229fec61c5c1376bded3a285",
        "gas": "0x9c49d",
        "value": "0x0",
        "input": "0x0600fc6f000000000000000000000000000000000000000000000000000000000000008000000000000000000000000000000000000000000000000000000000000000c0000000000000000000000000000000000000000000000000000000000000000000000000000000000000000077777cc68b333a2256b436d675e8d257699aa6670000000000000000000000000000000000000000000000000000000000000001b3c7a2ba79dadd20ecb65d95d775121b378fdacef62aea2553652b0626596b6e0000000000000000000000000000000000000000000000000000000000000001000000000000000000000000000000000000000000000000000000003b9aca00",
        "nonce": "0x25",
        "chainId": "0xaa37dc"
      },
      "additionalContracts": [
        {
          "transactionType": "CREATE",
          "address": "0x061f3fb023120fce7bf9b1e4080f235f272cd61b",
          "initCode": "0x3d6100c380600b3d3981f3363d3d3761008b603836393d3d3d3661008b013d73bc52f921b50b0572a649deb553d104f6ecacb6695af43d82803e903d91603657fd5bf377777cc68b333a2256b436d675e8d257699aa667828223b512bf1892229fec61c5c1376bded3a285000000000000000000000000000000000000000000000000000000003b9aca00000000000000000000000000000000000000000000000000000000006764b78401d69484e9dabafa2381d8f119876e2ae1be1be10bbe070bd7c40b7e8180a55a350089"
        }
      ],
      "isFixedGasLimit": false
    }
  ],
  "receipts": [
    {
      "status": "0x1",
      "cumulativeGasUsed": "0x8cbfc",
      "logs": [
        {
          "address": "0x828223b512bf1892229fec61c5c1376bded3a285",
          "topics": [
            "0x0c001567d2743a4cf169e9e0f5f5fc1e1d2e9b95b02d2d22a5ae74c499481cf7",
            "0x0000000000000000000000000000000000000000000000000000000000000002",
            "0xd69484e9dabafa2381d8f119876e2ae1be1be10bbe070bd7c40b7e8180a55a35",
            "0x000000000000000000000000488327236b65c61a6c083e8d811a4e0d3d1d4268"
          ],
          "data": "0x000000000000000000000000000000000000000000000000000000000049d40000000000000000000000000000000000000000000000000000038d7ea4c680000000000000000000000000000000000000000000000000000000000000000002",
          "blockHash": "0xc6d62d0140d987a4307158e459504d75efbb634b402559af4069334ad76133ad",
          "blockNumber": "0x12203ef",
          "transactionHash": "0xf6669ac1bc150ad0e851656f90a813021cedd0746c2eac56f5464e635e63b0b8",
          "transactionIndex": "0x4",
          "logIndex": "0x4",
          "removed": false
        }
      ],
      "logsBloom": "0x04000000000000000000000000000000000000000000000000000000000000000000000000000000000200000000000010000000000000000000000000000000000000000000000000000000000000000000000000000000000000000000000000100000000000000000000000000000000000000000000000002000010000000000000000000000000000000000000000000000000000000000000000000000000000000000000000000100000000020000000010000000000000200000000000000000000000000800000000000000000000000000000000002000000000000000000000000000000000000000000000400000008000000000000000020000",
      "type": "0x2",
      "transactionHash": "0xf6669ac1bc150ad0e851656f90a813021cedd0746c2eac56f5464e635e63b0b8",
      "transactionIndex": "0x4",
      "blockHash": "0xc6d62d0140d987a4307158e459504d75efbb634b402559af4069334ad76133ad",
      "blockNumber": "0x12203ef",
      "gasUsed": "0x58566",
      "effectiveGasPrice": "0xf433b",
      "from": "0x77777cc68b333a2256b436d675e8d257699aa667",
      "to": "0x828223b512bf1892229fec61c5c1376bded3a285",
      "contractAddress": null,
      "l1BaseFeeScalar": "0x1db0",
      "l1BlobBaseFee": "0x2",
      "l1BlobBaseFeeScalar": "0xd2730",
      "l1Fee": "0xb705",
      "l1GasPrice": "0x6c2",
      "l1GasUsed": "0xdce"
    },
    {
      "status": "0x1",
      "cumulativeGasUsed": "0x93ec3",
      "logs": [
        {
          "address": "0x488327236b65c61a6c083e8d811a4e0d3d1d4268",
          "topics": [
            "0x8c5be1e5ebec7d5bd14f71427d1e84f3dd0314c0f7b2291e5b200ac8c7c3b925",
            "0x00000000000000000000000077777cc68b333a2256b436d675e8d257699aa667",
            "0x000000000000000000000000828223b512bf1892229fec61c5c1376bded3a285"
          ],
          "data": "0xffffffffffffffffffffffffffffffffffffffffffffffffffffffffffffffff",
          "blockHash": "0xc6d62d0140d987a4307158e459504d75efbb634b402559af4069334ad76133ad",
          "blockNumber": "0x12203ef",
          "transactionHash": "0xbdd397154e652be9068ce71976cfee01dfddb3e4cce697c63c9f2cdd93abdd9e",
          "transactionIndex": "0x5",
          "logIndex": "0x5",
          "removed": false
        }
      ],
      "logsBloom": "0x00000000000000000000000000000000000000000000000000000000002000000000000000000000000000000000000000000000000000000000000000200000000000000000000000000000000000000000000002000020000000000001000000000000000000000000000000000000000000000000000000000000000000000000000000000000000000000000000000000000000000000000000000100000020000000000000000000000000000000000000000000000000000000000000000000000000000000000000000400000000000000000000000000000000000080010000000000000000000000400000000000000000000000000000000001000",
      "type": "0x2",
      "transactionHash": "0xbdd397154e652be9068ce71976cfee01dfddb3e4cce697c63c9f2cdd93abdd9e",
      "transactionIndex": "0x5",
      "blockHash": "0xc6d62d0140d987a4307158e459504d75efbb634b402559af4069334ad76133ad",
      "blockNumber": "0x12203ef",
      "gasUsed": "0x72c7",
      "effectiveGasPrice": "0xf433b",
      "from": "0x77777cc68b333a2256b436d675e8d257699aa667",
      "to": "0x488327236b65c61a6c083e8d811a4e0d3d1d4268",
      "contractAddress": null,
      "l1BaseFeeScalar": "0x1db0",
      "l1BlobBaseFee": "0x2",
      "l1BlobBaseFeeScalar": "0xd2730",
      "l1Fee": "0x52d9",
      "l1GasPrice": "0x6c2",
      "l1GasUsed": "0x640"
    },
    {
      "status": "0x1",
      "cumulativeGasUsed": "0xe1edc",
      "logs": [
        {
          "address": "0x488327236b65c61a6c083e8d811a4e0d3d1d4268",
          "topics": [
            "0xddf252ad1be2c89b69c2b068fc378daa952ba7f163c4a11628f55a4df523b3ef",
            "0x00000000000000000000000077777cc68b333a2256b436d675e8d257699aa667",
            "0x000000000000000000000000828223b512bf1892229fec61c5c1376bded3a285"
          ],
          "data": "0x0000000000000000000000000000000000000000000000000000000005f5e0fe",
          "blockHash": "0xc6d62d0140d987a4307158e459504d75efbb634b402559af4069334ad76133ad",
          "blockNumber": "0x12203ef",
          "transactionHash": "0x8e0ac9579da0becd4ca9a00235d2d4817951362b5c5a217c270f449fcc66b85a",
          "transactionIndex": "0x6",
          "logIndex": "0x6",
          "removed": false
        },
        {
          "address": "0x488327236b65c61a6c083e8d811a4e0d3d1d4268",
          "topics": [
            "0x8c5be1e5ebec7d5bd14f71427d1e84f3dd0314c0f7b2291e5b200ac8c7c3b925",
            "0x00000000000000000000000077777cc68b333a2256b436d675e8d257699aa667",
            "0x000000000000000000000000828223b512bf1892229fec61c5c1376bded3a285"
          ],
          "data": "0xfffffffffffffffffffffffffffffffffffffffffffffffffffffffffa0a1f01",
          "blockHash": "0xc6d62d0140d987a4307158e459504d75efbb634b402559af4069334ad76133ad",
          "blockNumber": "0x12203ef",
          "transactionHash": "0x8e0ac9579da0becd4ca9a00235d2d4817951362b5c5a217c270f449fcc66b85a",
          "transactionIndex": "0x6",
          "logIndex": "0x7",
          "removed": false
        },
        {
          "address": "0x828223b512bf1892229fec61c5c1376bded3a285",
          "topics": [
            "0x8af8940e37a50e2b056ce39d3079e6de3234015e7ae27f873041c2bed0904794",
            "0x0000000000000000000000000000000000000000000000000000000000000001",
            "0xb3c7a2ba79dadd20ecb65d95d775121b378fdacef62aea2553652b0626596b6e",
            "0xd69484e9dabafa2381d8f119876e2ae1be1be10bbe070bd7c40b7e8180a55a35"
          ],
          "data": "0x00000000000000000000000000000000000000000000000000000002540be40000000000000000000000000000000000000000000000000000000000000000c000000000000000000000000000000000000000000000000000000000000001000000000000000000000000000000000000000000000000000000000000000140000000000000000000000000000000000000000000000000000000000000018000000000000000000000000000000000000000000000000000000000672d585a0000000000000000000000000000000000000000000000000000000000000001000000000000000000000000488327236b65c61a6c083e8d811a4e0d3d1d426800000000000000000000000000000000000000000000000000000000000000010000000000000000000000000000000000000000000000000000000005e546e0000000000000000000000000000000000000000000000000000000000000000100000000000000000000000000000000000000000000000000000000000f17bf0000000000000000000000000000000000000000000000000000000000000001000000000000000000000000000000000000000000000000000000000001825f",
          "blockHash": "0xc6d62d0140d987a4307158e459504d75efbb634b402559af4069334ad76133ad",
          "blockNumber": "0x12203ef",
          "transactionHash": "0x8e0ac9579da0becd4ca9a00235d2d4817951362b5c5a217c270f449fcc66b85a",
          "transactionIndex": "0x6",
          "logIndex": "0x8",
          "removed": false
        }
      ],
      "logsBloom": "0x00000000000000000000000000000000000800000000000000000000002000000000000000000000000200000000000001000000000000000000000000240000000000000000000000000008000000000000000002040020000000000001000000100000000000000000000000010000000000000000000000000410000000000000000000000000000000000000000000000000000000000000000000100000020000000000001000000000000000020000000010000000000000000000000000000002000000000800000000400000000000000000000000000000000040080010200000000000000000000400000000000000000000000000000000021000",
      "type": "0x2",
      "transactionHash": "0x8e0ac9579da0becd4ca9a00235d2d4817951362b5c5a217c270f449fcc66b85a",
      "transactionIndex": "0x6",
      "blockHash": "0xc6d62d0140d987a4307158e459504d75efbb634b402559af4069334ad76133ad",
      "blockNumber": "0x12203ef",
      "gasUsed": "0x4e019",
      "effectiveGasPrice": "0xf433b",
      "from": "0x77777cc68b333a2256b436d675e8d257699aa667",
      "to": "0x828223b512bf1892229fec61c5c1376bded3a285",
      "contractAddress": null,
      "l1BaseFeeScalar": "0x1db0",
      "l1BlobBaseFee": "0x2",
      "l1BlobBaseFeeScalar": "0xd2730",
      "l1Fee": "0x8045",
      "l1GasPrice": "0x6c2",
      "l1GasUsed": "0x9ad"
    },
    {
      "status": "0x1",
      "cumulativeGasUsed": "0x14df6f",
      "logs": [
        {
          "address": "0x488327236b65c61a6c083e8d811a4e0d3d1d4268",
          "topics": [
            "0xddf252ad1be2c89b69c2b068fc378daa952ba7f163c4a11628f55a4df523b3ef",
            "0x00000000000000000000000077777cc68b333a2256b436d675e8d257699aa667",
            "0x000000000000000000000000513b4d973a50f871bdf9e27586150ac3d5146bfd"
          ],
          "data": "0x000000000000000000000000000000000000000000000000000000003b9aca00",
          "blockHash": "0xc6d62d0140d987a4307158e459504d75efbb634b402559af4069334ad76133ad",
          "blockNumber": "0x12203ef",
          "transactionHash": "0xc911bd882635cd8e49c240b73a2e6d9df9025bb0a35e8c5a07a3eb31d42717ab",
          "transactionIndex": "0x7",
          "logIndex": "0x9",
          "removed": false
        },
        {
          "address": "0x488327236b65c61a6c083e8d811a4e0d3d1d4268",
          "topics": [
            "0x8c5be1e5ebec7d5bd14f71427d1e84f3dd0314c0f7b2291e5b200ac8c7c3b925",
            "0x00000000000000000000000077777cc68b333a2256b436d675e8d257699aa667",
            "0x000000000000000000000000828223b512bf1892229fec61c5c1376bded3a285"
          ],
          "data": "0xffffffffffffffffffffffffffffffffffffffffffffffffffffffffbe6f5501",
          "blockHash": "0xc6d62d0140d987a4307158e459504d75efbb634b402559af4069334ad76133ad",
          "blockNumber": "0x12203ef",
          "transactionHash": "0xc911bd882635cd8e49c240b73a2e6d9df9025bb0a35e8c5a07a3eb31d42717ab",
          "transactionIndex": "0x7",
          "logIndex": "0xa",
          "removed": false
        },
        {
          "address": "0x488327236b65c61a6c083e8d811a4e0d3d1d4268",
          "topics": [
            "0x8c5be1e5ebec7d5bd14f71427d1e84f3dd0314c0f7b2291e5b200ac8c7c3b925",
            "0x000000000000000000000000513b4d973a50f871bdf9e27586150ac3d5146bfd",
            "0x000000000000000000000000844f6b31f7d1240134b3d63ffc2b6f1c7f2612b6"
          ],
          "data": "0x000000000000000000000000000000000000000000000000000000003b9aca00",
          "blockHash": "0xc6d62d0140d987a4307158e459504d75efbb634b402559af4069334ad76133ad",
          "blockNumber": "0x12203ef",
          "transactionHash": "0xc911bd882635cd8e49c240b73a2e6d9df9025bb0a35e8c5a07a3eb31d42717ab",
          "transactionIndex": "0x7",
          "logIndex": "0xb",
          "removed": false
        },
        {
          "address": "0x488327236b65c61a6c083e8d811a4e0d3d1d4268",
          "topics": [
            "0xddf252ad1be2c89b69c2b068fc378daa952ba7f163c4a11628f55a4df523b3ef",
            "0x000000000000000000000000513b4d973a50f871bdf9e27586150ac3d5146bfd",
            "0x000000000000000000000000844f6b31f7d1240134b3d63ffc2b6f1c7f2612b6"
          ],
          "data": "0x000000000000000000000000000000000000000000000000000000003b9aca00",
          "blockHash": "0xc6d62d0140d987a4307158e459504d75efbb634b402559af4069334ad76133ad",
          "blockNumber": "0x12203ef",
          "transactionHash": "0xc911bd882635cd8e49c240b73a2e6d9df9025bb0a35e8c5a07a3eb31d42717ab",
          "transactionIndex": "0x7",
          "logIndex": "0xc",
          "removed": false
        },
        {
          "address": "0x488327236b65c61a6c083e8d811a4e0d3d1d4268",
          "topics": [
            "0x8c5be1e5ebec7d5bd14f71427d1e84f3dd0314c0f7b2291e5b200ac8c7c3b925",
            "0x000000000000000000000000513b4d973a50f871bdf9e27586150ac3d5146bfd",
            "0x000000000000000000000000844f6b31f7d1240134b3d63ffc2b6f1c7f2612b6"
          ],
          "data": "0x0000000000000000000000000000000000000000000000000000000000000000",
          "blockHash": "0xc6d62d0140d987a4307158e459504d75efbb634b402559af4069334ad76133ad",
          "blockNumber": "0x12203ef",
          "transactionHash": "0xc911bd882635cd8e49c240b73a2e6d9df9025bb0a35e8c5a07a3eb31d42717ab",
          "transactionIndex": "0x7",
          "logIndex": "0xd",
          "removed": false
        },
        {
          "address": "0x844f6b31f7d1240134b3d63ffc2b6f1c7f2612b6",
          "topics": [
            "0x6c7131e79092f16af04daf787c07a4dc80e7ae1a95dbe1cc1a310cfe1619d2db",
            "0xd69484e9dabafa2381d8f119876e2ae1be1be10bbe070bd7c40b7e8180a55a35"
          ],
          "data": "0x000000000000000000000000513b4d973a50f871bdf9e27586150ac3d5146bfd000000000000000000000000000000000000000000000000000000003b9aca00",
          "blockHash": "0xc6d62d0140d987a4307158e459504d75efbb634b402559af4069334ad76133ad",
          "blockNumber": "0x12203ef",
          "transactionHash": "0xc911bd882635cd8e49c240b73a2e6d9df9025bb0a35e8c5a07a3eb31d42717ab",
          "transactionIndex": "0x7",
          "logIndex": "0xe",
          "removed": false
        },
        {
          "address": "0x828223b512bf1892229fec61c5c1376bded3a285",
          "topics": [
            "0xce3ef9786e3b9388efc900e4e0a070185cebb023f778aa7688f8c71af67395de",
            "0xb3c7a2ba79dadd20ecb65d95d775121b378fdacef62aea2553652b0626596b6e"
          ],
          "data": "0x000000000000000000000000000000000000000000000000000000003b9aca00000000000000000000000000513b4d973a50f871bdf9e27586150ac3d5146bfd00000000000000000000000000000000000000000000000000000000000000a000000000000000000000000000000000000000000000000000000000000000e000000000000000000000000000000000000000000000000000000000000001200000000000000000000000000000000000000000000000000000000000000001000000000000000000000000000000000000000000000000000000000096ed7c0000000000000000000000000000000000000000000000000000000000000001000000000000000000000000000000000000000000000000000000000001825f000000000000000000000000000000000000000000000000000000000000000100000000000000000000000000000000000000000000000000000000000026a3",
          "blockHash": "0xc6d62d0140d987a4307158e459504d75efbb634b402559af4069334ad76133ad",
          "blockNumber": "0x12203ef",
          "transactionHash": "0xc911bd882635cd8e49c240b73a2e6d9df9025bb0a35e8c5a07a3eb31d42717ab",
          "transactionIndex": "0x7",
          "logIndex": "0xf",
          "removed": false
        }
      ],
      "logsBloom": "0x00000000002000000000000000000000000800000000000000000000002000000000000000000000000240000000000000000000000000000000000022200000000000000000000000000008000000000000000002008020000000000001000000100000000000000000000000010000000000000000000000000410000000000000000000000000800000400000000000000000000000000000000000100000020000000080000000000000000000020000000010000000000000000000000000004006000000000800000000400000000000000000001000000000000000080010000000000001000000000400000000000200000000000000000000821000",
      "type": "0x2",
      "transactionHash": "0xc911bd882635cd8e49c240b73a2e6d9df9025bb0a35e8c5a07a3eb31d42717ab",
      "transactionIndex": "0x7",
      "blockHash": "0xc6d62d0140d987a4307158e459504d75efbb634b402559af4069334ad76133ad",
      "blockNumber": "0x12203ef",
      "gasUsed": "0x6c093",
      "effectiveGasPrice": "0xf433b",
      "from": "0x77777cc68b333a2256b436d675e8d257699aa667",
      "to": "0x828223b512bf1892229fec61c5c1376bded3a285",
      "contractAddress": null,
      "l1BaseFeeScalar": "0x1db0",
      "l1BlobBaseFee": "0x2",
      "l1BlobBaseFeeScalar": "0xd2730",
      "l1Fee": "0x6d8f",
      "l1GasPrice": "0x6c2",
      "l1GasUsed": "0x843"
    },
    {
      "status": "0x1",
      "cumulativeGasUsed": "0x1ba002",
      "logs": [
        {
          "address": "0x488327236b65c61a6c083e8d811a4e0d3d1d4268",
          "topics": [
            "0xddf252ad1be2c89b69c2b068fc378daa952ba7f163c4a11628f55a4df523b3ef",
            "0x00000000000000000000000077777cc68b333a2256b436d675e8d257699aa667",
            "0x000000000000000000000000a216fcc29148a8289c01d3306fcf6f6657719ef4"
          ],
          "data": "0x000000000000000000000000000000000000000000000000000000003b9aca00",
          "blockHash": "0xc6d62d0140d987a4307158e459504d75efbb634b402559af4069334ad76133ad",
          "blockNumber": "0x12203ef",
          "transactionHash": "0x4b40dfcfc9dc224ab0f3fd0fdaa50b20d3077f2a4d2bd1f572fc66c228048061",
          "transactionIndex": "0x8",
          "logIndex": "0x10",
          "removed": false
        },
        {
          "address": "0x488327236b65c61a6c083e8d811a4e0d3d1d4268",
          "topics": [
            "0x8c5be1e5ebec7d5bd14f71427d1e84f3dd0314c0f7b2291e5b200ac8c7c3b925",
            "0x00000000000000000000000077777cc68b333a2256b436d675e8d257699aa667",
            "0x000000000000000000000000828223b512bf1892229fec61c5c1376bded3a285"
          ],
          "data": "0xffffffffffffffffffffffffffffffffffffffffffffffffffffffff82d48b01",
          "blockHash": "0xc6d62d0140d987a4307158e459504d75efbb634b402559af4069334ad76133ad",
          "blockNumber": "0x12203ef",
          "transactionHash": "0x4b40dfcfc9dc224ab0f3fd0fdaa50b20d3077f2a4d2bd1f572fc66c228048061",
          "transactionIndex": "0x8",
          "logIndex": "0x11",
          "removed": false
        },
        {
          "address": "0x488327236b65c61a6c083e8d811a4e0d3d1d4268",
          "topics": [
            "0x8c5be1e5ebec7d5bd14f71427d1e84f3dd0314c0f7b2291e5b200ac8c7c3b925",
            "0x000000000000000000000000a216fcc29148a8289c01d3306fcf6f6657719ef4",
            "0x000000000000000000000000844f6b31f7d1240134b3d63ffc2b6f1c7f2612b6"
          ],
          "data": "0x000000000000000000000000000000000000000000000000000000003b9aca00",
          "blockHash": "0xc6d62d0140d987a4307158e459504d75efbb634b402559af4069334ad76133ad",
          "blockNumber": "0x12203ef",
          "transactionHash": "0x4b40dfcfc9dc224ab0f3fd0fdaa50b20d3077f2a4d2bd1f572fc66c228048061",
          "transactionIndex": "0x8",
          "logIndex": "0x12",
          "removed": false
        },
        {
          "address": "0x488327236b65c61a6c083e8d811a4e0d3d1d4268",
          "topics": [
            "0xddf252ad1be2c89b69c2b068fc378daa952ba7f163c4a11628f55a4df523b3ef",
            "0x000000000000000000000000a216fcc29148a8289c01d3306fcf6f6657719ef4",
            "0x000000000000000000000000844f6b31f7d1240134b3d63ffc2b6f1c7f2612b6"
          ],
          "data": "0x000000000000000000000000000000000000000000000000000000003b9aca00",
          "blockHash": "0xc6d62d0140d987a4307158e459504d75efbb634b402559af4069334ad76133ad",
          "blockNumber": "0x12203ef",
          "transactionHash": "0x4b40dfcfc9dc224ab0f3fd0fdaa50b20d3077f2a4d2bd1f572fc66c228048061",
          "transactionIndex": "0x8",
          "logIndex": "0x13",
          "removed": false
        },
        {
          "address": "0x488327236b65c61a6c083e8d811a4e0d3d1d4268",
          "topics": [
            "0x8c5be1e5ebec7d5bd14f71427d1e84f3dd0314c0f7b2291e5b200ac8c7c3b925",
            "0x000000000000000000000000a216fcc29148a8289c01d3306fcf6f6657719ef4",
            "0x000000000000000000000000844f6b31f7d1240134b3d63ffc2b6f1c7f2612b6"
          ],
          "data": "0x0000000000000000000000000000000000000000000000000000000000000000",
          "blockHash": "0xc6d62d0140d987a4307158e459504d75efbb634b402559af4069334ad76133ad",
          "blockNumber": "0x12203ef",
          "transactionHash": "0x4b40dfcfc9dc224ab0f3fd0fdaa50b20d3077f2a4d2bd1f572fc66c228048061",
          "transactionIndex": "0x8",
          "logIndex": "0x14",
          "removed": false
        },
        {
          "address": "0x844f6b31f7d1240134b3d63ffc2b6f1c7f2612b6",
          "topics": [
            "0x6c7131e79092f16af04daf787c07a4dc80e7ae1a95dbe1cc1a310cfe1619d2db",
            "0xd69484e9dabafa2381d8f119876e2ae1be1be10bbe070bd7c40b7e8180a55a35"
          ],
          "data": "0x000000000000000000000000a216fcc29148a8289c01d3306fcf6f6657719ef4000000000000000000000000000000000000000000000000000000003b9aca00",
          "blockHash": "0xc6d62d0140d987a4307158e459504d75efbb634b402559af4069334ad76133ad",
          "blockNumber": "0x12203ef",
          "transactionHash": "0x4b40dfcfc9dc224ab0f3fd0fdaa50b20d3077f2a4d2bd1f572fc66c228048061",
          "transactionIndex": "0x8",
          "logIndex": "0x15",
          "removed": false
        },
        {
          "address": "0x828223b512bf1892229fec61c5c1376bded3a285",
          "topics": [
            "0xce3ef9786e3b9388efc900e4e0a070185cebb023f778aa7688f8c71af67395de",
            "0xb3c7a2ba79dadd20ecb65d95d775121b378fdacef62aea2553652b0626596b6e"
          ],
          "data": "0x000000000000000000000000000000000000000000000000000000003b9aca00000000000000000000000000a216fcc29148a8289c01d3306fcf6f6657719ef400000000000000000000000000000000000000000000000000000000000000a000000000000000000000000000000000000000000000000000000000000000e000000000000000000000000000000000000000000000000000000000000001200000000000000000000000000000000000000000000000000000000000000001000000000000000000000000000000000000000000000000000000000096ed7c0000000000000000000000000000000000000000000000000000000000000001000000000000000000000000000000000000000000000000000000000001825f000000000000000000000000000000000000000000000000000000000000000100000000000000000000000000000000000000000000000000000000000026a3",
          "blockHash": "0xc6d62d0140d987a4307158e459504d75efbb634b402559af4069334ad76133ad",
          "blockNumber": "0x12203ef",
          "transactionHash": "0x4b40dfcfc9dc224ab0f3fd0fdaa50b20d3077f2a4d2bd1f572fc66c228048061",
          "transactionIndex": "0x8",
          "logIndex": "0x16",
          "removed": false
        }
      ],
      "logsBloom": "0x00000000002000000000000000000000000800000000000000000000003000000000000000000000000200000000000000000000000000000000000022200000000000000000000000000008000000000000000002008020000000000001000000100000000000000000000000010000000000000000000000000410000000000000000000000000800000400000000000000000000000000000000000100000020002000080000000000000000000020000000010000000000000000000000000004002000000000800000000400000000000000000000400000000000000080010000000000001000000000400000000000200000000000000000000821000",
      "type": "0x2",
      "transactionHash": "0x4b40dfcfc9dc224ab0f3fd0fdaa50b20d3077f2a4d2bd1f572fc66c228048061",
      "transactionIndex": "0x8",
      "blockHash": "0xc6d62d0140d987a4307158e459504d75efbb634b402559af4069334ad76133ad",
      "blockNumber": "0x12203ef",
      "gasUsed": "0x6c093",
      "effectiveGasPrice": "0xf433b",
      "from": "0x77777cc68b333a2256b436d675e8d257699aa667",
      "to": "0x828223b512bf1892229fec61c5c1376bded3a285",
      "contractAddress": null,
      "l1BaseFeeScalar": "0x1db0",
      "l1BlobBaseFee": "0x2",
      "l1BlobBaseFeeScalar": "0xd2730",
      "l1Fee": "0x6d8f",
      "l1GasPrice": "0x6c2",
      "l1GasUsed": "0x843"
    },
    {
      "status": "0x1",
      "cumulativeGasUsed": "0x226095",
      "logs": [
        {
          "address": "0x488327236b65c61a6c083e8d811a4e0d3d1d4268",
          "topics": [
            "0xddf252ad1be2c89b69c2b068fc378daa952ba7f163c4a11628f55a4df523b3ef",
            "0x00000000000000000000000077777cc68b333a2256b436d675e8d257699aa667",
            "0x00000000000000000000000035a8b874b5d7937cbc968c506f0ac6d6621a3f93"
          ],
          "data": "0x000000000000000000000000000000000000000000000000000000003b9aca00",
          "blockHash": "0xc6d62d0140d987a4307158e459504d75efbb634b402559af4069334ad76133ad",
          "blockNumber": "0x12203ef",
          "transactionHash": "0x0cf5ebc22937762cfc3ad5253f8d37c64c6c55e26951d16378ceb80a1034246e",
          "transactionIndex": "0x9",
          "logIndex": "0x17",
          "removed": false
        },
        {
          "address": "0x488327236b65c61a6c083e8d811a4e0d3d1d4268",
          "topics": [
            "0x8c5be1e5ebec7d5bd14f71427d1e84f3dd0314c0f7b2291e5b200ac8c7c3b925",
            "0x00000000000000000000000077777cc68b333a2256b436d675e8d257699aa667",
            "0x000000000000000000000000828223b512bf1892229fec61c5c1376bded3a285"
          ],
          "data": "0xffffffffffffffffffffffffffffffffffffffffffffffffffffffff4739c101",
          "blockHash": "0xc6d62d0140d987a4307158e459504d75efbb634b402559af4069334ad76133ad",
          "blockNumber": "0x12203ef",
          "transactionHash": "0x0cf5ebc22937762cfc3ad5253f8d37c64c6c55e26951d16378ceb80a1034246e",
          "transactionIndex": "0x9",
          "logIndex": "0x18",
          "removed": false
        },
        {
          "address": "0x488327236b65c61a6c083e8d811a4e0d3d1d4268",
          "topics": [
            "0x8c5be1e5ebec7d5bd14f71427d1e84f3dd0314c0f7b2291e5b200ac8c7c3b925",
            "0x00000000000000000000000035a8b874b5d7937cbc968c506f0ac6d6621a3f93",
            "0x000000000000000000000000844f6b31f7d1240134b3d63ffc2b6f1c7f2612b6"
          ],
          "data": "0x000000000000000000000000000000000000000000000000000000003b9aca00",
          "blockHash": "0xc6d62d0140d987a4307158e459504d75efbb634b402559af4069334ad76133ad",
          "blockNumber": "0x12203ef",
          "transactionHash": "0x0cf5ebc22937762cfc3ad5253f8d37c64c6c55e26951d16378ceb80a1034246e",
          "transactionIndex": "0x9",
          "logIndex": "0x19",
          "removed": false
        },
        {
          "address": "0x488327236b65c61a6c083e8d811a4e0d3d1d4268",
          "topics": [
            "0xddf252ad1be2c89b69c2b068fc378daa952ba7f163c4a11628f55a4df523b3ef",
            "0x00000000000000000000000035a8b874b5d7937cbc968c506f0ac6d6621a3f93",
            "0x000000000000000000000000844f6b31f7d1240134b3d63ffc2b6f1c7f2612b6"
          ],
          "data": "0x000000000000000000000000000000000000000000000000000000003b9aca00",
          "blockHash": "0xc6d62d0140d987a4307158e459504d75efbb634b402559af4069334ad76133ad",
          "blockNumber": "0x12203ef",
          "transactionHash": "0x0cf5ebc22937762cfc3ad5253f8d37c64c6c55e26951d16378ceb80a1034246e",
          "transactionIndex": "0x9",
          "logIndex": "0x1a",
          "removed": false
        },
        {
          "address": "0x488327236b65c61a6c083e8d811a4e0d3d1d4268",
          "topics": [
            "0x8c5be1e5ebec7d5bd14f71427d1e84f3dd0314c0f7b2291e5b200ac8c7c3b925",
            "0x00000000000000000000000035a8b874b5d7937cbc968c506f0ac6d6621a3f93",
            "0x000000000000000000000000844f6b31f7d1240134b3d63ffc2b6f1c7f2612b6"
          ],
          "data": "0x0000000000000000000000000000000000000000000000000000000000000000",
          "blockHash": "0xc6d62d0140d987a4307158e459504d75efbb634b402559af4069334ad76133ad",
          "blockNumber": "0x12203ef",
          "transactionHash": "0x0cf5ebc22937762cfc3ad5253f8d37c64c6c55e26951d16378ceb80a1034246e",
          "transactionIndex": "0x9",
          "logIndex": "0x1b",
          "removed": false
        },
        {
          "address": "0x844f6b31f7d1240134b3d63ffc2b6f1c7f2612b6",
          "topics": [
            "0x6c7131e79092f16af04daf787c07a4dc80e7ae1a95dbe1cc1a310cfe1619d2db",
            "0xd69484e9dabafa2381d8f119876e2ae1be1be10bbe070bd7c40b7e8180a55a35"
          ],
          "data": "0x00000000000000000000000035a8b874b5d7937cbc968c506f0ac6d6621a3f93000000000000000000000000000000000000000000000000000000003b9aca00",
          "blockHash": "0xc6d62d0140d987a4307158e459504d75efbb634b402559af4069334ad76133ad",
          "blockNumber": "0x12203ef",
          "transactionHash": "0x0cf5ebc22937762cfc3ad5253f8d37c64c6c55e26951d16378ceb80a1034246e",
          "transactionIndex": "0x9",
          "logIndex": "0x1c",
          "removed": false
        },
        {
          "address": "0x828223b512bf1892229fec61c5c1376bded3a285",
          "topics": [
            "0xce3ef9786e3b9388efc900e4e0a070185cebb023f778aa7688f8c71af67395de",
            "0xb3c7a2ba79dadd20ecb65d95d775121b378fdacef62aea2553652b0626596b6e"
          ],
          "data": "0x000000000000000000000000000000000000000000000000000000003b9aca0000000000000000000000000035a8b874b5d7937cbc968c506f0ac6d6621a3f9300000000000000000000000000000000000000000000000000000000000000a000000000000000000000000000000000000000000000000000000000000000e000000000000000000000000000000000000000000000000000000000000001200000000000000000000000000000000000000000000000000000000000000001000000000000000000000000000000000000000000000000000000000096ed7c0000000000000000000000000000000000000000000000000000000000000001000000000000000000000000000000000000000000000000000000000001825f000000000000000000000000000000000000000000000000000000000000000100000000000000000000000000000000000000000000000000000000000026a3",
          "blockHash": "0xc6d62d0140d987a4307158e459504d75efbb634b402559af4069334ad76133ad",
          "blockNumber": "0x12203ef",
          "transactionHash": "0x0cf5ebc22937762cfc3ad5253f8d37c64c6c55e26951d16378ceb80a1034246e",
          "transactionIndex": "0x9",
          "logIndex": "0x1d",
          "removed": false
        }
      ],
      "logsBloom": "0x00000000002000000000000000000000000800000000000000000000002000000000000000000000000200000000000000000000000000000000000022200000000000000000000000000008000000000000000002008020000000000001000000100000000000000000000000010000000000000000000000000410000000000000000000000000800000400000000000000000000000000000000000100000020000000080000000000000000000020000000010000000000000000000001000004003000000000800000000400000000000000004000000000000000000080010000000000001000000000400000000000200000000000000000000821000",
      "type": "0x2",
      "transactionHash": "0x0cf5ebc22937762cfc3ad5253f8d37c64c6c55e26951d16378ceb80a1034246e",
      "transactionIndex": "0x9",
      "blockHash": "0xc6d62d0140d987a4307158e459504d75efbb634b402559af4069334ad76133ad",
      "blockNumber": "0x12203ef",
      "gasUsed": "0x6c093",
      "effectiveGasPrice": "0xf433b",
      "from": "0x77777cc68b333a2256b436d675e8d257699aa667",
      "to": "0x828223b512bf1892229fec61c5c1376bded3a285",
      "contractAddress": null,
      "l1BaseFeeScalar": "0x1db0",
      "l1BlobBaseFee": "0x2",
      "l1BlobBaseFeeScalar": "0xd2730",
      "l1Fee": "0x6d8f",
      "l1GasPrice": "0x6c2",
      "l1GasUsed": "0x843"
    },
    {
      "status": "0x1",
      "cumulativeGasUsed": "0x292128",
      "logs": [
        {
          "address": "0x488327236b65c61a6c083e8d811a4e0d3d1d4268",
          "topics": [
            "0xddf252ad1be2c89b69c2b068fc378daa952ba7f163c4a11628f55a4df523b3ef",
            "0x00000000000000000000000077777cc68b333a2256b436d675e8d257699aa667",
            "0x0000000000000000000000007a23458ad4120ade0c85c8635343a3f6513998fc"
          ],
          "data": "0x000000000000000000000000000000000000000000000000000000003b9aca00",
          "blockHash": "0xc6d62d0140d987a4307158e459504d75efbb634b402559af4069334ad76133ad",
          "blockNumber": "0x12203ef",
          "transactionHash": "0x9992603f6dc93207c40eef2799906f783c9f68cd8bbfd9fcaf2cd84a703d43d1",
          "transactionIndex": "0xa",
          "logIndex": "0x1e",
          "removed": false
        },
        {
          "address": "0x488327236b65c61a6c083e8d811a4e0d3d1d4268",
          "topics": [
            "0x8c5be1e5ebec7d5bd14f71427d1e84f3dd0314c0f7b2291e5b200ac8c7c3b925",
            "0x00000000000000000000000077777cc68b333a2256b436d675e8d257699aa667",
            "0x000000000000000000000000828223b512bf1892229fec61c5c1376bded3a285"
          ],
          "data": "0xffffffffffffffffffffffffffffffffffffffffffffffffffffffff0b9ef701",
          "blockHash": "0xc6d62d0140d987a4307158e459504d75efbb634b402559af4069334ad76133ad",
          "blockNumber": "0x12203ef",
          "transactionHash": "0x9992603f6dc93207c40eef2799906f783c9f68cd8bbfd9fcaf2cd84a703d43d1",
          "transactionIndex": "0xa",
          "logIndex": "0x1f",
          "removed": false
        },
        {
          "address": "0x488327236b65c61a6c083e8d811a4e0d3d1d4268",
          "topics": [
            "0x8c5be1e5ebec7d5bd14f71427d1e84f3dd0314c0f7b2291e5b200ac8c7c3b925",
            "0x0000000000000000000000007a23458ad4120ade0c85c8635343a3f6513998fc",
            "0x000000000000000000000000844f6b31f7d1240134b3d63ffc2b6f1c7f2612b6"
          ],
          "data": "0x000000000000000000000000000000000000000000000000000000003b9aca00",
          "blockHash": "0xc6d62d0140d987a4307158e459504d75efbb634b402559af4069334ad76133ad",
          "blockNumber": "0x12203ef",
          "transactionHash": "0x9992603f6dc93207c40eef2799906f783c9f68cd8bbfd9fcaf2cd84a703d43d1",
          "transactionIndex": "0xa",
          "logIndex": "0x20",
          "removed": false
        },
        {
          "address": "0x488327236b65c61a6c083e8d811a4e0d3d1d4268",
          "topics": [
            "0xddf252ad1be2c89b69c2b068fc378daa952ba7f163c4a11628f55a4df523b3ef",
            "0x0000000000000000000000007a23458ad4120ade0c85c8635343a3f6513998fc",
            "0x000000000000000000000000844f6b31f7d1240134b3d63ffc2b6f1c7f2612b6"
          ],
          "data": "0x000000000000000000000000000000000000000000000000000000003b9aca00",
          "blockHash": "0xc6d62d0140d987a4307158e459504d75efbb634b402559af4069334ad76133ad",
          "blockNumber": "0x12203ef",
          "transactionHash": "0x9992603f6dc93207c40eef2799906f783c9f68cd8bbfd9fcaf2cd84a703d43d1",
          "transactionIndex": "0xa",
          "logIndex": "0x21",
          "removed": false
        },
        {
          "address": "0x488327236b65c61a6c083e8d811a4e0d3d1d4268",
          "topics": [
            "0x8c5be1e5ebec7d5bd14f71427d1e84f3dd0314c0f7b2291e5b200ac8c7c3b925",
            "0x0000000000000000000000007a23458ad4120ade0c85c8635343a3f6513998fc",
            "0x000000000000000000000000844f6b31f7d1240134b3d63ffc2b6f1c7f2612b6"
          ],
          "data": "0x0000000000000000000000000000000000000000000000000000000000000000",
          "blockHash": "0xc6d62d0140d987a4307158e459504d75efbb634b402559af4069334ad76133ad",
          "blockNumber": "0x12203ef",
          "transactionHash": "0x9992603f6dc93207c40eef2799906f783c9f68cd8bbfd9fcaf2cd84a703d43d1",
          "transactionIndex": "0xa",
          "logIndex": "0x22",
          "removed": false
        },
        {
          "address": "0x844f6b31f7d1240134b3d63ffc2b6f1c7f2612b6",
          "topics": [
            "0x6c7131e79092f16af04daf787c07a4dc80e7ae1a95dbe1cc1a310cfe1619d2db",
            "0xd69484e9dabafa2381d8f119876e2ae1be1be10bbe070bd7c40b7e8180a55a35"
          ],
          "data": "0x0000000000000000000000007a23458ad4120ade0c85c8635343a3f6513998fc000000000000000000000000000000000000000000000000000000003b9aca00",
          "blockHash": "0xc6d62d0140d987a4307158e459504d75efbb634b402559af4069334ad76133ad",
          "blockNumber": "0x12203ef",
          "transactionHash": "0x9992603f6dc93207c40eef2799906f783c9f68cd8bbfd9fcaf2cd84a703d43d1",
          "transactionIndex": "0xa",
          "logIndex": "0x23",
          "removed": false
        },
        {
          "address": "0x828223b512bf1892229fec61c5c1376bded3a285",
          "topics": [
            "0xce3ef9786e3b9388efc900e4e0a070185cebb023f778aa7688f8c71af67395de",
            "0xb3c7a2ba79dadd20ecb65d95d775121b378fdacef62aea2553652b0626596b6e"
          ],
          "data": "0x000000000000000000000000000000000000000000000000000000003b9aca000000000000000000000000007a23458ad4120ade0c85c8635343a3f6513998fc00000000000000000000000000000000000000000000000000000000000000a000000000000000000000000000000000000000000000000000000000000000e000000000000000000000000000000000000000000000000000000000000001200000000000000000000000000000000000000000000000000000000000000001000000000000000000000000000000000000000000000000000000000096ed7c0000000000000000000000000000000000000000000000000000000000000001000000000000000000000000000000000000000000000000000000000001825f000000000000000000000000000000000000000000000000000000000000000100000000000000000000000000000000000000000000000000000000000026a3",
          "blockHash": "0xc6d62d0140d987a4307158e459504d75efbb634b402559af4069334ad76133ad",
          "blockNumber": "0x12203ef",
          "transactionHash": "0x9992603f6dc93207c40eef2799906f783c9f68cd8bbfd9fcaf2cd84a703d43d1",
          "transactionIndex": "0xa",
          "logIndex": "0x24",
          "removed": false
        }
      ],
      "logsBloom": "0x00000000002000000000000000000002000800000000000000000000002000000000000000000000000200000000000000000000000000000000000022200000000000000000000000000008000000000000000002008020000000000001000000100000000000000000000000810000000000000000000000000410000000000000000000000000800000400000000000000000040000000000000000100000020000000080000000000000000000020000000010000000000000000000000000004002000000000800000000400000000000000000000000000000000000080010000000000001000000000400000000000200000000000000000000821000",
      "type": "0x2",
      "transactionHash": "0x9992603f6dc93207c40eef2799906f783c9f68cd8bbfd9fcaf2cd84a703d43d1",
      "transactionIndex": "0xa",
      "blockHash": "0xc6d62d0140d987a4307158e459504d75efbb634b402559af4069334ad76133ad",
      "blockNumber": "0x12203ef",
      "gasUsed": "0x6c093",
      "effectiveGasPrice": "0xf433b",
      "from": "0x77777cc68b333a2256b436d675e8d257699aa667",
      "to": "0x828223b512bf1892229fec61c5c1376bded3a285",
      "contractAddress": null,
      "l1BaseFeeScalar": "0x1db0",
      "l1BlobBaseFee": "0x2",
      "l1BlobBaseFeeScalar": "0xd2730",
      "l1Fee": "0x6d8f",
      "l1GasPrice": "0x6c2",
      "l1GasUsed": "0x843"
    },
    {
      "status": "0x1",
      "cumulativeGasUsed": "0x338cdd",
      "logs": [
        {
          "address": "0x488327236b65c61a6c083e8d811a4e0d3d1d4268",
          "topics": [
            "0xddf252ad1be2c89b69c2b068fc378daa952ba7f163c4a11628f55a4df523b3ef",
            "0x00000000000000000000000077777cc68b333a2256b436d675e8d257699aa667",
            "0x0000000000000000000000004561f749d72be9dedf4296ea63b274784b08941c"
          ],
          "data": "0x000000000000000000000000000000000000000000000000000000003b9aca00",
          "blockHash": "0x21ff764583555f5586df30e39cb2eac5467705dd5a300b1d2bdfce803dd7b2a0",
          "blockNumber": "0x12203f0",
          "transactionHash": "0x3a7f06038f3a2f3d6fff2ef1876ee36f2cbc022ce2894b48e3a673ebf83d7bba",
          "transactionIndex": "0x4",
          "logIndex": "0x16",
          "removed": false
        },
        {
          "address": "0x488327236b65c61a6c083e8d811a4e0d3d1d4268",
          "topics": [
            "0x8c5be1e5ebec7d5bd14f71427d1e84f3dd0314c0f7b2291e5b200ac8c7c3b925",
            "0x00000000000000000000000077777cc68b333a2256b436d675e8d257699aa667",
            "0x000000000000000000000000828223b512bf1892229fec61c5c1376bded3a285"
          ],
          "data": "0xfffffffffffffffffffffffffffffffffffffffffffffffffffffffed0042d01",
          "blockHash": "0x21ff764583555f5586df30e39cb2eac5467705dd5a300b1d2bdfce803dd7b2a0",
          "blockNumber": "0x12203f0",
          "transactionHash": "0x3a7f06038f3a2f3d6fff2ef1876ee36f2cbc022ce2894b48e3a673ebf83d7bba",
          "transactionIndex": "0x4",
          "logIndex": "0x17",
          "removed": false
        },
        {
          "address": "0x488327236b65c61a6c083e8d811a4e0d3d1d4268",
          "topics": [
            "0x8c5be1e5ebec7d5bd14f71427d1e84f3dd0314c0f7b2291e5b200ac8c7c3b925",
            "0x0000000000000000000000004561f749d72be9dedf4296ea63b274784b08941c",
            "0x000000000000000000000000844f6b31f7d1240134b3d63ffc2b6f1c7f2612b6"
          ],
          "data": "0x000000000000000000000000000000000000000000000000000000003b9aca00",
          "blockHash": "0x21ff764583555f5586df30e39cb2eac5467705dd5a300b1d2bdfce803dd7b2a0",
          "blockNumber": "0x12203f0",
          "transactionHash": "0x3a7f06038f3a2f3d6fff2ef1876ee36f2cbc022ce2894b48e3a673ebf83d7bba",
          "transactionIndex": "0x4",
          "logIndex": "0x18",
          "removed": false
        },
        {
          "address": "0x488327236b65c61a6c083e8d811a4e0d3d1d4268",
          "topics": [
            "0xddf252ad1be2c89b69c2b068fc378daa952ba7f163c4a11628f55a4df523b3ef",
            "0x0000000000000000000000004561f749d72be9dedf4296ea63b274784b08941c",
            "0x000000000000000000000000844f6b31f7d1240134b3d63ffc2b6f1c7f2612b6"
          ],
          "data": "0x000000000000000000000000000000000000000000000000000000003b9aca00",
          "blockHash": "0x21ff764583555f5586df30e39cb2eac5467705dd5a300b1d2bdfce803dd7b2a0",
          "blockNumber": "0x12203f0",
          "transactionHash": "0x3a7f06038f3a2f3d6fff2ef1876ee36f2cbc022ce2894b48e3a673ebf83d7bba",
          "transactionIndex": "0x4",
          "logIndex": "0x19",
          "removed": false
        },
        {
          "address": "0x488327236b65c61a6c083e8d811a4e0d3d1d4268",
          "topics": [
            "0x8c5be1e5ebec7d5bd14f71427d1e84f3dd0314c0f7b2291e5b200ac8c7c3b925",
            "0x0000000000000000000000004561f749d72be9dedf4296ea63b274784b08941c",
            "0x000000000000000000000000844f6b31f7d1240134b3d63ffc2b6f1c7f2612b6"
          ],
          "data": "0x0000000000000000000000000000000000000000000000000000000000000000",
          "blockHash": "0x21ff764583555f5586df30e39cb2eac5467705dd5a300b1d2bdfce803dd7b2a0",
          "blockNumber": "0x12203f0",
          "transactionHash": "0x3a7f06038f3a2f3d6fff2ef1876ee36f2cbc022ce2894b48e3a673ebf83d7bba",
          "transactionIndex": "0x4",
          "logIndex": "0x1a",
          "removed": false
        },
        {
          "address": "0x844f6b31f7d1240134b3d63ffc2b6f1c7f2612b6",
          "topics": [
            "0x6c7131e79092f16af04daf787c07a4dc80e7ae1a95dbe1cc1a310cfe1619d2db",
            "0xd69484e9dabafa2381d8f119876e2ae1be1be10bbe070bd7c40b7e8180a55a35"
          ],
          "data": "0x0000000000000000000000004561f749d72be9dedf4296ea63b274784b08941c000000000000000000000000000000000000000000000000000000003b9aca00",
          "blockHash": "0x21ff764583555f5586df30e39cb2eac5467705dd5a300b1d2bdfce803dd7b2a0",
          "blockNumber": "0x12203f0",
          "transactionHash": "0x3a7f06038f3a2f3d6fff2ef1876ee36f2cbc022ce2894b48e3a673ebf83d7bba",
          "transactionIndex": "0x4",
          "logIndex": "0x1b",
          "removed": false
        },
        {
          "address": "0x828223b512bf1892229fec61c5c1376bded3a285",
          "topics": [
            "0xce3ef9786e3b9388efc900e4e0a070185cebb023f778aa7688f8c71af67395de",
            "0xb3c7a2ba79dadd20ecb65d95d775121b378fdacef62aea2553652b0626596b6e"
          ],
          "data": "0x000000000000000000000000000000000000000000000000000000003b9aca000000000000000000000000004561f749d72be9dedf4296ea63b274784b08941c00000000000000000000000000000000000000000000000000000000000000a000000000000000000000000000000000000000000000000000000000000000e000000000000000000000000000000000000000000000000000000000000001200000000000000000000000000000000000000000000000000000000000000001000000000000000000000000000000000000000000000000000000000096ed7c0000000000000000000000000000000000000000000000000000000000000001000000000000000000000000000000000000000000000000000000000001825f000000000000000000000000000000000000000000000000000000000000000100000000000000000000000000000000000000000000000000000000000026a3",
          "blockHash": "0x21ff764583555f5586df30e39cb2eac5467705dd5a300b1d2bdfce803dd7b2a0",
          "blockNumber": "0x12203f0",
          "transactionHash": "0x3a7f06038f3a2f3d6fff2ef1876ee36f2cbc022ce2894b48e3a673ebf83d7bba",
          "transactionIndex": "0x4",
          "logIndex": "0x1c",
          "removed": false
        }
      ],
      "logsBloom": "0x00000000002008000000000000000000000800000000000000000000002000000000000000000000000200000000000000000000000000000000000022200000000000000000000000000008000000000000000802008020000000000001000000100000000000000000000000010000000000000000000000000410000000000000000000000000800000400000000000000000000000000000000000100000020000000080000000000000000000020000000010000000000000000000000000004002000000000800000000400000000000000000000000000000000000080010000000000001000000000400000000000200000000000000000000821000",
      "type": "0x2",
      "transactionHash": "0x3a7f06038f3a2f3d6fff2ef1876ee36f2cbc022ce2894b48e3a673ebf83d7bba",
      "transactionIndex": "0x4",
      "blockHash": "0x21ff764583555f5586df30e39cb2eac5467705dd5a300b1d2bdfce803dd7b2a0",
      "blockNumber": "0x12203f0",
      "gasUsed": "0x6c093",
      "effectiveGasPrice": "0xf433b",
      "from": "0x77777cc68b333a2256b436d675e8d257699aa667",
      "to": "0x828223b512bf1892229fec61c5c1376bded3a285",
      "contractAddress": null,
      "l1BaseFeeScalar": "0x1db0",
      "l1BlobBaseFee": "0x2",
      "l1BlobBaseFeeScalar": "0xd2730",
      "l1Fee": "0x6d8f",
      "l1GasPrice": "0x6c2",
      "l1GasUsed": "0x843"
    },
    {
      "status": "0x1",
      "cumulativeGasUsed": "0x3a4d70",
      "logs": [
        {
          "address": "0x488327236b65c61a6c083e8d811a4e0d3d1d4268",
          "topics": [
            "0xddf252ad1be2c89b69c2b068fc378daa952ba7f163c4a11628f55a4df523b3ef",
            "0x00000000000000000000000077777cc68b333a2256b436d675e8d257699aa667",
            "0x00000000000000000000000061dcf2463029b64d85fb550766ec34d1d2e0eb68"
          ],
          "data": "0x000000000000000000000000000000000000000000000000000000003b9aca00",
          "blockHash": "0x21ff764583555f5586df30e39cb2eac5467705dd5a300b1d2bdfce803dd7b2a0",
          "blockNumber": "0x12203f0",
          "transactionHash": "0xa459cc36fb8cd24009ac56feb302af7ec420cadd21a7fac4fe47fe2321071dcd",
          "transactionIndex": "0x5",
          "logIndex": "0x1d",
          "removed": false
        },
        {
          "address": "0x488327236b65c61a6c083e8d811a4e0d3d1d4268",
          "topics": [
            "0x8c5be1e5ebec7d5bd14f71427d1e84f3dd0314c0f7b2291e5b200ac8c7c3b925",
            "0x00000000000000000000000077777cc68b333a2256b436d675e8d257699aa667",
            "0x000000000000000000000000828223b512bf1892229fec61c5c1376bded3a285"
          ],
          "data": "0xfffffffffffffffffffffffffffffffffffffffffffffffffffffffe94696301",
          "blockHash": "0x21ff764583555f5586df30e39cb2eac5467705dd5a300b1d2bdfce803dd7b2a0",
          "blockNumber": "0x12203f0",
          "transactionHash": "0xa459cc36fb8cd24009ac56feb302af7ec420cadd21a7fac4fe47fe2321071dcd",
          "transactionIndex": "0x5",
          "logIndex": "0x1e",
          "removed": false
        },
        {
          "address": "0x488327236b65c61a6c083e8d811a4e0d3d1d4268",
          "topics": [
            "0x8c5be1e5ebec7d5bd14f71427d1e84f3dd0314c0f7b2291e5b200ac8c7c3b925",
            "0x00000000000000000000000061dcf2463029b64d85fb550766ec34d1d2e0eb68",
            "0x000000000000000000000000844f6b31f7d1240134b3d63ffc2b6f1c7f2612b6"
          ],
          "data": "0x000000000000000000000000000000000000000000000000000000003b9aca00",
          "blockHash": "0x21ff764583555f5586df30e39cb2eac5467705dd5a300b1d2bdfce803dd7b2a0",
          "blockNumber": "0x12203f0",
          "transactionHash": "0xa459cc36fb8cd24009ac56feb302af7ec420cadd21a7fac4fe47fe2321071dcd",
          "transactionIndex": "0x5",
          "logIndex": "0x1f",
          "removed": false
        },
        {
          "address": "0x488327236b65c61a6c083e8d811a4e0d3d1d4268",
          "topics": [
            "0xddf252ad1be2c89b69c2b068fc378daa952ba7f163c4a11628f55a4df523b3ef",
            "0x00000000000000000000000061dcf2463029b64d85fb550766ec34d1d2e0eb68",
            "0x000000000000000000000000844f6b31f7d1240134b3d63ffc2b6f1c7f2612b6"
          ],
          "data": "0x000000000000000000000000000000000000000000000000000000003b9aca00",
          "blockHash": "0x21ff764583555f5586df30e39cb2eac5467705dd5a300b1d2bdfce803dd7b2a0",
          "blockNumber": "0x12203f0",
          "transactionHash": "0xa459cc36fb8cd24009ac56feb302af7ec420cadd21a7fac4fe47fe2321071dcd",
          "transactionIndex": "0x5",
          "logIndex": "0x20",
          "removed": false
        },
        {
          "address": "0x488327236b65c61a6c083e8d811a4e0d3d1d4268",
          "topics": [
            "0x8c5be1e5ebec7d5bd14f71427d1e84f3dd0314c0f7b2291e5b200ac8c7c3b925",
            "0x00000000000000000000000061dcf2463029b64d85fb550766ec34d1d2e0eb68",
            "0x000000000000000000000000844f6b31f7d1240134b3d63ffc2b6f1c7f2612b6"
          ],
          "data": "0x0000000000000000000000000000000000000000000000000000000000000000",
          "blockHash": "0x21ff764583555f5586df30e39cb2eac5467705dd5a300b1d2bdfce803dd7b2a0",
          "blockNumber": "0x12203f0",
          "transactionHash": "0xa459cc36fb8cd24009ac56feb302af7ec420cadd21a7fac4fe47fe2321071dcd",
          "transactionIndex": "0x5",
          "logIndex": "0x21",
          "removed": false
        },
        {
          "address": "0x844f6b31f7d1240134b3d63ffc2b6f1c7f2612b6",
          "topics": [
            "0x6c7131e79092f16af04daf787c07a4dc80e7ae1a95dbe1cc1a310cfe1619d2db",
            "0xd69484e9dabafa2381d8f119876e2ae1be1be10bbe070bd7c40b7e8180a55a35"
          ],
          "data": "0x00000000000000000000000061dcf2463029b64d85fb550766ec34d1d2e0eb68000000000000000000000000000000000000000000000000000000003b9aca00",
          "blockHash": "0x21ff764583555f5586df30e39cb2eac5467705dd5a300b1d2bdfce803dd7b2a0",
          "blockNumber": "0x12203f0",
          "transactionHash": "0xa459cc36fb8cd24009ac56feb302af7ec420cadd21a7fac4fe47fe2321071dcd",
          "transactionIndex": "0x5",
          "logIndex": "0x22",
          "removed": false
        },
        {
          "address": "0x828223b512bf1892229fec61c5c1376bded3a285",
          "topics": [
            "0xce3ef9786e3b9388efc900e4e0a070185cebb023f778aa7688f8c71af67395de",
            "0xb3c7a2ba79dadd20ecb65d95d775121b378fdacef62aea2553652b0626596b6e"
          ],
          "data": "0x000000000000000000000000000000000000000000000000000000003b9aca0000000000000000000000000061dcf2463029b64d85fb550766ec34d1d2e0eb6800000000000000000000000000000000000000000000000000000000000000a000000000000000000000000000000000000000000000000000000000000000e000000000000000000000000000000000000000000000000000000000000001200000000000000000000000000000000000000000000000000000000000000001000000000000000000000000000000000000000000000000000000000096ed7c0000000000000000000000000000000000000000000000000000000000000001000000000000000000000000000000000000000000000000000000000001825f000000000000000000000000000000000000000000000000000000000000000100000000000000000000000000000000000000000000000000000000000026a3",
          "blockHash": "0x21ff764583555f5586df30e39cb2eac5467705dd5a300b1d2bdfce803dd7b2a0",
          "blockNumber": "0x12203f0",
          "transactionHash": "0xa459cc36fb8cd24009ac56feb302af7ec420cadd21a7fac4fe47fe2321071dcd",
          "transactionIndex": "0x5",
          "logIndex": "0x23",
          "removed": false
        }
      ],
      "logsBloom": "0x00000000002000000000000000000000000800000000000000000000002000000000000000000000000200000000000000000000000000000000000022200000000000000000000000000008000000000000020002008020000000000001000000100000000000000000000000010000000000000000000000000410000000000000000000000000800010400000000000000000000000000000000000100000020000000080000000000000000000020000000010000000000000000000000000004002000000000800000000400000000000000000000000000000000000080010000000000001000000000400000000000200000000200000000000821000",
      "type": "0x2",
      "transactionHash": "0xa459cc36fb8cd24009ac56feb302af7ec420cadd21a7fac4fe47fe2321071dcd",
      "transactionIndex": "0x5",
      "blockHash": "0x21ff764583555f5586df30e39cb2eac5467705dd5a300b1d2bdfce803dd7b2a0",
      "blockNumber": "0x12203f0",
      "gasUsed": "0x6c093",
      "effectiveGasPrice": "0xf433b",
      "from": "0x77777cc68b333a2256b436d675e8d257699aa667",
      "to": "0x828223b512bf1892229fec61c5c1376bded3a285",
      "contractAddress": null,
      "l1BaseFeeScalar": "0x1db0",
      "l1BlobBaseFee": "0x2",
      "l1BlobBaseFeeScalar": "0xd2730",
      "l1Fee": "0x6d8f",
      "l1GasPrice": "0x6c2",
      "l1GasUsed": "0x843"
    },
    {
      "status": "0x1",
      "cumulativeGasUsed": "0x410e03",
      "logs": [
        {
          "address": "0x488327236b65c61a6c083e8d811a4e0d3d1d4268",
          "topics": [
            "0xddf252ad1be2c89b69c2b068fc378daa952ba7f163c4a11628f55a4df523b3ef",
            "0x00000000000000000000000077777cc68b333a2256b436d675e8d257699aa667",
            "0x000000000000000000000000e66157fabc5d26bf761139f7dbd0e81f11e5ac0a"
          ],
          "data": "0x000000000000000000000000000000000000000000000000000000003b9aca00",
          "blockHash": "0x21ff764583555f5586df30e39cb2eac5467705dd5a300b1d2bdfce803dd7b2a0",
          "blockNumber": "0x12203f0",
          "transactionHash": "0x7687055fc067b020421d503532c03b57107a679edc99afcf512511f84a932c1e",
          "transactionIndex": "0x6",
          "logIndex": "0x24",
          "removed": false
        },
        {
          "address": "0x488327236b65c61a6c083e8d811a4e0d3d1d4268",
          "topics": [
            "0x8c5be1e5ebec7d5bd14f71427d1e84f3dd0314c0f7b2291e5b200ac8c7c3b925",
            "0x00000000000000000000000077777cc68b333a2256b436d675e8d257699aa667",
            "0x000000000000000000000000828223b512bf1892229fec61c5c1376bded3a285"
          ],
          "data": "0xfffffffffffffffffffffffffffffffffffffffffffffffffffffffe58ce9901",
          "blockHash": "0x21ff764583555f5586df30e39cb2eac5467705dd5a300b1d2bdfce803dd7b2a0",
          "blockNumber": "0x12203f0",
          "transactionHash": "0x7687055fc067b020421d503532c03b57107a679edc99afcf512511f84a932c1e",
          "transactionIndex": "0x6",
          "logIndex": "0x25",
          "removed": false
        },
        {
          "address": "0x488327236b65c61a6c083e8d811a4e0d3d1d4268",
          "topics": [
            "0x8c5be1e5ebec7d5bd14f71427d1e84f3dd0314c0f7b2291e5b200ac8c7c3b925",
            "0x000000000000000000000000e66157fabc5d26bf761139f7dbd0e81f11e5ac0a",
            "0x000000000000000000000000844f6b31f7d1240134b3d63ffc2b6f1c7f2612b6"
          ],
          "data": "0x000000000000000000000000000000000000000000000000000000003b9aca00",
          "blockHash": "0x21ff764583555f5586df30e39cb2eac5467705dd5a300b1d2bdfce803dd7b2a0",
          "blockNumber": "0x12203f0",
          "transactionHash": "0x7687055fc067b020421d503532c03b57107a679edc99afcf512511f84a932c1e",
          "transactionIndex": "0x6",
          "logIndex": "0x26",
          "removed": false
        },
        {
          "address": "0x488327236b65c61a6c083e8d811a4e0d3d1d4268",
          "topics": [
            "0xddf252ad1be2c89b69c2b068fc378daa952ba7f163c4a11628f55a4df523b3ef",
            "0x000000000000000000000000e66157fabc5d26bf761139f7dbd0e81f11e5ac0a",
            "0x000000000000000000000000844f6b31f7d1240134b3d63ffc2b6f1c7f2612b6"
          ],
          "data": "0x000000000000000000000000000000000000000000000000000000003b9aca00",
          "blockHash": "0x21ff764583555f5586df30e39cb2eac5467705dd5a300b1d2bdfce803dd7b2a0",
          "blockNumber": "0x12203f0",
          "transactionHash": "0x7687055fc067b020421d503532c03b57107a679edc99afcf512511f84a932c1e",
          "transactionIndex": "0x6",
          "logIndex": "0x27",
          "removed": false
        },
        {
          "address": "0x488327236b65c61a6c083e8d811a4e0d3d1d4268",
          "topics": [
            "0x8c5be1e5ebec7d5bd14f71427d1e84f3dd0314c0f7b2291e5b200ac8c7c3b925",
            "0x000000000000000000000000e66157fabc5d26bf761139f7dbd0e81f11e5ac0a",
            "0x000000000000000000000000844f6b31f7d1240134b3d63ffc2b6f1c7f2612b6"
          ],
          "data": "0x0000000000000000000000000000000000000000000000000000000000000000",
          "blockHash": "0x21ff764583555f5586df30e39cb2eac5467705dd5a300b1d2bdfce803dd7b2a0",
          "blockNumber": "0x12203f0",
          "transactionHash": "0x7687055fc067b020421d503532c03b57107a679edc99afcf512511f84a932c1e",
          "transactionIndex": "0x6",
          "logIndex": "0x28",
          "removed": false
        },
        {
          "address": "0x844f6b31f7d1240134b3d63ffc2b6f1c7f2612b6",
          "topics": [
            "0x6c7131e79092f16af04daf787c07a4dc80e7ae1a95dbe1cc1a310cfe1619d2db",
            "0xd69484e9dabafa2381d8f119876e2ae1be1be10bbe070bd7c40b7e8180a55a35"
          ],
          "data": "0x000000000000000000000000e66157fabc5d26bf761139f7dbd0e81f11e5ac0a000000000000000000000000000000000000000000000000000000003b9aca00",
          "blockHash": "0x21ff764583555f5586df30e39cb2eac5467705dd5a300b1d2bdfce803dd7b2a0",
          "blockNumber": "0x12203f0",
          "transactionHash": "0x7687055fc067b020421d503532c03b57107a679edc99afcf512511f84a932c1e",
          "transactionIndex": "0x6",
          "logIndex": "0x29",
          "removed": false
        },
        {
          "address": "0x828223b512bf1892229fec61c5c1376bded3a285",
          "topics": [
            "0xce3ef9786e3b9388efc900e4e0a070185cebb023f778aa7688f8c71af67395de",
            "0xb3c7a2ba79dadd20ecb65d95d775121b378fdacef62aea2553652b0626596b6e"
          ],
          "data": "0x000000000000000000000000000000000000000000000000000000003b9aca00000000000000000000000000e66157fabc5d26bf761139f7dbd0e81f11e5ac0a00000000000000000000000000000000000000000000000000000000000000a000000000000000000000000000000000000000000000000000000000000000e000000000000000000000000000000000000000000000000000000000000001200000000000000000000000000000000000000000000000000000000000000001000000000000000000000000000000000000000000000000000000000096ed7c0000000000000000000000000000000000000000000000000000000000000001000000000000000000000000000000000000000000000000000000000001825f000000000000000000000000000000000000000000000000000000000000000100000000000000000000000000000000000000000000000000000000000026a3",
          "blockHash": "0x21ff764583555f5586df30e39cb2eac5467705dd5a300b1d2bdfce803dd7b2a0",
          "blockNumber": "0x12203f0",
          "transactionHash": "0x7687055fc067b020421d503532c03b57107a679edc99afcf512511f84a932c1e",
          "transactionIndex": "0x6",
          "logIndex": "0x2a",
          "removed": false
        }
      ],
      "logsBloom": "0x00000000002000000000000000000000000800000000000000000000002000000000000000000000000200000004000000000000000000000000000022200000000000000000000000000008000000000000000002008020000000000001000000100000000000000000080000010000000000000000000000000410000000000000000000000000800000400000000000000000000000000000000000100000020000000080000000000000000000020000000010000000000000000000000000004002000000000800000000400000000000000000000000000000000000080010000000000001000000000400000000000200000020000000000000821000",
      "type": "0x2",
      "transactionHash": "0x7687055fc067b020421d503532c03b57107a679edc99afcf512511f84a932c1e",
      "transactionIndex": "0x6",
      "blockHash": "0x21ff764583555f5586df30e39cb2eac5467705dd5a300b1d2bdfce803dd7b2a0",
      "blockNumber": "0x12203f0",
      "gasUsed": "0x6c093",
      "effectiveGasPrice": "0xf433b",
      "from": "0x77777cc68b333a2256b436d675e8d257699aa667",
      "to": "0x828223b512bf1892229fec61c5c1376bded3a285",
      "contractAddress": null,
      "l1BaseFeeScalar": "0x1db0",
      "l1BlobBaseFee": "0x2",
      "l1BlobBaseFeeScalar": "0xd2730",
      "l1Fee": "0x6d8f",
      "l1GasPrice": "0x6c2",
      "l1GasUsed": "0x843"
    },
    {
      "status": "0x1",
      "cumulativeGasUsed": "0x47ce96",
      "logs": [
        {
          "address": "0x488327236b65c61a6c083e8d811a4e0d3d1d4268",
          "topics": [
            "0xddf252ad1be2c89b69c2b068fc378daa952ba7f163c4a11628f55a4df523b3ef",
            "0x00000000000000000000000077777cc68b333a2256b436d675e8d257699aa667",
            "0x000000000000000000000000cab5b34b9cea9f8726c840e5f77abb4c760afd02"
          ],
          "data": "0x000000000000000000000000000000000000000000000000000000003b9aca00",
          "blockHash": "0x21ff764583555f5586df30e39cb2eac5467705dd5a300b1d2bdfce803dd7b2a0",
          "blockNumber": "0x12203f0",
          "transactionHash": "0x972523d6b0151f3bd6a5c76e9ea0d9af2eb79d19097ffebbf548b811c63e9408",
          "transactionIndex": "0x7",
          "logIndex": "0x2b",
          "removed": false
        },
        {
          "address": "0x488327236b65c61a6c083e8d811a4e0d3d1d4268",
          "topics": [
            "0x8c5be1e5ebec7d5bd14f71427d1e84f3dd0314c0f7b2291e5b200ac8c7c3b925",
            "0x00000000000000000000000077777cc68b333a2256b436d675e8d257699aa667",
            "0x000000000000000000000000828223b512bf1892229fec61c5c1376bded3a285"
          ],
          "data": "0xfffffffffffffffffffffffffffffffffffffffffffffffffffffffe1d33cf01",
          "blockHash": "0x21ff764583555f5586df30e39cb2eac5467705dd5a300b1d2bdfce803dd7b2a0",
          "blockNumber": "0x12203f0",
          "transactionHash": "0x972523d6b0151f3bd6a5c76e9ea0d9af2eb79d19097ffebbf548b811c63e9408",
          "transactionIndex": "0x7",
          "logIndex": "0x2c",
          "removed": false
        },
        {
          "address": "0x488327236b65c61a6c083e8d811a4e0d3d1d4268",
          "topics": [
            "0x8c5be1e5ebec7d5bd14f71427d1e84f3dd0314c0f7b2291e5b200ac8c7c3b925",
            "0x000000000000000000000000cab5b34b9cea9f8726c840e5f77abb4c760afd02",
            "0x000000000000000000000000844f6b31f7d1240134b3d63ffc2b6f1c7f2612b6"
          ],
          "data": "0x000000000000000000000000000000000000000000000000000000003b9aca00",
          "blockHash": "0x21ff764583555f5586df30e39cb2eac5467705dd5a300b1d2bdfce803dd7b2a0",
          "blockNumber": "0x12203f0",
          "transactionHash": "0x972523d6b0151f3bd6a5c76e9ea0d9af2eb79d19097ffebbf548b811c63e9408",
          "transactionIndex": "0x7",
          "logIndex": "0x2d",
          "removed": false
        },
        {
          "address": "0x488327236b65c61a6c083e8d811a4e0d3d1d4268",
          "topics": [
            "0xddf252ad1be2c89b69c2b068fc378daa952ba7f163c4a11628f55a4df523b3ef",
            "0x000000000000000000000000cab5b34b9cea9f8726c840e5f77abb4c760afd02",
            "0x000000000000000000000000844f6b31f7d1240134b3d63ffc2b6f1c7f2612b6"
          ],
          "data": "0x000000000000000000000000000000000000000000000000000000003b9aca00",
          "blockHash": "0x21ff764583555f5586df30e39cb2eac5467705dd5a300b1d2bdfce803dd7b2a0",
          "blockNumber": "0x12203f0",
          "transactionHash": "0x972523d6b0151f3bd6a5c76e9ea0d9af2eb79d19097ffebbf548b811c63e9408",
          "transactionIndex": "0x7",
          "logIndex": "0x2e",
          "removed": false
        },
        {
          "address": "0x488327236b65c61a6c083e8d811a4e0d3d1d4268",
          "topics": [
            "0x8c5be1e5ebec7d5bd14f71427d1e84f3dd0314c0f7b2291e5b200ac8c7c3b925",
            "0x000000000000000000000000cab5b34b9cea9f8726c840e5f77abb4c760afd02",
            "0x000000000000000000000000844f6b31f7d1240134b3d63ffc2b6f1c7f2612b6"
          ],
          "data": "0x0000000000000000000000000000000000000000000000000000000000000000",
          "blockHash": "0x21ff764583555f5586df30e39cb2eac5467705dd5a300b1d2bdfce803dd7b2a0",
          "blockNumber": "0x12203f0",
          "transactionHash": "0x972523d6b0151f3bd6a5c76e9ea0d9af2eb79d19097ffebbf548b811c63e9408",
          "transactionIndex": "0x7",
          "logIndex": "0x2f",
          "removed": false
        },
        {
          "address": "0x844f6b31f7d1240134b3d63ffc2b6f1c7f2612b6",
          "topics": [
            "0x6c7131e79092f16af04daf787c07a4dc80e7ae1a95dbe1cc1a310cfe1619d2db",
            "0xd69484e9dabafa2381d8f119876e2ae1be1be10bbe070bd7c40b7e8180a55a35"
          ],
          "data": "0x000000000000000000000000cab5b34b9cea9f8726c840e5f77abb4c760afd02000000000000000000000000000000000000000000000000000000003b9aca00",
          "blockHash": "0x21ff764583555f5586df30e39cb2eac5467705dd5a300b1d2bdfce803dd7b2a0",
          "blockNumber": "0x12203f0",
          "transactionHash": "0x972523d6b0151f3bd6a5c76e9ea0d9af2eb79d19097ffebbf548b811c63e9408",
          "transactionIndex": "0x7",
          "logIndex": "0x30",
          "removed": false
        },
        {
          "address": "0x828223b512bf1892229fec61c5c1376bded3a285",
          "topics": [
            "0xce3ef9786e3b9388efc900e4e0a070185cebb023f778aa7688f8c71af67395de",
            "0xb3c7a2ba79dadd20ecb65d95d775121b378fdacef62aea2553652b0626596b6e"
          ],
          "data": "0x000000000000000000000000000000000000000000000000000000003b9aca00000000000000000000000000cab5b34b9cea9f8726c840e5f77abb4c760afd0200000000000000000000000000000000000000000000000000000000000000a000000000000000000000000000000000000000000000000000000000000000e000000000000000000000000000000000000000000000000000000000000001200000000000000000000000000000000000000000000000000000000000000001000000000000000000000000000000000000000000000000000000000096ed7c0000000000000000000000000000000000000000000000000000000000000001000000000000000000000000000000000000000000000000000000000001825f000000000000000000000000000000000000000000000000000000000000000100000000000000000000000000000000000000000000000000000000000026a3",
          "blockHash": "0x21ff764583555f5586df30e39cb2eac5467705dd5a300b1d2bdfce803dd7b2a0",
          "blockNumber": "0x12203f0",
          "transactionHash": "0x972523d6b0151f3bd6a5c76e9ea0d9af2eb79d19097ffebbf548b811c63e9408",
          "transactionIndex": "0x7",
          "logIndex": "0x31",
          "removed": false
        }
      ],
      "logsBloom": "0x00000000002000000000000000000000000800000000000000000000002000000000000000000000000200000000000000000000000000000000000022200000000200000000000000000008000000000000000002008020000000000001000000100000000000000000000000010000000000000000000000000410000000000000000000000000800000400000000000000000000000000000000000100000020000000080000000000000000000020000000010000000000000000000000000004002000000000800000000400000000000000000000000000000000000080010000000000001000000000400000000000200000000000000000002821000",
      "type": "0x2",
      "transactionHash": "0x972523d6b0151f3bd6a5c76e9ea0d9af2eb79d19097ffebbf548b811c63e9408",
      "transactionIndex": "0x7",
      "blockHash": "0x21ff764583555f5586df30e39cb2eac5467705dd5a300b1d2bdfce803dd7b2a0",
      "blockNumber": "0x12203f0",
      "gasUsed": "0x6c093",
      "effectiveGasPrice": "0xf433b",
      "from": "0x77777cc68b333a2256b436d675e8d257699aa667",
      "to": "0x828223b512bf1892229fec61c5c1376bded3a285",
      "contractAddress": null,
      "l1BaseFeeScalar": "0x1db0",
      "l1BlobBaseFee": "0x2",
      "l1BlobBaseFeeScalar": "0xd2730",
      "l1Fee": "0x6d8f",
      "l1GasPrice": "0x6c2",
      "l1GasUsed": "0x843"
    },
    {
      "status": "0x1",
      "cumulativeGasUsed": "0x4e8f29",
      "logs": [
        {
          "address": "0x488327236b65c61a6c083e8d811a4e0d3d1d4268",
          "topics": [
            "0xddf252ad1be2c89b69c2b068fc378daa952ba7f163c4a11628f55a4df523b3ef",
            "0x00000000000000000000000077777cc68b333a2256b436d675e8d257699aa667",
            "0x00000000000000000000000057a723886d5bc0cd7efef8c8b8395fb6e15cb0f0"
          ],
          "data": "0x000000000000000000000000000000000000000000000000000000003b9aca00",
          "blockHash": "0x21ff764583555f5586df30e39cb2eac5467705dd5a300b1d2bdfce803dd7b2a0",
          "blockNumber": "0x12203f0",
          "transactionHash": "0x699f3fc9eb35cf190b6c17563f5c465730d349e224b7d1103a0d4d1957a52d36",
          "transactionIndex": "0x8",
          "logIndex": "0x32",
          "removed": false
        },
        {
          "address": "0x488327236b65c61a6c083e8d811a4e0d3d1d4268",
          "topics": [
            "0x8c5be1e5ebec7d5bd14f71427d1e84f3dd0314c0f7b2291e5b200ac8c7c3b925",
            "0x00000000000000000000000077777cc68b333a2256b436d675e8d257699aa667",
            "0x000000000000000000000000828223b512bf1892229fec61c5c1376bded3a285"
          ],
          "data": "0xfffffffffffffffffffffffffffffffffffffffffffffffffffffffde1990501",
          "blockHash": "0x21ff764583555f5586df30e39cb2eac5467705dd5a300b1d2bdfce803dd7b2a0",
          "blockNumber": "0x12203f0",
          "transactionHash": "0x699f3fc9eb35cf190b6c17563f5c465730d349e224b7d1103a0d4d1957a52d36",
          "transactionIndex": "0x8",
          "logIndex": "0x33",
          "removed": false
        },
        {
          "address": "0x488327236b65c61a6c083e8d811a4e0d3d1d4268",
          "topics": [
            "0x8c5be1e5ebec7d5bd14f71427d1e84f3dd0314c0f7b2291e5b200ac8c7c3b925",
            "0x00000000000000000000000057a723886d5bc0cd7efef8c8b8395fb6e15cb0f0",
            "0x000000000000000000000000844f6b31f7d1240134b3d63ffc2b6f1c7f2612b6"
          ],
          "data": "0x000000000000000000000000000000000000000000000000000000003b9aca00",
          "blockHash": "0x21ff764583555f5586df30e39cb2eac5467705dd5a300b1d2bdfce803dd7b2a0",
          "blockNumber": "0x12203f0",
          "transactionHash": "0x699f3fc9eb35cf190b6c17563f5c465730d349e224b7d1103a0d4d1957a52d36",
          "transactionIndex": "0x8",
          "logIndex": "0x34",
          "removed": false
        },
        {
          "address": "0x488327236b65c61a6c083e8d811a4e0d3d1d4268",
          "topics": [
            "0xddf252ad1be2c89b69c2b068fc378daa952ba7f163c4a11628f55a4df523b3ef",
            "0x00000000000000000000000057a723886d5bc0cd7efef8c8b8395fb6e15cb0f0",
            "0x000000000000000000000000844f6b31f7d1240134b3d63ffc2b6f1c7f2612b6"
          ],
          "data": "0x000000000000000000000000000000000000000000000000000000003b9aca00",
          "blockHash": "0x21ff764583555f5586df30e39cb2eac5467705dd5a300b1d2bdfce803dd7b2a0",
          "blockNumber": "0x12203f0",
          "transactionHash": "0x699f3fc9eb35cf190b6c17563f5c465730d349e224b7d1103a0d4d1957a52d36",
          "transactionIndex": "0x8",
          "logIndex": "0x35",
          "removed": false
        },
        {
          "address": "0x488327236b65c61a6c083e8d811a4e0d3d1d4268",
          "topics": [
            "0x8c5be1e5ebec7d5bd14f71427d1e84f3dd0314c0f7b2291e5b200ac8c7c3b925",
            "0x00000000000000000000000057a723886d5bc0cd7efef8c8b8395fb6e15cb0f0",
            "0x000000000000000000000000844f6b31f7d1240134b3d63ffc2b6f1c7f2612b6"
          ],
          "data": "0x0000000000000000000000000000000000000000000000000000000000000000",
          "blockHash": "0x21ff764583555f5586df30e39cb2eac5467705dd5a300b1d2bdfce803dd7b2a0",
          "blockNumber": "0x12203f0",
          "transactionHash": "0x699f3fc9eb35cf190b6c17563f5c465730d349e224b7d1103a0d4d1957a52d36",
          "transactionIndex": "0x8",
          "logIndex": "0x36",
          "removed": false
        },
        {
          "address": "0x844f6b31f7d1240134b3d63ffc2b6f1c7f2612b6",
          "topics": [
            "0x6c7131e79092f16af04daf787c07a4dc80e7ae1a95dbe1cc1a310cfe1619d2db",
            "0xd69484e9dabafa2381d8f119876e2ae1be1be10bbe070bd7c40b7e8180a55a35"
          ],
          "data": "0x00000000000000000000000057a723886d5bc0cd7efef8c8b8395fb6e15cb0f0000000000000000000000000000000000000000000000000000000003b9aca00",
          "blockHash": "0x21ff764583555f5586df30e39cb2eac5467705dd5a300b1d2bdfce803dd7b2a0",
          "blockNumber": "0x12203f0",
          "transactionHash": "0x699f3fc9eb35cf190b6c17563f5c465730d349e224b7d1103a0d4d1957a52d36",
          "transactionIndex": "0x8",
          "logIndex": "0x37",
          "removed": false
        },
        {
          "address": "0x828223b512bf1892229fec61c5c1376bded3a285",
          "topics": [
            "0xce3ef9786e3b9388efc900e4e0a070185cebb023f778aa7688f8c71af67395de",
            "0xb3c7a2ba79dadd20ecb65d95d775121b378fdacef62aea2553652b0626596b6e"
          ],
          "data": "0x000000000000000000000000000000000000000000000000000000003b9aca0000000000000000000000000057a723886d5bc0cd7efef8c8b8395fb6e15cb0f000000000000000000000000000000000000000000000000000000000000000a000000000000000000000000000000000000000000000000000000000000000e000000000000000000000000000000000000000000000000000000000000001200000000000000000000000000000000000000000000000000000000000000001000000000000000000000000000000000000000000000000000000000096ed7c0000000000000000000000000000000000000000000000000000000000000001000000000000000000000000000000000000000000000000000000000001825f000000000000000000000000000000000000000000000000000000000000000100000000000000000000000000000000000000000000000000000000000026a3",
          "blockHash": "0x21ff764583555f5586df30e39cb2eac5467705dd5a300b1d2bdfce803dd7b2a0",
          "blockNumber": "0x12203f0",
          "transactionHash": "0x699f3fc9eb35cf190b6c17563f5c465730d349e224b7d1103a0d4d1957a52d36",
          "transactionIndex": "0x8",
          "logIndex": "0x38",
          "removed": false
        }
      ],
      "logsBloom": "0x00000000002000000000000000000000000800000000000000000000002000000000000800000000000200000000000000000000000000000000000022300000000000000000000000000008000000000000000002008020000000000001000000100000000000000000000000010000000000000000000000000410000000000000000000000000800000400000000000000000000000000000000000100000020000000080000000000000000000020000000010000000000000000000000000004002000000000800000000400000000000000000020000000000000000080010000000000001000000000400000000000200000000000000000000821000",
      "type": "0x2",
      "transactionHash": "0x699f3fc9eb35cf190b6c17563f5c465730d349e224b7d1103a0d4d1957a52d36",
      "transactionIndex": "0x8",
      "blockHash": "0x21ff764583555f5586df30e39cb2eac5467705dd5a300b1d2bdfce803dd7b2a0",
      "blockNumber": "0x12203f0",
      "gasUsed": "0x6c093",
      "effectiveGasPrice": "0xf433b",
      "from": "0x77777cc68b333a2256b436d675e8d257699aa667",
      "to": "0x828223b512bf1892229fec61c5c1376bded3a285",
      "contractAddress": null,
      "l1BaseFeeScalar": "0x1db0",
      "l1BlobBaseFee": "0x2",
      "l1BlobBaseFeeScalar": "0xd2730",
      "l1Fee": "0x6d8f",
      "l1GasPrice": "0x6c2",
      "l1GasUsed": "0x843"
    },
    {
      "status": "0x1",
      "cumulativeGasUsed": "0x553cfc",
      "logs": [
        {
          "address": "0x488327236b65c61a6c083e8d811a4e0d3d1d4268",
          "topics": [
            "0xddf252ad1be2c89b69c2b068fc378daa952ba7f163c4a11628f55a4df523b3ef",
            "0x00000000000000000000000077777cc68b333a2256b436d675e8d257699aa667",
            "0x000000000000000000000000061f3fb023120fce7bf9b1e4080f235f272cd61b"
          ],
          "data": "0x000000000000000000000000000000000000000000000000000000003b9aca00",
          "blockHash": "0x21ff764583555f5586df30e39cb2eac5467705dd5a300b1d2bdfce803dd7b2a0",
          "blockNumber": "0x12203f0",
          "transactionHash": "0x084b79d9d667e58a9f8a46646c61534a2dffc51ced18823284bf3362bec2e14c",
          "transactionIndex": "0x9",
          "logIndex": "0x39",
          "removed": false
        },
        {
          "address": "0x488327236b65c61a6c083e8d811a4e0d3d1d4268",
          "topics": [
            "0x8c5be1e5ebec7d5bd14f71427d1e84f3dd0314c0f7b2291e5b200ac8c7c3b925",
            "0x00000000000000000000000077777cc68b333a2256b436d675e8d257699aa667",
            "0x000000000000000000000000828223b512bf1892229fec61c5c1376bded3a285"
          ],
          "data": "0xfffffffffffffffffffffffffffffffffffffffffffffffffffffffda5fe3b01",
          "blockHash": "0x21ff764583555f5586df30e39cb2eac5467705dd5a300b1d2bdfce803dd7b2a0",
          "blockNumber": "0x12203f0",
          "transactionHash": "0x084b79d9d667e58a9f8a46646c61534a2dffc51ced18823284bf3362bec2e14c",
          "transactionIndex": "0x9",
          "logIndex": "0x3a",
          "removed": false
        },
        {
          "address": "0x488327236b65c61a6c083e8d811a4e0d3d1d4268",
          "topics": [
            "0x8c5be1e5ebec7d5bd14f71427d1e84f3dd0314c0f7b2291e5b200ac8c7c3b925",
            "0x000000000000000000000000061f3fb023120fce7bf9b1e4080f235f272cd61b",
            "0x000000000000000000000000844f6b31f7d1240134b3d63ffc2b6f1c7f2612b6"
          ],
          "data": "0x000000000000000000000000000000000000000000000000000000003b9aca00",
          "blockHash": "0x21ff764583555f5586df30e39cb2eac5467705dd5a300b1d2bdfce803dd7b2a0",
          "blockNumber": "0x12203f0",
          "transactionHash": "0x084b79d9d667e58a9f8a46646c61534a2dffc51ced18823284bf3362bec2e14c",
          "transactionIndex": "0x9",
          "logIndex": "0x3b",
          "removed": false
        },
        {
          "address": "0x488327236b65c61a6c083e8d811a4e0d3d1d4268",
          "topics": [
            "0xddf252ad1be2c89b69c2b068fc378daa952ba7f163c4a11628f55a4df523b3ef",
            "0x000000000000000000000000061f3fb023120fce7bf9b1e4080f235f272cd61b",
            "0x000000000000000000000000844f6b31f7d1240134b3d63ffc2b6f1c7f2612b6"
          ],
          "data": "0x000000000000000000000000000000000000000000000000000000003b9aca00",
          "blockHash": "0x21ff764583555f5586df30e39cb2eac5467705dd5a300b1d2bdfce803dd7b2a0",
          "blockNumber": "0x12203f0",
          "transactionHash": "0x084b79d9d667e58a9f8a46646c61534a2dffc51ced18823284bf3362bec2e14c",
          "transactionIndex": "0x9",
          "logIndex": "0x3c",
          "removed": false
        },
        {
          "address": "0x488327236b65c61a6c083e8d811a4e0d3d1d4268",
          "topics": [
            "0x8c5be1e5ebec7d5bd14f71427d1e84f3dd0314c0f7b2291e5b200ac8c7c3b925",
            "0x000000000000000000000000061f3fb023120fce7bf9b1e4080f235f272cd61b",
            "0x000000000000000000000000844f6b31f7d1240134b3d63ffc2b6f1c7f2612b6"
          ],
          "data": "0x0000000000000000000000000000000000000000000000000000000000000000",
          "blockHash": "0x21ff764583555f5586df30e39cb2eac5467705dd5a300b1d2bdfce803dd7b2a0",
          "blockNumber": "0x12203f0",
          "transactionHash": "0x084b79d9d667e58a9f8a46646c61534a2dffc51ced18823284bf3362bec2e14c",
          "transactionIndex": "0x9",
          "logIndex": "0x3d",
          "removed": false
        },
        {
          "address": "0x844f6b31f7d1240134b3d63ffc2b6f1c7f2612b6",
          "topics": [
            "0x6c7131e79092f16af04daf787c07a4dc80e7ae1a95dbe1cc1a310cfe1619d2db",
            "0xd69484e9dabafa2381d8f119876e2ae1be1be10bbe070bd7c40b7e8180a55a35"
          ],
          "data": "0x000000000000000000000000061f3fb023120fce7bf9b1e4080f235f272cd61b000000000000000000000000000000000000000000000000000000003b9aca00",
          "blockHash": "0x21ff764583555f5586df30e39cb2eac5467705dd5a300b1d2bdfce803dd7b2a0",
          "blockNumber": "0x12203f0",
          "transactionHash": "0x084b79d9d667e58a9f8a46646c61534a2dffc51ced18823284bf3362bec2e14c",
          "transactionIndex": "0x9",
          "logIndex": "0x3e",
          "removed": false
        },
        {
          "address": "0x828223b512bf1892229fec61c5c1376bded3a285",
          "topics": [
            "0xce3ef9786e3b9388efc900e4e0a070185cebb023f778aa7688f8c71af67395de",
            "0xb3c7a2ba79dadd20ecb65d95d775121b378fdacef62aea2553652b0626596b6e"
          ],
          "data": "0x000000000000000000000000000000000000000000000000000000003b9aca00000000000000000000000000061f3fb023120fce7bf9b1e4080f235f272cd61b00000000000000000000000000000000000000000000000000000000000000a000000000000000000000000000000000000000000000000000000000000000e000000000000000000000000000000000000000000000000000000000000001200000000000000000000000000000000000000000000000000000000000000001000000000000000000000000000000000000000000000000000000000096ed7c0000000000000000000000000000000000000000000000000000000000000001000000000000000000000000000000000000000000000000000000000001825f000000000000000000000000000000000000000000000000000000000000000100000000000000000000000000000000000000000000000000000000000026a3",
          "blockHash": "0x21ff764583555f5586df30e39cb2eac5467705dd5a300b1d2bdfce803dd7b2a0",
          "blockNumber": "0x12203f0",
          "transactionHash": "0x084b79d9d667e58a9f8a46646c61534a2dffc51ced18823284bf3362bec2e14c",
          "transactionIndex": "0x9",
          "logIndex": "0x3f",
          "removed": false
        }
      ],
      "logsBloom": "0x00000000002000000000000000000000000800000000000000000000002000000000020000000000000200000000000000000000000000000000000022200000000000000000000000000008000000000000000002008020000000000001000000100000000000000000000000010000000000000000000000000410000000000000000000000000800010400000000000000000000000000000000000100000020000000080000000000000000000020000000010000000000000000001000000004002000000000800000000400000000000000000000000000000000000080010000000000001000000000400000000000200000000000000000000821000",
      "type": "0x2",
      "transactionHash": "0x084b79d9d667e58a9f8a46646c61534a2dffc51ced18823284bf3362bec2e14c",
      "transactionIndex": "0x9",
      "blockHash": "0x21ff764583555f5586df30e39cb2eac5467705dd5a300b1d2bdfce803dd7b2a0",
      "blockNumber": "0x12203f0",
      "gasUsed": "0x6add3",
      "effectiveGasPrice": "0xf433b",
      "from": "0x77777cc68b333a2256b436d675e8d257699aa667",
      "to": "0x828223b512bf1892229fec61c5c1376bded3a285",
      "contractAddress": null,
      "l1BaseFeeScalar": "0x1db0",
      "l1BlobBaseFee": "0x2",
      "l1BlobBaseFeeScalar": "0xd2730",
      "l1Fee": "0x6d8f",
      "l1GasPrice": "0x6c2",
      "l1GasUsed": "0x843"
    }
  ],
  "libraries": [],
  "pending": [],
  "returns": {},
  "timestamp": 1729815442,
  "chain": 11155420,
  "commit": "b45d478"
}