{
  "transactions": [
    {
      "hash": "0xb91c091cea8569c2dd37f1ba191d27cc140ae60204ac4c90b5a586514f63d88b",
      "transactionType": "CALL",
      "contractName": null,
      "contractAddress": "0x828223b512bf1892229fec61c5c1376bded3a285",
      "function": "createMarket(address,uint256,uint256,(bytes32[],bytes[]),(bytes32[],bytes[]),uint8)",
      "arguments": [
        "0x3253a335E7bFfB4790Aa4C25C4250d206E9b9773",
        "4838400",
        "1000000000000000",
        "([0xaa8c217c02ffffffffffff01f8e66eac95d27dd30a756ee1a2d2d96d392b61cb, 0x095ea7b3010001ffffffffff3253a335e7bffb4790aa4c25c4250d206e9b9773, 0xd0e30db001ffffffffffffff844f6b31f7d1240134b3d63ffc2b6f1c7f2612b6], [0x000000000000000000000000844f6b31f7d1240134b3d63ffc2b6f1c7f2612b6, 0x])",
        "([0x3ccfd60b01ffffffffffffff844f6b31f7d1240134b3d63ffc2b6f1c7f2612b6], [])",
        "2"
      ],
      "transaction": {
        "from": "0x77777cc68b333a2256b436d675e8d257699aa667",
        "to": "0x828223b512bf1892229fec61c5c1376bded3a285",
        "gas": "0x79125",
        "value": "0x0",
        "input": "0xf62423010000000000000000000000003253a335e7bffb4790aa4c25c4250d206e9b9773000000000000000000000000000000000000000000000000000000000049d40000000000000000000000000000000000000000000000000000038d7ea4c6800000000000000000000000000000000000000000000000000000000000000000c000000000000000000000000000000000000000000000000000000000000002400000000000000000000000000000000000000000000000000000000000000002000000000000000000000000000000000000000000000000000000000000004000000000000000000000000000000000000000000000000000000000000000c00000000000000000000000000000000000000000000000000000000000000003aa8c217c02ffffffffffff01f8e66eac95d27dd30a756ee1a2d2d96d392b61cb095ea7b3010001ffffffffff3253a335e7bffb4790aa4c25c4250d206e9b9773d0e30db001ffffffffffffff844f6b31f7d1240134b3d63ffc2b6f1c7f2612b60000000000000000000000000000000000000000000000000000000000000002000000000000000000000000000000000000000000000000000000000000004000000000000000000000000000000000000000000000000000000000000000800000000000000000000000000000000000000000000000000000000000000020000000000000000000000000844f6b31f7d1240134b3d63ffc2b6f1c7f2612b600000000000000000000000000000000000000000000000000000000000000000000000000000000000000000000000000000000000000000000000000000040000000000000000000000000000000000000000000000000000000000000008000000000000000000000000000000000000000000000000000000000000000013ccfd60b01ffffffffffffff844f6b31f7d1240134b3d63ffc2b6f1c7f2612b60000000000000000000000000000000000000000000000000000000000000000",
        "nonce": "0x14",
        "chainId": "0xaa37dc"
      },
      "additionalContracts": [],
      "isFixedGasLimit": false
    }
  ],
  "receipts": [
    {
      "status": "0x1",
      "cumulativeGasUsed": "0x77e47",
      "logs": [
        {
          "address": "0x828223b512bf1892229fec61c5c1376bded3a285",
          "topics": [
            "0x0c001567d2743a4cf169e9e0f5f5fc1e1d2e9b95b02d2d22a5ae74c499481cf7",
            "0x0000000000000000000000000000000000000000000000000000000000000000",
            "0xdff0d2d82f392b3554b2d58bd972e7e64fc2e906c7447f16841d7a2e4a86c4a8",
            "0x0000000000000000000000003253a335e7bffb4790aa4c25c4250d206e9b9773"
          ],
          "data": "0x000000000000000000000000000000000000000000000000000000000049d40000000000000000000000000000000000000000000000000000038d7ea4c680000000000000000000000000000000000000000000000000000000000000000002",
          "blockHash": "0xbae94da2ae8fc0ccd64b6cb77bff8876a35bbdd5a157c6211082b9a7ea59fcc1",
          "blockNumber": "0x121ffea",
          "transactionHash": "0xb91c091cea8569c2dd37f1ba191d27cc140ae60204ac4c90b5a586514f63d88b",
          "transactionIndex": "0x2",
          "logIndex": "0x2",
          "removed": false
        }
      ],
      "logsBloom": "0x00000000000000000000000000000000000000000000000000000000000000000000000000000000000000000000000000000000000000000000000000040000000000000000020000000000000000000000000000000000000000000000000000100000020000000000000000000800000000001000000000000000010000000000000000000000000000000000000000000000000000000000000000000000000000000000000000000000000000020000000010000000000000200000000000000000000000000400000000000000000000100020000000002000000020000000000000000000000000000000000000000000000000000000000000000000",
      "type": "0x2",
      "transactionHash": "0xb91c091cea8569c2dd37f1ba191d27cc140ae60204ac4c90b5a586514f63d88b",
      "transactionIndex": "0x2",
      "blockHash": "0xbae94da2ae8fc0ccd64b6cb77bff8876a35bbdd5a157c6211082b9a7ea59fcc1",
      "blockNumber": "0x121ffea",
      "gasUsed": "0x57a76",
      "effectiveGasPrice": "0xf6a4d",
      "from": "0x77777cc68b333a2256b436d675e8d257699aa667",
      "to": "0x828223b512bf1892229fec61c5c1376bded3a285",
      "contractAddress": null,
      "l1BaseFeeScalar": "0x1db0",
      "l1BlobBaseFee": "0x1",
      "l1BlobBaseFeeScalar": "0xd2730",
      "l1Fee": "0xdfd4",
      "l1GasPrice": "0x84e",
      "l1GasUsed": "0xdce"
    }
  ],
  "libraries": [],
  "pending": [],
  "returns": {},
  "timestamp": 1729813382,
  "chain": 11155420,
  "commit": "46e44a0"
}