{
  "transactions": [
    {
      "hash": "0xb87a3eb39be1c3491eeb3f591ebb3a6cb20ef001c01ba992356c65eddb9df60b",
      "transactionType": "CALL",
      "contractName": null,
      "contractAddress": "0x828223b512bf1892229fec61c5c1376bded3a285",
      "function": "createMarket(address,uint256,uint256,(bytes32[],bytes[]),(bytes32[],bytes[]),uint8)",
      "arguments": [
        "0x488327236B65C61A6c083e8d811a4E0D3d1D4268",
        "4838400",
        "1000000000000000",
        "([0xaa8c217c02ffffffffffff01f8e66eac95d27dd30a756ee1a2d2d96d392b61cb, 0x095ea7b3010001ffffffffff488327236b65c61a6c083e8d811a4e0d3d1d4268, 0xd0e30db001ffffffffffffff844f6b31f7d1240134b3d63ffc2b6f1c7f2612b6], [0x000000000000000000000000844f6b31f7d1240134b3d63ffc2b6f1c7f2612b6, 0x])",
        "([0x3ccfd60b01ffffffffffffff844f6b31f7d1240134b3d63ffc2b6f1c7f2612b6], [])",
        "2"
      ],
      "transaction": {
        "from": "0x77777cc68b333a2256b436d675e8d257699aa667",
        "to": "0x828223b512bf1892229fec61c5c1376bded3a285",
        "gas": "0x7a041",
        "value": "0x0",
        "input": "0xf6242301000000000000000000000000488327236b65c61a6c083e8d811a4e0d3d1d4268000000000000000000000000000000000000000000000000000000000049d40000000000000000000000000000000000000000000000000000038d7ea4c6800000000000000000000000000000000000000000000000000000000000000000c000000000000000000000000000000000000000000000000000000000000002400000000000000000000000000000000000000000000000000000000000000002000000000000000000000000000000000000000000000000000000000000004000000000000000000000000000000000000000000000000000000000000000c00000000000000000000000000000000000000000000000000000000000000003aa8c217c02ffffffffffff01f8e66eac95d27dd30a756ee1a2d2d96d392b61cb095ea7b3010001ffffffffff488327236b65c61a6c083e8d811a4e0d3d1d4268d0e30db001ffffffffffffff844f6b31f7d1240134b3d63ffc2b6f1c7f2612b60000000000000000000000000000000000000000000000000000000000000002000000000000000000000000000000000000000000000000000000000000004000000000000000000000000000000000000000000000000000000000000000800000000000000000000000000000000000000000000000000000000000000020000000000000000000000000844f6b31f7d1240134b3d63ffc2b6f1c7f2612b600000000000000000000000000000000000000000000000000000000000000000000000000000000000000000000000000000000000000000000000000000040000000000000000000000000000000000000000000000000000000000000008000000000000000000000000000000000000000000000000000000000000000013ccfd60b01ffffffffffffff844f6b31f7d1240134b3d63ffc2b6f1c7f2612b60000000000000000000000000000000000000000000000000000000000000000",
        "nonce": "0x15",
        "chainId": "0xaa37dc"
      },
      "additionalContracts": [],
      "isFixedGasLimit": false
    },
    {
      "hash": "0xc907d45fec58925a9ea166af005bf2f285b6978c5fcc8ab9a7683964ad117fd5",
      "transactionType": "CALL",
      "contractName": null,
      "contractAddress": "0x488327236b65c61a6c083e8d811a4e0d3d1d4268",
      "function": "approve(address,uint256)",
      "arguments": [
        "0x828223B512BF1892229FeC61C5c1376BDED3a285",
        "115792089237316195423570985008687907853269984665640564039457584007913129639935"
      ],
      "transaction": {
        "from": "0x77777cc68b333a2256b436d675e8d257699aa667",
        "to": "0x488327236b65c61a6c083e8d811a4e0d3d1d4268",
        "gas": "0x1098c",
        "value": "0x0",
        "input": "0x095ea7b3000000000000000000000000828223b512bf1892229fec61c5c1376bded3a285ffffffffffffffffffffffffffffffffffffffffffffffffffffffffffffffff",
        "nonce": "0x16",
        "chainId": "0xaa37dc"
      },
      "additionalContracts": [],
      "isFixedGasLimit": false
    },
    {
      "hash": "0x4cf26459d36a8300d191c27629db908a4f92b46943c9c36d4deb988df592fbb9",
      "transactionType": "CALL",
      "contractName": null,
      "contractAddress": "0x828223b512bf1892229fec61c5c1376bded3a285",
      "function": "createIPOffer(bytes32,uint256,uint256,address[],uint256[])",
      "arguments": [
        "0xd12495166ebaa4e78b31307c03f43e7e9f08c15a1621db170b1e8f3d5024630f",
        "10000000000",
        "1731024854",
        "[0x488327236B65C61A6c083e8d811a4E0D3d1D4268]",
        "[100000000]"
      ],
      "transaction": {
        "from": "0x77777cc68b333a2256b436d675e8d257699aa667",
        "to": "0x828223b512bf1892229fec61c5c1376bded3a285",
        "gas": "0x70916",
        "value": "0x0",
        "input": "0xee46ebc6d12495166ebaa4e78b31307c03f43e7e9f08c15a1621db170b1e8f3d5024630f00000000000000000000000000000000000000000000000000000002540be40000000000000000000000000000000000000000000000000000000000672d57d600000000000000000000000000000000000000000000000000000000000000a000000000000000000000000000000000000000000000000000000000000000e00000000000000000000000000000000000000000000000000000000000000001000000000000000000000000488327236b65c61a6c083e8d811a4e0d3d1d426800000000000000000000000000000000000000000000000000000000000000010000000000000000000000000000000000000000000000000000000005f5e100",
        "nonce": "0x17",
        "chainId": "0xaa37dc"
      },
      "additionalContracts": [],
      "isFixedGasLimit": false
    },
    {
      "hash": "0xffda149c66a06189e996ef9c14b7e6c99f4f0d476c49045343f3e06b7871623d",
      "transactionType": "CALL",
      "contractName": null,
      "contractAddress": "0x828223b512bf1892229fec61c5c1376bded3a285",
      "function": "fillIPOffers(bytes32[],uint256[],address,address)",
      "arguments": [
        "[0x297da3418f11b0eb674228e39c86400b4142b21adfbfa985d7dc5073e41658b7]",
        "[1000000000]",
        "0x0000000000000000000000000000000000000000",
        "0x77777Cc68b333a2256B436D675E8D257699Aa667"
      ],
      "transaction": {
        "from": "0x77777cc68b333a2256b436d675e8d257699aa667",
        "to": "0x828223b512bf1892229fec61c5c1376bded3a285",
        "gas": "0x9afda",
        "value": "0x0",
        "input": "0x0600fc6f000000000000000000000000000000000000000000000000000000000000008000000000000000000000000000000000000000000000000000000000000000c0000000000000000000000000000000000000000000000000000000000000000000000000000000000000000077777cc68b333a2256b436d675e8d257699aa6670000000000000000000000000000000000000000000000000000000000000001297da3418f11b0eb674228e39c86400b4142b21adfbfa985d7dc5073e41658b70000000000000000000000000000000000000000000000000000000000000001000000000000000000000000000000000000000000000000000000003b9aca00",
        "nonce": "0x18",
        "chainId": "0xaa37dc"
      },
      "additionalContracts": [
        {
          "transactionType": "CREATE",
          "address": "0x2cef9729f07a1f92baf110fd302bd0f74a554510",
          "initCode": "0x3d6100c380600b3d3981f3363d3d3761008b603836393d3d3d3661008b013d73bc52f921b50b0572a649deb553d104f6ecacb6695af43d82803e903d91603657fd5bf377777cc68b333a2256b436d675e8d257699aa667828223b512bf1892229fec61c5c1376bded3a285000000000000000000000000000000000000000000000000000000003b9aca00000000000000000000000000000000000000000000000000000000006764b6e801d12495166ebaa4e78b31307c03f43e7e9f08c15a1621db170b1e8f3d5024630f0089"
        }
      ],
      "isFixedGasLimit": false
    }
  ],
  "receipts": [
    {
      "status": "0x1",
      "cumulativeGasUsed": "0x63081",
      "logs": [
        {
          "address": "0x828223b512bf1892229fec61c5c1376bded3a285",
          "topics": [
            "0x0c001567d2743a4cf169e9e0f5f5fc1e1d2e9b95b02d2d22a5ae74c499481cf7",
            "0x0000000000000000000000000000000000000000000000000000000000000001",
            "0xd12495166ebaa4e78b31307c03f43e7e9f08c15a1621db170b1e8f3d5024630f",
            "0x000000000000000000000000488327236b65c61a6c083e8d811a4e0d3d1d4268"
          ],
          "data": "0x000000000000000000000000000000000000000000000000000000000049d40000000000000000000000000000000000000000000000000000038d7ea4c680000000000000000000000000000000000000000000000000000000000000000002",
          "blockHash": "0x1a0ea2b47fa4bcfb2c67fc0eec61bff3e0500a1b8e496a109d30834b015ade9c",
          "blockNumber": "0x12203a1",
          "transactionHash": "0xb87a3eb39be1c3491eeb3f591ebb3a6cb20ef001c01ba992356c65eddb9df60b",
          "transactionIndex": "0x1",
          "logIndex": "0x0",
          "removed": false
        }
      ],
      "logsBloom": "0x00000000000000000000000000000000000000000000000000000000000000000000000000000000000000000000000010000000000000000000000000040000000000000000000000000000000000000000000000040000000000000000000000100000000000000000000000000000000000000000000000002000110000000000000000000000000000000000000000000000000000000000000000000000000000000000000000000000000000020000000010000000000000200000000000000000000000000010000000000000000000000000000000002000000040000000000000000000000000000000000000400001000000000000000000000000",
      "type": "0x2",
      "transactionHash": "0xb87a3eb39be1c3491eeb3f591ebb3a6cb20ef001c01ba992356c65eddb9df60b",
      "transactionIndex": "0x1",
      "blockHash": "0x1a0ea2b47fa4bcfb2c67fc0eec61bff3e0500a1b8e496a109d30834b015ade9c",
      "blockNumber": "0x12203a1",
      "gasUsed": "0x58566",
      "effectiveGasPrice": "0xf433b",
      "from": "0x77777cc68b333a2256b436d675e8d257699aa667",
      "to": "0x828223b512bf1892229fec61c5c1376bded3a285",
      "contractAddress": null,
      "l1BaseFeeScalar": "0x1db0",
      "l1BlobBaseFee": "0x1",
      "l1BlobBaseFeeScalar": "0xd2730",
      "l1Fee": "0x33bd",
      "l1GasPrice": "0x1e6",
      "l1GasUsed": "0xdce"
    },
    {
      "status": "0x1",
      "cumulativeGasUsed": "0x6e614",
      "logs": [
        {
          "address": "0x488327236b65c61a6c083e8d811a4e0d3d1d4268",
          "topics": [
            "0x8c5be1e5ebec7d5bd14f71427d1e84f3dd0314c0f7b2291e5b200ac8c7c3b925",
            "0x00000000000000000000000077777cc68b333a2256b436d675e8d257699aa667",
            "0x000000000000000000000000828223b512bf1892229fec61c5c1376bded3a285"
          ],
          "data": "0xffffffffffffffffffffffffffffffffffffffffffffffffffffffffffffffff",
          "blockHash": "0x1a0ea2b47fa4bcfb2c67fc0eec61bff3e0500a1b8e496a109d30834b015ade9c",
          "blockNumber": "0x12203a1",
          "transactionHash": "0xc907d45fec58925a9ea166af005bf2f285b6978c5fcc8ab9a7683964ad117fd5",
          "transactionIndex": "0x2",
          "logIndex": "0x1",
          "removed": false
        }
      ],
      "logsBloom": "0x00000000000000000000000000000000000000000000000000000000002000000000000000000000000000000000000000000000000000000000000000200000000000000000000000000000000000000000000002000020000000000001000000000000000000000000000000000000000000000000000000000000000000000000000000000000000000000000000000000000000000000000000000100000020000000000000000000000000000000000000000000000000000000000000000000000000000000000000000400000000000000000000000000000000000080010000000000000000000000400000000000000000000000000000000001000",
      "type": "0x2",
      "transactionHash": "0xc907d45fec58925a9ea166af005bf2f285b6978c5fcc8ab9a7683964ad117fd5",
      "transactionIndex": "0x2",
      "blockHash": "0x1a0ea2b47fa4bcfb2c67fc0eec61bff3e0500a1b8e496a109d30834b015ade9c",
      "blockNumber": "0x12203a1",
      "gasUsed": "0xb593",
      "effectiveGasPrice": "0xf433b",
      "from": "0x77777cc68b333a2256b436d675e8d257699aa667",
      "to": "0x488327236b65c61a6c083e8d811a4e0d3d1d4268",
      "contractAddress": null,
      "l1BaseFeeScalar": "0x1db0",
      "l1BlobBaseFee": "0x1",
      "l1BlobBaseFeeScalar": "0xd2730",
      "l1Fee": "0x176b",
      "l1GasPrice": "0x1e6",
      "l1GasUsed": "0x640"
    },
    {
      "status": "0x1",
      "cumulativeGasUsed": "0xbfe09",
      "logs": [
        {
          "address": "0x488327236b65c61a6c083e8d811a4e0d3d1d4268",
          "topics": [
            "0xddf252ad1be2c89b69c2b068fc378daa952ba7f163c4a11628f55a4df523b3ef",
            "0x00000000000000000000000077777cc68b333a2256b436d675e8d257699aa667",
            "0x000000000000000000000000828223b512bf1892229fec61c5c1376bded3a285"
          ],
          "data": "0x0000000000000000000000000000000000000000000000000000000005f5e0fe",
          "blockHash": "0x1a0ea2b47fa4bcfb2c67fc0eec61bff3e0500a1b8e496a109d30834b015ade9c",
          "blockNumber": "0x12203a1",
          "transactionHash": "0x4cf26459d36a8300d191c27629db908a4f92b46943c9c36d4deb988df592fbb9",
          "transactionIndex": "0x3",
          "logIndex": "0x2",
          "removed": false
        },
        {
          "address": "0x488327236b65c61a6c083e8d811a4e0d3d1d4268",
          "topics": [
            "0x8c5be1e5ebec7d5bd14f71427d1e84f3dd0314c0f7b2291e5b200ac8c7c3b925",
            "0x00000000000000000000000077777cc68b333a2256b436d675e8d257699aa667",
            "0x000000000000000000000000828223b512bf1892229fec61c5c1376bded3a285"
          ],
          "data": "0xfffffffffffffffffffffffffffffffffffffffffffffffffffffffffa0a1f01",
          "blockHash": "0x1a0ea2b47fa4bcfb2c67fc0eec61bff3e0500a1b8e496a109d30834b015ade9c",
          "blockNumber": "0x12203a1",
          "transactionHash": "0x4cf26459d36a8300d191c27629db908a4f92b46943c9c36d4deb988df592fbb9",
          "transactionIndex": "0x3",
          "logIndex": "0x3",
          "removed": false
        },
        {
          "address": "0x828223b512bf1892229fec61c5c1376bded3a285",
          "topics": [
            "0x8af8940e37a50e2b056ce39d3079e6de3234015e7ae27f873041c2bed0904794",
            "0x0000000000000000000000000000000000000000000000000000000000000000",
            "0x297da3418f11b0eb674228e39c86400b4142b21adfbfa985d7dc5073e41658b7",
            "0xd12495166ebaa4e78b31307c03f43e7e9f08c15a1621db170b1e8f3d5024630f"
          ],
          "data": "0x00000000000000000000000000000000000000000000000000000002540be40000000000000000000000000000000000000000000000000000000000000000c000000000000000000000000000000000000000000000000000000000000001000000000000000000000000000000000000000000000000000000000000000140000000000000000000000000000000000000000000000000000000000000018000000000000000000000000000000000000000000000000000000000672d57d60000000000000000000000000000000000000000000000000000000000000001000000000000000000000000488327236b65c61a6c083e8d811a4e0d3d1d426800000000000000000000000000000000000000000000000000000000000000010000000000000000000000000000000000000000000000000000000005e546e0000000000000000000000000000000000000000000000000000000000000000100000000000000000000000000000000000000000000000000000000000f17bf0000000000000000000000000000000000000000000000000000000000000001000000000000000000000000000000000000000000000000000000000001825f",
          "blockHash": "0x1a0ea2b47fa4bcfb2c67fc0eec61bff3e0500a1b8e496a109d30834b015ade9c",
          "blockNumber": "0x12203a1",
          "transactionHash": "0x4cf26459d36a8300d191c27629db908a4f92b46943c9c36d4deb988df592fbb9",
          "transactionIndex": "0x3",
          "logIndex": "0x4",
          "removed": false
        }
      ],
      "logsBloom": "0x00000000000000000000000000000000000000000000000000000000002000000000000000000000000000000000000001000000000000000000000000200000080000000000000000000008000000000000000002000020000000000001000000100000020000000000000000000800000000000000000000000010100000000000000000000000000000000000000000000000000000000000000000100000020000000000001000000000000000020000000010000000000000000000000000000002000000000010000000400000000000000000000000000000008020080010200000000000000000000400000000000001000000000000080000001000",
      "type": "0x2",
      "transactionHash": "0x4cf26459d36a8300d191c27629db908a4f92b46943c9c36d4deb988df592fbb9",
      "transactionIndex": "0x3",
      "blockHash": "0x1a0ea2b47fa4bcfb2c67fc0eec61bff3e0500a1b8e496a109d30834b015ade9c",
      "blockNumber": "0x12203a1",
      "gasUsed": "0x517f5",
      "effectiveGasPrice": "0xf433b",
      "from": "0x77777cc68b333a2256b436d675e8d257699aa667",
      "to": "0x828223b512bf1892229fec61c5c1376bded3a285",
      "contractAddress": null,
      "l1BaseFeeScalar": "0x1db0",
      "l1BlobBaseFee": "0x1",
      "l1BlobBaseFeeScalar": "0xd2730",
      "l1Fee": "0x2443",
      "l1GasPrice": "0x1e6",
      "l1GasUsed": "0x9ad"
    },
    {
      "status": "0x1",
      "cumulativeGasUsed": "0x130168",
      "logs": [
        {
          "address": "0x488327236b65c61a6c083e8d811a4e0d3d1d4268",
          "topics": [
            "0xddf252ad1be2c89b69c2b068fc378daa952ba7f163c4a11628f55a4df523b3ef",
            "0x00000000000000000000000077777cc68b333a2256b436d675e8d257699aa667",
            "0x0000000000000000000000002cef9729f07a1f92baf110fd302bd0f74a554510"
          ],
          "data": "0x000000000000000000000000000000000000000000000000000000003b9aca00",
          "blockHash": "0x1a0ea2b47fa4bcfb2c67fc0eec61bff3e0500a1b8e496a109d30834b015ade9c",
          "blockNumber": "0x12203a1",
          "transactionHash": "0xffda149c66a06189e996ef9c14b7e6c99f4f0d476c49045343f3e06b7871623d",
          "transactionIndex": "0x4",
          "logIndex": "0x5",
          "removed": false
        },
        {
          "address": "0x488327236b65c61a6c083e8d811a4e0d3d1d4268",
          "topics": [
            "0x8c5be1e5ebec7d5bd14f71427d1e84f3dd0314c0f7b2291e5b200ac8c7c3b925",
            "0x00000000000000000000000077777cc68b333a2256b436d675e8d257699aa667",
            "0x000000000000000000000000828223b512bf1892229fec61c5c1376bded3a285"
          ],
          "data": "0xffffffffffffffffffffffffffffffffffffffffffffffffffffffffbe6f5501",
          "blockHash": "0x1a0ea2b47fa4bcfb2c67fc0eec61bff3e0500a1b8e496a109d30834b015ade9c",
          "blockNumber": "0x12203a1",
          "transactionHash": "0xffda149c66a06189e996ef9c14b7e6c99f4f0d476c49045343f3e06b7871623d",
          "transactionIndex": "0x4",
          "logIndex": "0x6",
          "removed": false
        },
        {
          "address": "0x488327236b65c61a6c083e8d811a4e0d3d1d4268",
          "topics": [
            "0x8c5be1e5ebec7d5bd14f71427d1e84f3dd0314c0f7b2291e5b200ac8c7c3b925",
            "0x0000000000000000000000002cef9729f07a1f92baf110fd302bd0f74a554510",
            "0x000000000000000000000000844f6b31f7d1240134b3d63ffc2b6f1c7f2612b6"
          ],
          "data": "0x000000000000000000000000000000000000000000000000000000003b9aca00",
          "blockHash": "0x1a0ea2b47fa4bcfb2c67fc0eec61bff3e0500a1b8e496a109d30834b015ade9c",
          "blockNumber": "0x12203a1",
          "transactionHash": "0xffda149c66a06189e996ef9c14b7e6c99f4f0d476c49045343f3e06b7871623d",
          "transactionIndex": "0x4",
          "logIndex": "0x7",
          "removed": false
        },
        {
          "address": "0x488327236b65c61a6c083e8d811a4e0d3d1d4268",
          "topics": [
            "0xddf252ad1be2c89b69c2b068fc378daa952ba7f163c4a11628f55a4df523b3ef",
            "0x0000000000000000000000002cef9729f07a1f92baf110fd302bd0f74a554510",
            "0x000000000000000000000000844f6b31f7d1240134b3d63ffc2b6f1c7f2612b6"
          ],
          "data": "0x000000000000000000000000000000000000000000000000000000003b9aca00",
          "blockHash": "0x1a0ea2b47fa4bcfb2c67fc0eec61bff3e0500a1b8e496a109d30834b015ade9c",
          "blockNumber": "0x12203a1",
          "transactionHash": "0xffda149c66a06189e996ef9c14b7e6c99f4f0d476c49045343f3e06b7871623d",
          "transactionIndex": "0x4",
          "logIndex": "0x8",
          "removed": false
        },
        {
          "address": "0x488327236b65c61a6c083e8d811a4e0d3d1d4268",
          "topics": [
            "0x8c5be1e5ebec7d5bd14f71427d1e84f3dd0314c0f7b2291e5b200ac8c7c3b925",
            "0x0000000000000000000000002cef9729f07a1f92baf110fd302bd0f74a554510",
            "0x000000000000000000000000844f6b31f7d1240134b3d63ffc2b6f1c7f2612b6"
          ],
          "data": "0x0000000000000000000000000000000000000000000000000000000000000000",
          "blockHash": "0x1a0ea2b47fa4bcfb2c67fc0eec61bff3e0500a1b8e496a109d30834b015ade9c",
          "blockNumber": "0x12203a1",
          "transactionHash": "0xffda149c66a06189e996ef9c14b7e6c99f4f0d476c49045343f3e06b7871623d",
          "transactionIndex": "0x4",
          "logIndex": "0x9",
          "removed": false
        },
        {
          "address": "0x844f6b31f7d1240134b3d63ffc2b6f1c7f2612b6",
          "topics": [
            "0x6c7131e79092f16af04daf787c07a4dc80e7ae1a95dbe1cc1a310cfe1619d2db",
            "0xd12495166ebaa4e78b31307c03f43e7e9f08c15a1621db170b1e8f3d5024630f"
          ],
          "data": "0x0000000000000000000000002cef9729f07a1f92baf110fd302bd0f74a554510000000000000000000000000000000000000000000000000000000003b9aca00",
          "blockHash": "0x1a0ea2b47fa4bcfb2c67fc0eec61bff3e0500a1b8e496a109d30834b015ade9c",
          "blockNumber": "0x12203a1",
          "transactionHash": "0xffda149c66a06189e996ef9c14b7e6c99f4f0d476c49045343f3e06b7871623d",
          "transactionIndex": "0x4",
          "logIndex": "0xa",
          "removed": false
        },
        {
          "address": "0x828223b512bf1892229fec61c5c1376bded3a285",
          "topics": [
            "0xce3ef9786e3b9388efc900e4e0a070185cebb023f778aa7688f8c71af67395de",
            "0x297da3418f11b0eb674228e39c86400b4142b21adfbfa985d7dc5073e41658b7"
          ],
          "data": "0x000000000000000000000000000000000000000000000000000000003b9aca000000000000000000000000002cef9729f07a1f92baf110fd302bd0f74a55451000000000000000000000000000000000000000000000000000000000000000a000000000000000000000000000000000000000000000000000000000000000e000000000000000000000000000000000000000000000000000000000000001200000000000000000000000000000000000000000000000000000000000000001000000000000000000000000000000000000000000000000000000000096ed7c0000000000000000000000000000000000000000000000000000000000000001000000000000000000000000000000000000000000000000000000000001825f000000000000000000000000000000000000000000000000000000000000000100000000000000000000000000000000000000000000000000000000000026a3",
          "blockHash": "0x1a0ea2b47fa4bcfb2c67fc0eec61bff3e0500a1b8e496a109d30834b015ade9c",
          "blockNumber": "0x12203a1",
          "transactionHash": "0xffda149c66a06189e996ef9c14b7e6c99f4f0d476c49045343f3e06b7871623d",
          "transactionIndex": "0x4",
          "logIndex": "0xb",
          "removed": false
        }
      ],
      "logsBloom": "0x00000000002000000000000000000000000000000000000000000000002000000200000000000000000000010000000000000000000000000000000022200000080000000000000000000008000000000000000002008020000000000001000000100000000000000000000000000000000000000000000000000010100000000000000000000000800000400000000000000000000000000000000000100000020000000080000000000000000000020000000010000000000000000000000000004002000000000010000000400000000000000000000000000000008000080010000000000001000000000400000000000201400000000000080000801000",
      "type": "0x2",
      "transactionHash": "0xffda149c66a06189e996ef9c14b7e6c99f4f0d476c49045343f3e06b7871623d",
      "transactionIndex": "0x4",
      "blockHash": "0x1a0ea2b47fa4bcfb2c67fc0eec61bff3e0500a1b8e496a109d30834b015ade9c",
      "blockNumber": "0x12203a1",
      "gasUsed": "0x7035f",
      "effectiveGasPrice": "0xf433b",
      "from": "0x77777cc68b333a2256b436d675e8d257699aa667",
      "to": "0x828223b512bf1892229fec61c5c1376bded3a285",
      "contractAddress": null,
      "l1BaseFeeScalar": "0x1db0",
      "l1BlobBaseFee": "0x1",
      "l1BlobBaseFeeScalar": "0xd2730",
      "l1Fee": "0x1ef9",
      "l1GasPrice": "0x1e6",
      "l1GasUsed": "0x843"
    }
  ],
  "libraries": [],
  "pending": [],
  "returns": {},
  "timestamp": 1729815285,
  "chain": 11155420,
  "commit": "b45d478"
}